:100000000C94DA020C9402030C9402030C94020385
:100010000C9402030C9402030C9402030C9402034C
:100020000C9402030C9402030C948F0C0C940F0D8F
:100030000C9402030C9402030C9402030C9402032C
:100040000C9402030C9402030C9402030C9402031C
:100050000C9402030C9402030C9402030C94AB0363
:100060000C9402030C9402030C9402030C940203FC
:100070000C9402030C9402030C9402030C940203EC
:100080000C9402030C9402030C9402030C940203DC
:100090000C9402030C9402030C9402030C940203CC
:1000A0000C9402030C9402030C940203D324D9246D
:1000B000DF24EB24F7244C254C254C2503250F2564
:1000C0001B25272535254C253E251A101D100C1003
:1000D000101014103E103E103E1021102510291053
:1000E0002F1033103E1039100000000200090F00DD
:1000F00000030401000C00000000000000000000EC
:10010000000000000000002A6572726F7220737494
:10011000617274696E6720746170656361727400E6
:100120002A53442063617264206661696C656421AE
:100130000066696E69736865642C2074696D653D3D
:10014000007772697465202530366C7800726561BD
:1001500064202530366C780D006572726F722077DE
:10016000726974696E672027005443525420736982
:100170007A653D256C78682C204C6F61646572202F
:10018000696E666F3D2578682C204C6F61646572DE
:10019000206C656E6774683D2578682C204C6F6113
:1001A0006465722063616C6C616464723D2578687B
:1001B0002C2027007573696E672064656661756C15
:1001C00074206C6F61646572006E11D07818A01095
:1001D000A20086C6A9272EF303900209088501CA4A
:1001E000EAD0FC29DF8501CAD0FD88D0E7A9308597
:1001F00001A0FA20B20399B0FFC8D0F720B2039152
:10020000AEE6AED002E6AFA5AEC5ACD0EFA6AFE489
:10021000ADD0E9A0378401382E11D0862E863085E6
:100220002D852F582053E46CAA00A9102401D0FC7E
:10023000A238A92786018500EAA50129184A4A455E
:10024000014A290FAAA50129184A4A45014A290F3E
:100250001DE303A22F8600E88601600010203040D5
:100260005060708090A0B0C0D0E0F0CA00000000E4
:10027000000000007573696E67206C6F61646572C1
:100280002066726F6D20544352542066696C65007D
:10029000544352542073697A6520657863656564B8
:1002A00073206361727472696467652073697A652B
:1002B00000756E6B6E6F776E2054435254207665D6
:1002C0007273696F6E00696E76616C696420544365
:1002D0005254206865616465720074617065636181
:1002E0007274496D6167650D0A1A63686B73756D89
:1002F0002066696E69736865642C20746F74616C24
:100300002074696D653D00636865636B73756D206E
:100310006572726F7200637263202530366C7820CC
:100320002530366C780063616C63756C6174696E3E
:100330006720636865636B73756D2E2E2E00777270
:100340006974652066696E69736865642C207469D8
:100350006D653D007772697465202530366C7800D4
:100360007772697465202530366C780D006572727D
:100370006F722072656164696E6720544352542025
:10038000686561646572006572726F722072656182
:1003900064696E672027005344206361726420659E
:1003A00072726F72006572726F7220736574746915
:1003B0006E6720636F6D6D616E64206D6F646500A4
:1003C0006E616D653D256C78682C20706167657382
:1003D000697A653D2578682C206572617365706166
:1003E0006765733D257868006E616D653D005461F9
:1003F00070656361727420696E666F3A00284929DE
:100400006E69742C284629696C65732C28572972EB
:100410006974652C2852296561642C2856296572F7
:1004200073696F6E000D0A72656164696E672054AE
:100430006170656361727420746F202700272074D7
:100440006F205461706563617274000D0A77726980
:1004500074696E6720270000000000250028002B2B
:10046000002E003100080B00020202010009040006
:100470000001020200000524001001052401010111
:10048000042402060524060001070581031000402C
:1004900009040100020A00000007050202400000F2
:1004A000070583024000000403090412010002EF63
:1004B00002014041233680000101020301417264C0
:1004C00075696E6F204C4C430041726475696E6FA4
:1004D000204C656F6E6172646F0041726475696E65
:1004E0006F205461706563617274466C61736865F6
:1004F00072205625642E25642F2564002A6E6F74A1
:1005000020696D706C656D656E74656420002A6588
:1005100072726F72207374617274696E6720746195
:1005200070656361727420636F6D6D616E64206DC0
:100530006F64650000000000240027002A002D00E1
:1005400030000408020110408040102040804080AC
:100550000802040180402010020110801020404059
:10056000200404040404030405020202020403023A
:10057000020202060606060606040402020204043B
:100580006E6F2073642D63617264206465746563AB
:100590007465640074617065636172742065727261
:1005A0006F720066696C656E616D653A20000820A7
:1005B0000800452B11241FBECFEFDAE0DEBFCDBF10
:1005C00026E0A4E6B1E001C01D92A334B207E1F732
:1005D00011E0A0E0B1E0ECE9F1E602C005900D9277
:1005E000A436B107D9F712E0CAEDD2E004C02197D2
:1005F000FE010E940B2CC93DD107C9F70E94EF23D1
:100600000C94CC300C9400003FB7F89480916D02AC
:1006100090916E02A0916F02B091700226B5A89BD6
:1006200005C02F3F19F00196A11DB11D3FBFBA2F84
:10063000A92F982F8827820F911DA11DB11DBC01E4
:10064000CD0142E0660F771F881F991F4A95D1F7A9
:100650000895CF93DF9390E0FC01EE5BFA4F249175
:10066000FC01EF59FA4F8491882361F190E0880FE3
:10067000991FFC01EC5CFA4FC591D491FC01E95A39
:10068000FB4FA591B491611109C09FB7F89488817F
:10069000209582238883EC912E230BC0623061F475
:1006A0009FB7F8943881822F809583238883EC91BB
:1006B0002E2B2C939FBF06C08FB7F894E8812E2B6A
:1006C00028838FBFDF91CF9108958F929F92AF9231
:1006D000BF92CF92DF92EF92FF926B017C010E945A
:1006E00004034B015C01C114D104E104F104F1F0F5
:1006F0000E940403DC01CB0188199909AA09BB09EE
:10070000883E9340A105B10570F321E0C21AD108DB
:10071000E108F10888EE880E83E0981EA11CB11C48
:10072000C114D104E104F10419F7DDCFFF90EF907B
:10073000DF90CF90BF90AF909F908F9008952FB78C
:10074000F8946091690270916A0280916B029091B5
:100750006C022FBF08951F920F920FB60F921124B3
:100760002F933F938F939F93AF93BF938091690291
:1007700090916A02A0916B02B0916C023091680274
:1007800023E0230F2D3720F40196A11DB11D05C0D4
:1007900026E8230F0296A11DB11D209368028093C5
:1007A000690290936A02A0936B02B0936C028091ED
:1007B0006D0290916E02A0916F02B091700201964D
:1007C000A11DB11D80936D0290936E02A0936F02E4
:1007D000B0937002BF91AF919F918F913F912F91F4
:1007E0000F900FBE0F901F9018958EBD0DB407FE91
:1007F000FDCF08958FEF8EBD0DB407FEFDCF8EB5F2
:100800000895CF93DF93FC012381222361F0EC0153
:100810000180F281E02D61E082810E94EF0F8FEF75
:100820000E94F5031B82DF91CF910895CF93DF9350
:10083000FC012381211110C0EC010180F281E02D27
:10084000908181819CBD8DBDE981FA8160E08281CA
:100850000E94EF0F81E08B83DF91CF910895EF929B
:10086000FF921F93CF93DF9300D000D0CDB7DEB7B8
:100870007C01162F29833A834B835C83FC0183819F
:10088000811103C0C7010E9416040E94FC1E812F23
:1008900080640E94F5038C810E94F5038B810E9485
:1008A000F5038A810E94F50389810E94F5031123D3
:1008B00011F087E801C085E90E94F5031C3011F4AE
:1008C0000E94FA0310E00E94FA03F701848387FF75
:1008D00004C01F3F11F01F5FF6CF0F900F900F90D5
:1008E0000F90DF91CF911F91FF90EF9008950F939C
:1008F0001F93CF93DF93EC0189018D81833039F011
:1009000089E0440F551F661F771F8A95D1F79A011A
:10091000AB0168E1CE010E942F04882311F082E32D
:100920002DC08EEF0E94F503F80180818EBD81817C
:1009300032961E5F0DB407FEFDCF8EBDE017F107A6
:1009400011F08191F7CF0DB407FEFDCF8FEF0E941C
:10095000F5038FEF0E94F5030E94FA038C838F71D9
:10096000853031F087E58883CE010E94010407C0FD
:100970000E94FC1E182F811107C08AE58883CE01D2
:100980000E94010410E012C020E030E0A9016DE0F7
:10099000CE010E942F04811104C00E94FA03882313
:1009A00011F089E2EBCFCE010E940104812FDF918B
:1009B000CF911F910F910895EF92FF920F931F9384
:1009C000CF93DF93EC0179018D81833039F089E099
:1009D000440F551F661F771F8A95D1F79A01AB0107
:1009E00061E1CE010E942F04882319F080E38883FF
:1009F00038C00E949F038B010E94FA038C838F3FB3
:100A000049F40E949F03601B710B6D327140A0F38B
:100A100085E503C08E3F31F080E58883CE010E94DA
:100A200001041FC08FEF8EBDF701D701A150BE4F4B
:100A30009FEF0DB407FEFDCF8EB59EBD8193EA17E3
:100A4000FB07B9F70DB407FEFDCF8EB58C931C8262
:100A50000E94FA030E94FA03CE010E94010481E081
:100A600004C0CE010E94010480E0DF91CF911F916C
:100A70000F91FF90EF900895EF92FF921F93CF9305
:100A8000DF93FC01208120FF32C0EC017C01F7E004
:100A9000EF0EF11C4B815C816D817E81E981FA81D1
:100AA0009701808191810E947704182F811102C0E3
:100AB00010E01EC0888181FD04C088818E7F8883FC
:100AC00017C0E981FA8144855585668577858B81D4
:100AD0009C81AD81BE81480F591F6A1F7B1F970102
:100AE000808191810E9477048111E7CFE1CF11E0ED
:100AF000812FDF91CF911F91FF90EF900895CF92BA
:100B0000DF92EF92FF921F93CF93DF93EC016A0184
:100B10007B01122F8B819C81AD81BE81841795074B
:100B2000A607B707F1F0CE010E943C05811103C072
:100B300080E090E01CC012FF06C01882CB82DC82ED
:100B4000ED82FE820EC0E981FA819E01295F3F4F4E
:100B5000B701A601808191810E94DC048111EDCF53
:100B6000E7CF13708881182B1883CE010796DF9189
:100B7000CF911F91FF90EF90DF90CF9008958F92CB
:100B80009F92AF92BF92CF92DF92EF92FF920F931C
:100B90001F936A017B0148015901423051056105EB
:100BA000710510F480E052C0FC01408D518D628DC2
:100BB000738D4C155D056E057F05A0F325812032F0
:100BC00041F5448955896689778997018601E7E06F
:100BD0003695279517950795EA95D1F7400F511F40
:100BE000621F731F23E080960E947F050097D1F259
:100BF000E894C7F8DD24EE24FF24CC0CDD1CCC0CDB
:100C0000DD1CFC01EC0DFD1D80829182A282B3826D
:100C10001CC0203139F6FC014489558966897789E1
:100C20004D0D511D611D711D23E080960E947F05B1
:100C3000009709F4B7CFDD24EE24FF24CC0CDD1C93
:100C4000FC01EC0DFD1D9182808281E01F910F91CE
:100C5000FF90EF90DF90CF90BF90AF909F908F90DC
:100C60000895CF92DF92EF92FF920F931F93CF934D
:100C7000DF93EC016A017B01890142305105610576
:100C8000710510F48FEF63C0888D998DAA8DBB8D8F
:100C900084179507A607B707A8F38D81803241F521
:100CA0008C899D89AE89BF89E7E0769567955795D0
:100CB0004795EA95D1F7480F591F6A1F7B1F22E01D
:100CC000CE0180960E947F050097E1F2E894C7F874
:100CD000DD24EE24FF24CC0CDD1CCC0CDD1CFC013F
:100CE000EC0DFD1D80819181A281B381BF701EC07A
:100CF000803141F64C895D896E897F894D0D511D8A
:100D0000611D711D22E0CE0180960E947F05009733
:100D100009F4B8CFDD24EE24FF24CC0CDD1CFC014B
:100D2000EC0DFD1D80819181A0E0B0E0488D598DD2
:100D30006A8D7B8D481759076A077B0738F0F801E1
:100D400080839183A283B38381E001C080E0DF913F
:100D5000CF911F910F91FF90EF90DF90CF9008956A
:100D60009F92AF92BF92CF92DF92EF92FF920F933A
:100D70001F93CF93DF9300D000D0CDB7DEB75C01D7
:100D80006A017B019E012F5F3F4FB701A601C5019C
:100D90000E943106982E87FF02C080E01EC000E04E
:100DA00010E09801B701A601C5010E94BF05882384
:100DB000A1F3F5014085518562857385C416D5067A
:100DC000E606F70620F4C086D186E286F386C9805F
:100DD000DA80EB80FC809110D5CF0F900F900F90B0
:100DE0000F90DF91CF911F910F91FF90EF90DF90C7
:100DF000CF90BF90AF909F9008956115710579F0E5
:100E0000FB0101900020E9F73197AF01461B570B1A
:100E1000DC01ED91FC910280F381E02D099480E0EA
:100E200090E00895FC01AC01455F5F4F80E090E8E1
:100E3000899F90011124982F9695922B2191892FAB
:100E4000820FE417F50799F708952F923F924F927A
:100E50005F926F927F928F929F92AF92BF92CF924A
:100E6000DF92EF92FF920F931F93CF93DF93CDB753
:100E7000DEB72D970FB6F894DEBF0FBECDBF8C0145
:100E80007B01FA01418152815A834983DB018C91B4
:100E9000807709F4E2C2D8018C918111DEC2908181
:100EA000937009F4CEC289819A810C966DE070E04E
:100EB0000E94D52B88248394860E2F831F01FD86E4
:100EC000EC861A87098740E050E0BA01C7010E940A
:100ED0007510E12CB12CF12C912C10E000E018865B
:100EE0006101B6E0CB0ED11C9DE0A92EAC85BD857D
:100EF00050964D905D906D907C905397A301920118
:100F000085E056954795379527958A95D1F72B8398
:100F10003C834D835E834B805C8061E0CD010E9409
:100F20005412009741F4AC85BD8511968C918823AD
:100F300009F495C092C2FC012081253E11F02111D7
:100F40000AC0111102C0EB80BC80181508F41F5FA5
:100F5000211105C084C0181508F476C202C0253ED0
:100F6000F1F12E32E1F1DC011B963C911B973F30F1
:100F700009F056C0011108C026FFB8CF022F0F712B
:100F80001D96FC90902E07C09A94291128C0FC0150
:100F90002585F21224C0492D50E041505109A49EEC
:100FA0009001A59E300D112449815A8124173507DF
:100FB000B0F4FC0160E0653018F48181928107C0D3
:100FC0006B3018F48481958102C086819781A98154
:100FD000BA812A173B0729F4892B09F487CF00E04F
:100FE00085CF8F3F910509F0D0F74FEB480F4A317D
:100FF00010F0782F02C070E2780FC9010196D1017C
:1010000013964D915C911497DA01A20FB31F2C91A6
:101010003FEB320F3A3108F4205E7213E0CF16C274
:1010200033FDDDCF002341F0B1E09B1216C20E94D8
:1010300012078F1112C20FC04BE050E0B6010E94A0
:10104000152E892B09F052CFF101808180FF03C05A
:10105000E1E0E8874BCFFF81F7FFEAC1FEC18F8156
:101060008274823409F0F9C1112359F04E2C5B2CA3
:1010700008C060E08C859D850E945412892B21F068
:101080001F5F1815B0F306C0AC85BD8511968C9115
:101090008111E3C1612CF2E07F2E72C0EC85FD85E9
:1010A000808185FDDAC180899189A289B389811502
:1010B0009E4FAF41B10508F0D0C18C859D850E943F
:1010C000CA15882309F4C9C1AC85BD851696ED9172
:1010D000FC9117971C96CD90DD90ED90FC901F979A
:1010E000B2E0CB1AD108E108F108048004C0CC0CAE
:1010F000DD1CEE1CFF1C0A94D2F780899189A2891D
:10110000B389C80ED91EEA1EFB1E25E0B701A60151
:10111000CF0180960E947F055C01009709F49DC174
:10112000FC019301119221503040E1F701E0EC8580
:10113000FD850680F781E02DFC83EB838281081713
:1011400018F190E0A0E0B0E0E9E0880F991FAA1F35
:10115000BB1FEA95D1F7EC85FD85408951896289ED
:101160007389840F951FA61FB71F808B918BA28B4D
:10117000B38BAB81BC8112968C918230B8F4105F36
:10118000181508F48BCF12C09501B701A601400FC6
:10119000511D611D711DAB81BC818D919C910E947F
:1011A0007704882309F459C10F5FC1CFB885BB23E9
:1011B00009F475C0F101D58002E010E07EE7C72E8A
:1011C0007101F6E0EF0EF11C42C0B3E0BD1510F462
:1011D00053E0D52E94E09D0D822F8F70E92FF0E023
:1011E0008A3008F055C0805DE20DF31D868344E02F
:1011F000369527954A95E1F79150D91668F3F10194
:10120000ED0DF11DC68240E050E0BA018C859D8550
:101210000E94751061E08C859D850E945412009794
:10122000C9F1DC012C912223D1F11B962C9123FDD5
:10123000F1CF4BE050E0BC01C7010E94152E892B75
:1012400049F70F5F1F4F0436110509F406C1D1019C
:1012500011964D915C9112979801240F351F1396AA
:10126000ED91FC9114974E0F5F1FE417F50709F4F9
:10127000ACCFC90165E0880F991F6A95E1F7280F87
:10128000391F8191082E000C990B28273927EDCFA3
:10129000895CAACFEC85FD8581818111DEC0A20128
:1012A00060E070E025E0440F551F661F771F2A9508
:1012B000D1F78C859D850E947510882309F4CDC0D7
:1012C0000FEF080DA02E1FE06101B6E0CB0ED11C80
:1012D0009DE0B92EAA2009F461C060E08C859D854F
:1012E0000E9454127C01892B09F4B7C0AC85BD85DE
:1012F0001696ED91FC91179780A1816080A32A2D0D
:10130000A01201C02064F701208313871486C60150
:101310002B870E941207D7011D968C931D975B9611
:101320001C921E925A97F101438154812B852F7193
:1013300030E021503109B29EC001B39E900D1124BE
:10134000F70160E029813A818217930740F4DA01BE
:10135000A80FB91F2C91022E000C330B0CC021E0FA
:1013600030E0A981BA818A179B0711F420E030E0B0
:10137000319521953109653018F43283218307C0F6
:101380006B3018F43583248302C0378326836F5F64
:10139000019632966D30B1F6AA949CCFEC85FD850E
:1013A000408951896289738985E07695679557955B
:1013B00047958A95D1F72A0160E0CF010E94541227
:1013C000009709F44AC020E2DC011D922A95E9F752
:1013D000F10136962BE0DC0101900D922A95E1F7A0
:1013E000F10120812871DC011C962C931C9721E2CD
:1013F00038E251963C932E93509740E058E01F9668
:101400005C934E931E9753963C932E935297599606
:101410003C932E93589757965C934E935697AC8572
:10142000BD851696ED91FC91179780A1816080A3F0
:101430002F81A2016C857D8589859A850E9415136F
:101440000DC08824839439CD10E08BCD6F5F329628
:101450006D3009F44BCD9C01AECD80E02D960FB6DA
:10146000F894DEBF0FBECDBFDF91CF911F910F91DA
:10147000FF90EF90DF90CF90BF90AF909F908F90B4
:101480007F906F905F904F903F902F900895409184
:1014900073025091740220917102309172024217CE
:1014A0005307B4F49091E8009570E1F39091E8004F
:1014B00092FD19C08093F1008091730290917402A3
:1014C00001968F739927892B19F48EEF8093E8008A
:1014D00080917302909174020196909374028093AC
:1014E000730281E0089580E00895CF92DF92EF9239
:1014F000FF920F931F93CF93DF931F92CDB7DEB769
:10150000182F062FE42E862F880F8E5F99830E9456
:10151000470A83E00E94470AF12EC12E9981D92EF5
:101520008C2D8F19801798F4F601E7FE02C0849184
:1015300001C080810E94470A182F80E00E94470A5C
:101540008123FFEFCF1ADF0A8111EACF01C081E0CA
:101550000F90DF91CF911F910F91FF90EF90DF904F
:10156000CF900895DF92EF92FF920F931F93CF9346
:10157000DF93D82E8A017B01E40EF51EEB01CE1518
:10158000DF0571F0D7FE03C0FE01849101C08881A0
:101590000E94470A21968111F2CF8FEF9FEF01C081
:1015A000C801DF91CF911F910F91FF90EF90DF90D5
:1015B0000895615030F02091F100FC0120830196E4
:1015C000F8CF289884E680933B060895CF92DF9267
:1015D000EF92FF920F931F93CF93DF936C017A01E9
:1015E0008B01C0E0D0E0CE15DF0589F0D8016D9108
:1015F0008D01D601ED91FC910190F081E02DC601A5
:101600000995892B11F47E0102C02196ECCFC70108
:10161000DF91CF911F910F91FF90EF90DF90CF90CE
:101620000895CF93DF931F92CDB7DEB76983DC01B6
:10163000ED91FC910280F381E02D41E050E0BE018C
:101640006F5F7F4F09950F90DF91CF910895FC0157
:101650008485958597FD0BC09FB7F89482E08093B1
:10166000E9008091F2009FBF90E0019608959FB736
:10167000F89482E08093E9008091F2009FBF90E0AF
:1016800008950E94082E0C94B4190F931F93CF93C2
:10169000DF931F92CDB7DEB782E0898342E450E04A
:1016A00065E674E080E80E94B20A0E940D1CDC012D
:1016B00012960D911C9113970115110569F0D8012F
:1016C000ED91FC910280F381E02DBE016F5F7F4FB1
:1016D000C801099597FF07C089810F90DF91CF91CD
:1016E0001F910F910895F80100851185E5CF8F9224
:1016F0009F92AF92BF92CF92DF92EF92FF920F93A1
:101700001F93CF93DF935C016B017A0180910701F6
:10171000882309F45BC080913C06882309F456C0F5
:101720008091650180FF05C08091E0008260809318
:10173000E000E70110E00AEF83E0882E9AE3992E9B
:101740002097D9F10E94FC1B81110AC0015009F4B5
:101750003DC061E070E080E090E00E946503F0CF62
:10176000282F30E0C217D3070CF48C2F4FB7F89412
:101770008092E9009091E80095FF1DC0282F30E08D
:10178000C21BD30BF601982F915020F081918093CA
:10179000F100FACFC20ED31E112319F09092E80087
:1017A00009C08091E80085FD06C09092E80011E034
:1017B000209709F010E04FBFC3CF1111C3CF5D9840
:1017C00084E6809375021E141F0444F081E090E0CB
:1017D000F5019383828380E090E001C0C701DF912F
:1017E000CF911F910F91FF90EF90DF90CF90BF901E
:1017F000AF909F908F9008950E94FC1B90E00895F9
:101800000F931F93CF93DF931F92CDB7DEB78C0159
:10181000FC018485958597FF0EC0CE0101960E943C
:101820004023019719F4298130E002C02FEF3FEFE8
:10183000F80135872487F801848595850F90DF911D
:10184000CF911F910F910895CF93DF931F92CDB742
:10185000DEB7FC018485958597FD05C02FEF3FEF2E
:10186000358724870BC0CE0101960E944023019743
:1018700019F4898190E002C08FEF9FEF0F90DF9104
:10188000CF910895FC01808191810C94A62CEF9258
:10189000FF920F931F93CF93DF93EC01198218826D
:1018A0001B821A821D821C826115710589F18B01D0
:1018B000CB010E94892B7C01BC016F5F7F4F80E0D0
:1018C00090E00E943E2D009759F099838883FB8217
:1018D000EA822C813D81232B81F4FC0110820DC012
:1018E00088819981009711F00E94A62C1982188294
:1018F0001D821C821B821A820BC0FD82EC82B80101
:10190000DF91CF911F910F91FF90EF900C94822B5C
:10191000DF91CF911F910F91FF90EF9008951F924B
:101920000F920FB60F9211242F933F934F935F9313
:101930006F937F938F939F93AF93BF93CF93EF93C7
:10194000FF93C091E1008091E100837F8093E100EB
:10195000C3FF0FC01092E90081E08093EB0010926A
:10196000EC0082E38093ED0010923C0688E08093C7
:10197000F000C2FF18C00E94B4198091750288233C
:1019800039F080917502815080937502882389F126
:1019900080913B06882339F080913B0681508093EB
:1019A0003B06882341F1C4FF10C08091E2008E7E87
:1019B00081608093E2008091E1008F7E8093E1005E
:1019C000809165018E7E806111C0C0FF16C080913C
:1019D000E2008E7E80618093E2008091E1008E7E45
:1019E0008093E100809165018E7E81608093650126
:1019F00004C05D9ACDCF289AD6CFFF91EF91CF91B9
:101A0000BF91AF919F918F917F916F915F914F9116
:101A10003F912F910F900FBE0F901F9018951F921E
:101A20000F920FB60F921124CF92DF92EF92FF9296
:101A30000F931F932F933F934F935F936F937F93D6
:101A40008F939F93AF93BF93EF93FF93CF93DF93C6
:101A5000CDB7DEB76C97DEBFCDBF1092E9008091A5
:101A6000E80083FFEDC168E0CE0145960E94D90AE7
:101A700082EF8093E8008D8987FF05C09091E80090
:101A800090FFFCCF03C09EEF9093E800982F9076D4
:101A900009F0C6C09E892F89188D91110CC080381D
:101AA00029F4809166018093F10002C01092F10048
:101AB0001092F10048C1422F50E0512B913051F467
:101AC000811141C14130510509F03DC1809166014C
:101AD0008D7F0BC0933061F4811135C141305105C8
:101AE00009F031C1809166018260809366012BC14B
:101AF000953041F48091E80080FFFCCF206820936E
:101B0000E30021C1963009F05FC0EB8CFC8C109291
:101B1000E9001092740210927302123091F5109243
:101B20007202109271020E94450B99E0BE016F5F34
:101B30007F4FDB01E92F1D92EA95E9F799831A831C
:101B400091E09E8390EA98879AEF9987209173029B
:101B500030917402275F3F4F3C832B838D8310921B
:101B6000E9001092740210927302F0927202E092F5
:101B7000710249E050E080E00E94B20A0E94450BE9
:101B8000E2C0F0927202E09271020E940D1CDC0130
:101B90001296ED90FC901397E114F10409F4C0C083
:101BA000D701ED91FC910480F581E02DBE016B5EC3
:101BB0007F4FC7010995009719F00CF0C4C0C7C04A
:101BC000F701E084F184E8CF973009F4C0C0983081
:101BD00021F481E08093F100B6C0993009F0B3C0E0
:101BE000837009F0B4C0E5E2F1E081E021E036E382
:101BF0009081992361F08093E9002093EB0091910B
:101C00009093EC003093ED008F5F873089F78EE77B
:101C10008093EA001092EA008F8980933C0693C07B
:101C20008B8D9C8D1092E9001092740210927302B9
:101C30009093720280937102898D811156C08E89B2
:101C40009D89913A59F4813209F081C047E050E012
:101C500060E071E080E00E94B20A75C0913209F044
:101C600076C0833289F4888D90E0982F88272F8959
:101C7000822BA0E0B0E08093080190930901A0932B
:101C80000A01B0930B015FC0803269F48091E800D3
:101C900082FFFCCF67E080E091E00E94D90A8BEFE1
:101CA0008093E80006C0823209F04DC08F8980938E
:101CB000070180916401882319F0EEEFFAE002C079
:101CC000E0E0F8E08091000190910101A091020113
:101CD000B0910301803B9440A105B10509F07BC0A0
:101CE0008091070180FF93C076C00E940D1CDC012B
:101CF00012960D911C9113970115110541F1D80110
:101D0000ED91FC910190F081E02DBE016B5E7F4F63
:101D1000C8010995811117C0F80100851185ECCF24
:101D2000113009F44EC0133091F48F89882309F4DF
:101D300045C0823081F440E860E189EC94E00E9483
:101D4000750A882321F08EEF8093E80079C081E244
:101D50008093EB0075C0813029F440E86BE08DEB97
:101D600094E0EDCF833099F70E940D1CDC011296B0
:101D7000ED90FC9013978E010F5F1F4F6801E114E7
:101D8000F10479F0D701ED91FC910680F781E02D07
:101D9000B801C7010995080F111DF701E084F1840E
:101DA000EECFD8011C92F60101900020E9F731979F
:101DB000BF016C197D0940E0C601C1CF67EA74E03C
:101DC00002C06BEA74E06115710509F2FB014491F0
:101DD00050E080E840CF0FB6F894A895809160005D
:101DE000886180936000109260000FBEA895EE3F5E
:101DF0002AE0F20739F08091FE0A9091FF0A918360
:101E00008083A1CF1092FF0A1092FE0A9CCFEE3F72
:101E10008AE0F80731F0808191819093FF0A8093E6
:101E2000FE0A87E797E7918380839BE088E10FB6FE
:101E3000F894A895809360000FBE9093600083CFC4
:101E40006C960FB6F894DEBF0FBECDBFDF91CF9179
:101E5000FF91EF91BF91AF919F918F917F916F9182
:101E60005F914F913F912F911F910F91FF90EF90B4
:101E7000DF90CF900F900FBE0F901F9018954F924C
:101E80005F926F927F92EF92FF920F931F93CF9387
:101E9000DF93CDB7DEB7A1970FB6F894DEBF0FBEC4
:101EA000CDBF7C01FA01CB0119A2223008F42AE04F
:101EB0008E010F5D1F4F422E512C612C712CBF01E2
:101EC000A30192010E94E92BF901CA0101501109F5
:101ED0006A3014F4605D01C0695CD8016C93232BF7
:101EE000242B252B61F7B801C7010E94FD06A1969E
:101EF0000FB6F894DEBF0FBECDBFDF91CF911F911B
:101F00000F91FF90EF907F906F905F904F900895AA
:101F100060E671E00C94FD060F931F93CF93DF935F
:101F2000EC010E94FD068C01CE010E94880F800FFB
:101F3000911FDF91CF911F910F910895DC01ED91D9
:101F4000FC910190F081E02D09940F931F93CF93A2
:101F5000DF93EC010E949E0F8C01CE010E94880F3E
:101F6000800F911FDF91CF911F910F9108950C94D5
:101F7000FD06EF92FF920F931F93CF93DF938C0197
:101F80007B01C0E0D0E0F701EC0FFD1F64916623F8
:101F900061F0D801ED91FC910190F081E02DC80134
:101FA0000995892B11F02196EECFCE01DF91CF91CB
:101FB0001F910F91FF90EF9008950F931F93CF9370
:101FC000DF93EC010E94B90F8C01CE010E94880FB3
:101FD000800F911FDF91CF911F910F910895362FA0
:101FE00090E0FC01E851FF4F4491FC01EE5BFA4F99
:101FF0002491FC01EF59FA4F8491882309F451C0D0
:102000004423E1F150E0FA013197EF30F105B0F5EA
:10201000EB59FF4F0C940B2C909180009F7707C0D9
:10202000909180009F7D03C090918000977F909356
:10203000800024C094B59F7702C094B59F7D94BD65
:102040001DC0909190009F7707C0909190009F7D58
:1020500003C090919000977F909390000FC0909153
:10206000C0009F7703C09091C0009F7D9093C000F7
:1020700005C09091C200977F9093C200E82FF0E0D6
:10208000EE0FFF1FE95AFB4FA591B4918FB7F8945B
:10209000EC91311103C020952E2301C02E2B2C93DF
:1020A0008FBF0895FC01848583FF0DC084A195A195
:1020B000A6A1B7A1448D558D668D778D841B950B98
:1020C000A60BB70B03C080E090E0DC01811520E88F
:1020D0009207A105B10520F08FEF9FE7A0E0B0E0E7
:1020E0000895089580E090E008954F925F926F9276
:1020F0007F928F929F92AF92BF92CF92DF92EF9298
:10210000FF920F931F93CF93DF93EC014A015B0182
:102110004C845D846E847F84A881AA2309F491C0D5
:10212000488959896A897B8984169506A606B70667
:1021300009F48DC081149104A104B10429F41C8612
:102140001D861E861F8678C0A3FF0BC0088D198DC3
:102150002A8D3B8D081519052A053B0508F471C029
:1021600014C0A5FF12C0EE81FF818681978125E012
:10217000880F991F2A95E1F7A0E0B0E0881599052E
:10218000AA05BB0508F45DC057C0EE81FF818481BC
:1021900090E009968A019B0101501109210931093A
:1021A000082E04C036952795179507950A94D2F7FF
:1021B00075016401B1E0CB1AD108E108F10804C04F
:1021C000F694E794D794C7948A95D2F7C016D106AF
:1021D000E206F30620F0452B462B472B81F4A6FFA1
:1021E00005C0848D958DA68DB78D04C08C8D9D8D79
:1021F000AE8DBF8D8C879D87AE87BF8704C0C01A08
:10220000D10AE20AF30A8E01045F1F4FC114D10400
:10221000E104F10489F04C855D856E857F85980128
:102220008E819F810E94310691E0C91AD108E10890
:10223000F10818165CF305C0888A998AAA8ABB8AB5
:1022400006C04C865D866E867F8680E001C081E098
:10225000DF91CF911F910F91FF90EF90DF90CF9082
:10226000BF90AF909F908F907F906F905F904F90B6
:1022700008954F925F926F927F928F929F92AF924A
:10228000BF92CF92DF92EF92FF920F931F93CF9363
:10229000DF93EC014B018A0188818823D9F09A8170
:1022A00090FF18C01DC0D380D422A114B10409F03E
:1022B00081C0D1107FC0892B8A2B8B2B09F464C07D
:1022C0004C855D856E857F859201CF010E94310628
:1022D00087FF6AC08981826089838FEF9FEFD3C0B7
:1022E00083FF15C0888D998DAA8DBB8D488959892A
:1022F0006A897B89841B950BA60BB70BA80160E04C
:1023000070E0481759076A077B07A0F012C085FFE5
:1023100011C0EE81FF818681978155E0880F991F5A
:102320005A95E1F728893989821B930B8017910709
:1023300008F48C0178012E012CE0420E511C612C16
:1023400042E0742EE114F10409F465C0888999898A
:10235000AA89BB895C0121E0B2222881EE81FF813C
:10236000AC01BD0139E076956795579547953A954B
:10237000D1F725FF98CF848D958DA68DB78D480F09
:10238000591F6A1F7B1F34C026FF05C0848D958DA1
:10239000A68DB78D04C08C8D9D8DAE8DBF8D8C8725
:1023A0009D87AE87BF8706C0811104C08881807772
:1023B00091F590CFEE81FF814C855D856E857F859F
:1023C0004250510961097109048004C0440F551F2E
:1023D000661F771F0A94D2F780899189A289B389F1
:1023E000480F591F6A1F7B1F4D0D511D611D711D27
:1023F000EE81FF81A114B10471F5E11482E0F806C9
:1024000050F183A194A1A5A1B6A1481759076A0765
:102410007B0729F420C0C8018E199F0934C094019C
:10242000808191810E94DC04882309F453CFC12C60
:1024300082E0D82E8C0C9D1C88899989AA89BB8939
:102440008C0D9D1DA11DB11D888B998BAA8BBB8BFB
:10245000EC18FD0877CFC3018A199B0967018E1517
:102460009F0508F46C0120E0CF0180960E947F0553
:10247000009709F42FCFBC016A0D7B1DA601C40192
:102480000E94222ED7CFDF91CF911F910F91FF9005
:10249000EF90DF90CF90BF90AF909F908F907F9004
:1024A0006F905F904F900895FF920F931F93CF937B
:1024B000DF931F92CDB7DEB78C01FC018089918933
:1024C000A289B3899C01AD0175E056954795379572
:1024D00027957A95D1F7F22FFF70FF2E11F0611139
:1024E00016C041E050E0BE016F5F7F4FC8010E94FF
:1024F0003911813019F080E090E01AC0F80180892C
:102500009189A289B3894F96A11DB11D04C08096FF
:10251000A11DB11DF801808B918BA28BB38BF801AB
:10252000868197818796F0E2FF9E800D911D112490
:102530000F90DF91CF911F910F91FF900895CF934E
:10254000DF931F92CDB7DEB741E050E0BE016F5F71
:102550007F4F0C960E943911019719F4898190E000
:1025600002C08FEF9FEF0F90DF91CF9108958F9270
:102570009F92AF92BF92CF92DF92EF92FF920F9312
:102580001F93CF93DF931F92CDB7DEB78C01FC0171
:10259000848C958CA68CB78CC08CD18CE28CF38CFF
:1025A00041E050E0BE016F5F7F4F0C960E943911F1
:1025B000019721F49981892F90E002C08FEF9FEF5E
:1025C0008F3FFFEF9F0749F0F801848E958EA68E0E
:1025D000B78EC08ED18EE28EF38E0F90DF91CF91A9
:1025E0001F910F91FF90EF90DF90CF90BF90AF9031
:1025F0009F908F900895FC018081811114C080E22A
:10260000DF01982F1D929A95E9F777836683DB01A6
:1026100015969C91903119F0903229F480E48083D2
:1026200081E08283089580E008958F929F92AF9217
:10263000BF92FF920F931F93CF93DF93EC01F22E83
:1026400080E2DE011D928A95E9F7FB018681978180
:102650009F838E835D834C83848C958CA68CB78CF2
:1026600088869986AA86BB86FA01EF70FF27DC016F
:10267000979635E0EE0FFF1F3A95E1F7AD014E0F4B
:102680005F1FDA011B962C9123FF03C0188280E0A4
:1026900063C09C012E0F3F1FD901D2962C91277148
:1026A0002883DA011B963C91387111F42860288345
:1026B0000B832F2D227319F02881217139F72F2DCB
:1026C0002F702A83DC0193964D915D916D917C91E1
:1026D00096974C8B5D8B6E8B7F8BE80FF91F43AD0C
:1026E00054AD60E070E0BA0155274427DF01AF5BCD
:1026F000BF4F0D911C9120E030E0402B512B622BFD
:10270000732BF4FE0AC04115510561057105F9F0FE
:102710000E94B00681111BC0B9CF4C8F5D8F6E8FA8
:102720007F8FED5BFF4F80819181A281B381888F84
:10273000998FAA8FBB8FF5FE0EC0488D598D6A8D7B
:102740007B8DCE010E947510811105C09FCF8A81BB
:1027500080688A83F0CF81E0DF91CF911F910F9144
:10276000FF90BF90AF909F908F900895CF93DF938D
:10277000EC01262F4C895D896E897F898E819F812E
:1027800080960E947F05009761F02C813D812F701B
:10279000332745E0220F331F4A95E1F7820F931F3D
:1027A00002C080E090E0DF91CF910895CF93DF9356
:1027B000FC012081211102C081E031C0EC01828145
:1027C00087FF25C061E0CF010E94B613FC01892B71
:1027D00029F489818160898380E021C08081853EE0
:1027E000C1F3888183FF08C0888D998DAA8DBB8D28
:1027F000848F958FA68FB78F8C8D9D8DAE8DBF8D5D
:10280000938F828FB58BA48B8A818F778A838E81F9
:102810009F8180960E943C058823D9F2CDCFDF911D
:10282000CF910895CF93DF93EC010E94D6131882C5
:10283000DF91CF9108952F923F924F925F926F92C6
:102840007F928F929F92AF92BF92CF92DF92EF9240
:10285000FF920F931F93CF93DF93CDB7DEB7E4972B
:102860000FB6F894DEBF0FBECDBF6C017A01922E79
:1028700019821A82DC018C9181116BC1FB0180816C
:10288000807709F466C1FA0180818F32C9F47F0133
:1028900081918F32E1F3DB0116966D917C91179750
:1028A000811104C0C6010E94FB1258C1CE010196DD
:1028B0000E94FB12882309F44CC1BE016F5F7F4F59
:1028C0005E01B2E3AB0EB11CF7012FEFE21AF20A80
:1028D00080818032C9F3FDA3ECA3DF019D012E1B93
:1028E0003F0B8D918823D9F08F32C9F08C3509F4D4
:1028F00030C1982F977F923209F42BC18A3309F4A3
:1029000028C1982F9F7B9C3309F423C192EC980F28
:10291000923008F41EC180528F3500F31AC1AF0106
:10292000420F531FCA017C01DC012D91CD012AAB5E
:102930002032C9F32F32B9F39A012E1B3F0B4E17E9
:102940005F0741F0DA019E91AD019E32A9F390320A
:1029500099F303C080E090E006C0C9012F3F310524
:1029600011F00CF0F6C09BA38AA3DE01979620E23B
:102970002D93AA15BB05D9F7DF019D012E1B3F0B37
:102980004D914E32D1F34032C1F33CAB2BAB51E011
:10299000232B09F050E08C010150110938F09F0100
:1029A000200F311FD9012C912E32B1F76EA027E0F4
:1029B000722E312C512C812C38E0432EABA9BCA9AE
:1029C000A817B9070CF080C02BA93CA92E0F3F1FF8
:1029D000D9014C91403209F460C04E3239F42BA930
:1029E0003CA90217130709F058C004C04232A1F0F5
:1029F0004C3791F026ED240F263010F44D3261F45F
:102A000026EC240F263040F025EA240F233020F056
:102A10002FED240F2E3530F0ABA9BCA9A017B107BC
:102A200081F43FC02BA93CA920173107D1F17314C1
:102A300010F1242F3FE9340F3A3140F440528428FA
:102A400009C07314C0F050E04FE52FE521542A313E
:102A500008F4542822242394230C27E230E02C0F7E
:102A60003D1F230D311DD9014C93B6E0B215B8F0CE
:102A7000622C322C22C03AE0731609F46CC0ABA968
:102A8000BCA90A171B070CF466C01CAB0BAB5AE0C1
:102A9000752EA8E03A2EB0E14B2E50E00EC0322C3D
:102AA0000CC02AE0721609F456C01CAB0BAB2AE02E
:102AB000722E38E0332E40E1442E2BA93CA92F5F23
:102AC0003F4F3CAB2BAB7ACF6EA28FA1803209F483
:102AD00040C0552339F0582011F4882D01C082E000
:102AE00089A314C081E089A38EA190E0E7E2F0E021
:102AF000EC0FFD1FE80FF91F2EE72083E8E2F0E05E
:102B0000EC0FFD1FE80FF91F21E32083FAA9FF2333
:102B1000C1F021E0AE014F5D5F4FC6010E94250765
:102B20008823B9F0F601DE01119680E201900D9242
:102B30008A95E1F7C6010E941214BE016F5F7F4FB4
:102B4000C3CE292DAE014F5D5F4FC6010E94250700
:102B500005C080E003C06EA250E0B7CFE4960FB688
:102B6000F894DEBF0FBECDBFDF91CF911F910F91C3
:102B7000FF90EF90DF90CF90BF90AF909F908F909D
:102B80007F906F905F904F903F902F9008950C969C
:102B90000C94D6133F924F925F926F927F928F92D6
:102BA0009F92AF92BF92CF92DF92EF92FF920F93DC
:102BB0001F93CF93DF93CDB7DEB728970FB6F89466
:102BC000DEBF0FBECDBF4C01DC0112968C91129777
:102BD000806812968C9312971C964D905D906D9024
:102BE0007C901F971696AD90BC9017974114510496
:102BF0006104710461F4D50118968D919D910D9039
:102C0000BC91A02D8D839E83AF83B88704C04D8275
:102C10005E826F827886CD80DE80EF80F884BFEFA1
:102C2000CB1ADB0AEB0AFB0AF501808D918DA28D90
:102C3000B38D8C159D05AE05BF0528F482E0C82E26
:102C4000D12CE12CF12C9E012F5F3F4FB701A60143
:102C5000C5010E94310687FD20C0882341F089818B
:102C60009A81AB81BC81892B8A2B8B2B51F08D8172
:102C70009E81AF81B885C816D906EA06FB0679F6AB
:102C80000CC00FEF1FEF2FEF3FE0B701A601C5010A
:102C90000E94BF05382E811102C0312C1BC0411487
:102CA00051046104710451F097018601B301A2013E
:102CB000C5010E94BF05811108C0EFCFD50118964C
:102CC000CD92DD92ED92FC921B97F401C486D586DD
:102CD000E686F786832D28960FB6F894DEBF0FBEE2
:102CE000CDBFDF91CF911F910F91FF90EF90DF90BB
:102CF000CF90BF90AF909F908F907F906F905F909C
:102D00004F903F9008952F923F924F925F926F9213
:102D10007F928F929F92AF92BF92CF92DF92EF926B
:102D2000FF920F931F93CF93DF93EC015B014A0156
:102D3000888183FF0EC08A8181FF0BC082FF0FC094
:102D4000488D598D6A8D7B8DCE010E947510811141
:102D500006C08981816089838FEF9FEF08C1A4013C
:102D600060E070E088899989AA89BB8980959095EF
:102D7000A095B09584179507A607B70750F364018F
:102D80001E018CE0280E311C088919892A893B898B
:102D9000C114D10409F4D0C08E819F81B901A8016A
:102DA00029E076956795579547952A95D1F7DC01E7
:102DB0001396FC90F4221170F11034C00115110526
:102DC00089F54C855D856E857F85411551056105C9
:102DD000710569F091010E94310687FDBACF81111A
:102DE00021C0CE010E94CA1581111CC0B2CF8C8DAA
:102DF0009D8DAE8DBF8D0097A105B10579F4CE01F3
:102E00000E94CA15882309F4A4CF8C859D85AE85C0
:102E1000BF858C8F9D8FAE8FBF8F04C08C879D87A1
:102E2000AE87BF87EE81FF814C855D856E857F858E
:102E30004250510961097109048004C0440F551FB3
:102E4000661F771F0A94D2F780899189A289B38976
:102E5000480F591F6A1F7B1F4F0D511D611D711DAA
:102E60000115110521F4C114B2E0DB06B0F580E0D4
:102E700092E0801B910B76018C159D0508F47C0176
:102E80000115110579F4488859886A887B88888DEE
:102E9000998DAA8DBB8D481659066A067B0610F0DF
:102EA00025E001C021E0CF0180960E947F050097B8
:102EB00009F44FCFA701B501800F911F0E94222E68
:102EC0000E0D1F1D0115124031F58E819F818096D8
:102ED0000E943C0581111FC03CCF83A194A1A5A1F4
:102EE000B6A184179507A607B70741F410A28FEF84
:102EF0009FEFDC0183A394A3A5A3B6A3EE81FF817A
:102F00009501808191810E947704882309F421CF63
:102F1000E12C82E0F82E88899989AA89BB898E0DD7
:102F20009F1DA11DB11D888B998BAA8BBB8BAE0CED
:102F3000BF1CCE18DF0828CF888D998DAA8DBB8D38
:102F400080179107A207B30738F4088F198F2A8FCB
:102F50003B8F8A8180688A838A8183FD02C0C40195
:102F600006C0CE010E94D6138111F9CFF2CEDF91B7
:102F7000CF911F910F91FF90EF90DF90CF90BF9076
:102F8000AF909F908F907F906F905F904F903F9009
:102F90002F9008950C960C948316CF93DF931F9275
:102FA000CDB7DEB7698341E050E0BE016F5F7F4F70
:102FB0000C960E9483160F90DF91CF910895CF93C6
:102FC000DF931F92CDB7DEB78FEF898361E070E0AA
:102FD000CE0101960E94BF1989810F90DF91CF9198
:102FE0000895CF93DF9300D000D000D0CDB7DEB7E7
:102FF0006AED74E0CE0101960E94470C1F9282E0B8
:103000008F931F9285E08F931F921F928A818F93D7
:1030100089818F9387E691E09F938F930E942B2E57
:10302000CE0101960E94420C67E671E08EE893E0C3
:103030000E948C0F0FB6F894DEBF0FBECDBF269650
:103040000FB6F894DEBF0FBECDBFDF91CF910895CC
:103050000F931F93FC016181862F90E0A0E0B0E008
:103060000027182F292F3A2F428150E060E070E0AE
:10307000BA0155274427D901C801840F951FA61FFF
:10308000B71F2081BC01CD01620F711D811D911DF3
:103090001F910F910895CF92DF92EF92FF920F93BD
:1030A0001F93CF93DF93082FF62E142FE90161E0D1
:1030B0008EE893E00E94110B602F8EE893E00E944F
:1030C000110B6F2D8EE893E00E94110B612F8EE89B
:1030D00093E00E94110B1C27F1266C2F8EE893E0E1
:1030E0000E94110B6D2F8EE893E00E94110BFD26BC
:1030F0001F2D102784E8E82E82E0F82ECC57DD4FF4
:10310000EC16FD0661F06701F70161917F018EE821
:1031100093E00E94110BF60180811827F1CF612FF7
:103120008EE893E0DF91CF911F910F91FF90EF9088
:10313000DF90CF900C94110B8F929F92AF92BF9221
:10314000CF92DF92EF92FF921F93CF93DF93D82F0E
:10315000C92F109228061092250610922A068BE29B
:1031600096E090932706809326060E949F036B01AA
:103170007C01A0902606B09027068AE0F5018283A4
:1031800061E00E94290361E0F50182810E94EF0F56
:103190001FB7F89480918202811127C0E2E7F5E021
:1031A0002491E3E5F5E08491E22FF0E0EE0FFF1FBC
:1031B000EC5CFA4FA591B491EC91E82321F461E025
:1031C00081E10E94EF0F61E081E10E9429038CB54B
:1031D00080618CBD8CB580648CBD61E08FE00E9405
:1031E000290361E080E10E942903809182028F5FC0
:1031F000809382021FBFE0912606F091270682E5A8
:103200008083118285E296E00E941604E0912606F2
:10321000F091270661E082810E94EF0F1AE08FEFA4
:103220000E94F5031150D9F7E0912606F091270688
:1032300060E082810E94EF0F20E030E0A90160E0B1
:1032400085E296E00E942F04813049F00E949F039E
:103250006C197D09613D774078F380E258C02AEA15
:1032600031E040E050E068E085E296E00E942F0403
:10327000853011F481E00AC014E00E94FA038093C3
:1032800029061150D1F78A3A59F482E080932A0630
:1032900080912A06823069F0812C912C54010EC055
:1032A0000E949F036C197D09613D7740C0F285E261
:1032B0002EC0812C912CA12C80E4B82E20E030E08F
:1032C000A90167E385E296E00E942F04A50194011D
:1032D00069E285E296E00E942F04882349F00E946B
:1032E0009F036C197D09613D774040F383E40FC073
:1032F00080912A06823009F520E030E0A9016AE3D6
:1033000085E296E00E942F04882349F087E38093AA
:10331000250685E296E00E94010480E019C00E9423
:10332000FA03807C803C19F483E080932A060E9493
:10333000FA030E94FA030E94FA0385E296E00E94D3
:103340000104E0912606F0912706D083C18381E035
:10335000DF91CF911F91FF90EF90DF90CF90BF90C2
:10336000AF909F908F90089583E08093E9008091C3
:10337000F200882319F08AE38093E80008958F9281
:103380009F92AF92BF92EF92FF920F931F93CF93B2
:10339000DF937B018C01C0E0D0E0CE15DF05C9F1E1
:1033A0000E949F0360939603709397038093980302
:1033B00090939903E0918E03F0918F030284F3853B
:1033C000E02D8EE893E0099597FF1EC00E949F03B1
:1033D0008090960390909703A0909803B0909903E3
:1033E000DC01CB0188199909AA09BB0980909203D5
:1033F00090909303A0909403B0909503881599053D
:10340000AA05BB05B8F205C0F80181938F0121968A
:10341000C4CFCE01DF91CF911F910F91FF90EF901C
:10342000BF90AF909F908F9008958F929F92AF9290
:10343000BF92CF92DF92EF92FF920F931F93CF93A1
:10344000DF9300D000D000D0CDB7DEB70E94DF17E9
:10345000B82E0E94DF17F82E0E94DF17E82E0E9478
:10346000DF17082F10E0102F00270E0D111D0B3055
:1034700081E0180708F094C10032110530F4B8015A
:1034800084E892E00E94BF191DC0479AC12CD12C3C
:1034900065E08EE893E00E94110B48018C189D08AE
:1034A00081E28816910418F0A0E28A2E912CB401D2
:1034B000C6018C579D4F0E94BF19C80CD91CC0165D
:1034C000D10630F3EF2CEB24E026E126E4E8F2E02D
:1034D0000C571D4FE017F10719F08191E826FACF3C
:1034E0000E94DF178E1541F020E030E043E06F2DA1
:1034F0008B2D0E944B1854C181E0B81621F082E058
:10350000B81671F14CC181E0F81621F082E0F8168E
:1035100079F01CC085E0809384021092850282E0DD
:103520008093860284E08093870224E030E014C018
:103530000E94971D81110EC06EE075E08EE893E049
:103540000E94DD0F20E030E041E007C020E030E0E5
:1035500042E003C020E030E040E06F2D81E01DC17B
:1035600080913A06811104C020E030E044E013C1AC
:1035700085E1F81609F4C7C08F15A0F182E0F816AE
:1035800009F488C08F1590F0FF2009F481C081E014
:10359000F81208C10E94351DE4E8F2E00190002015
:1035A000E9F731978F0104581240F3C082E1F81611
:1035B00009F48FC084E1F81609F49DC080E1F81287
:1035C000F1C084E892E00E942818209187020091BF
:1035D000880210E0102F0027020F111DA8010E9481
:1035E000481DD7C082E2F81609F4C7C08F1528F12C
:1035F00080E2F81609F495C08F1508F499C086E1A9
:10360000F812D0C084E892E00E9428184B015C01B7
:1036100087E892E00E9428189B01AC01C501B40123
:103620000E946F1E609384027093850280938602CD
:103630009093870204E010E0ACC080E3F81609F430
:10364000A1C081E3F81609F49FC083E2F812AAC072
:10365000809188024091890250E0542F4427480FFE
:10366000511D809186026091870270E0762F662757
:10367000680F711DE09184028091850290E0982F7F
:1036800088272AE832E08E0F911D0E94FF1C7FC020
:1036900080E07BC020913006909131068091320607
:1036A0002093840290938502809386029091340641
:1036B0008091350690938702809388029091360618
:1036C000809137069093890280938A0207E010E088
:1036D00060C084E892E00E942818209187024091FF
:1036E000880250E0542F4427420F511D29E832E050
:1036F0000E94CB1C4CC084E892E00E9428184B0129
:103700005C0184E107C084E892E00E9428184B0124
:103710005C0185E10E94501CC501B4010E94B51CEA
:1037200036C084E892E00E94731D0BEA10E031C0BD
:103730002AE832E0AE014F5F5F4FBE016D5F7F4F01
:10374000CE0105960E94AB1E8D819E8180938402DE
:10375000909385026B817C816093860270938702CF
:1037600049815A8140938802509389022AE832E0C5
:103770000E94AB1E06E110E00CC084E892E00E94BB
:10378000911C05C080E301C081E30E94501C00E051
:1037900010E040E098016F2D82E00E944B1819C0A4
:1037A00080E017C06CEF74E08EE893E00E94B90FE0
:1037B0004F2D50E060E070E020E18EE893E00E9441
:1037C0003F0F8EE893E00E94880F00E010E042E097
:1037D000E1CF26960FB6F894DEBF0FBECDBFDF91C6
:1037E000CF911F910F91FF90EF90DF90CF90BF90FE
:1037F000AF909F908F9008952FB7F89483E08093B7
:10380000E9009091E800892F807295FF04C09091A3
:10381000F20080E4891B2FBF089580917A02811104
:103820000DC082E08093760284E08093770210924C
:1038300079021092780281E080937A0286E792E022
:103840000895F894369BFECF5C9AE3E0F0E0319760
:10385000F1F798E027E030E043E050E05C98F901B0
:103860003197F1F75C9AFA013197F1F7880F3699A1
:103870008160915099F75C98E3E0F0E03197F1F7BF
:1038800078940895CF93DF930E94211CC82FD0E035
:103890000E94211C9E01382BC901DF91CF91089510
:1038A000CF93C82FF894369BFECF61E085E00E944D
:1038B000290398E043E050E027E030E0C7FF02C072
:1038C000469A01C04698CC0FFA013197F1F75C9AFD
:1038D000F9013197F1F75C98F9013197F1F79150BF
:1038E00069F7469A83E090E00197F1F7469860E027
:1038F00085E00E94290383E290E00197F1F7789434
:10390000CF910895CF93DF931F92CDB7DEB7998300
:103910000E94501C9981892F0F90DF91CF910C94B8
:10392000501CEF92FF920F931F93CF93DF931F9240
:10393000CDB7DEB7182F82E299830E94501CE12E8A
:103940009981F92E870105551F4FF70181917F015C
:103950000E94501CE016F106C1F70F90DF91CF9145
:103960001F910F91FF90EF9008951F93CF93DF93D6
:103970001F92CDB7DEB7182F862F79830E94501C77
:103980007981872F0E94501C812F0F90DF91CF915A
:103990001F910C94501CCF92DF92EF92FF920F93E5
:1039A0001F93CF93DF9300D0CDB7DEB76B017C01BF
:1039B0008A0182E129833A830E94501CC701B60123
:1039C0000E94B51CC8010E94821C2981E22E3A8106
:1039D000F32E0E0D1F1DE016F10631F0F701819157
:1039E0007F010E94501CF7CF0F900F90DF91CF9175
:1039F0001F910F91FF90EF90DF90CF900895CF929D
:103A0000DF92EF92FF920F931F93CF93DF9300D03B
:103A1000CDB7DEB77C018B016A0183E229833A834B
:103A20000E94501CC7010E94821CC8010E94821C77
:103A3000C6010E94821C2981E22E3A81F32E870161
:103A4000005F1F4FF70181917F010E94501CE0161B
:103A5000F106C1F70F900F90DF91CF911F910F9159
:103A6000FF90EF90DF90CF900895CF93DF9381E0A8
:103A70000E94501CC4E8D2E00E94211C8993882334
:103A800021F082E0C43AD807B9F7DF91CF910895C9
:103A9000CF92DF92EF92FF920F931F93CF93DF931A
:103AA0006B017C01EA0180E10E94501CC701B60154
:103AB0000E94B51CCE010E94821C04E812E0CC5783
:103AC000DD4F0C171D0731F00E94211CF801819376
:103AD0008F01F7CFDF91CF911F910F91FF90EF9062
:103AE000DF90CF900895EF92FF920F931F93CF93A3
:103AF000DF931F92CDB7DEB7182F80E299830E9423
:103B0000501CE12E9981F92E870105551F4F0E9407
:103B1000211CF70181937F01E017F107C1F70F9096
:103B2000DF91CF911F910F91FF90EF900895CF9269
:103B3000DF92EF92FF92CF93DF935C98599A61E006
:103B400070E080E090E00E9465030E949F036B019B
:103B50007C01369B0DC00E949F03DC01CB018C19B8
:103B60009D09AE09BF090B97A105B10590F36DC082
:103B7000599861E070E080E090E00E94650380E188
:103B800022EE3CEF4BEC57E037FF02C05C9A01C0DD
:103B90005C98220F331FFA013197F1F7599AFA0115
:103BA0003197F1F75998815079F761E070E080E042
:103BB00090E00E9465035C9A0E949F036B017C0168
:103BC00036990DC00E949F03DC01CB018C199D0921
:103BD000AE09BF09C397A105B10590F336C061E0F6
:103BE00070E080E090E00E946503D4E6C0E00E94AF
:103BF0009F036B017C01489B0EC00E949F03DC0168
:103C0000CB018C199D09AE09BF0985369105A10527
:103C1000B10588F3C0E00E949F036B017C014899C5
:103C20000EC00E949F03DC01CB018C199D09AE09D7
:103C3000BF0985369105A105B10588F3C0E0CF5FC6
:103C4000D150A9F65C98CB3020F410923A0680E06F
:103C50003FC082E00E94501C0E94211CC82ED12C23
:103C6000E12CF12C0E94211CC82F0E94211C90E005
:103C7000A0E0B0E0DC01992788279C2B8C299D29A6
:103C8000AE29BF298093300690933106A093320667
:103C9000B09333060E94421C9093350680933406FD
:103CA0000E94421C9093370680933606409134065A
:103CB00050913506849F9001859F300D949F300D63
:103CC0001124309339062093380681E080933A0618
:103CD000DF91CF91FF90EF90DF90CF900895CF923A
:103CE000DF92EF92FF92CF93DF9300D000D0CDB759
:103CF000DEB76B017C0186E129833A834B835C83C9
:103D00000E94501CC701B6010E94B51C29813A814E
:103D10004B815C81CA01B9010E94B51C0E94421C02
:103D20006C01E12CF12C0E94421CA0E0B0E0DC010F
:103D300099278827BC01CD016C297D298E299F29CF
:103D40000F900F900F900F90DF91CF91FF90EF9019
:103D5000DF90CF900895CF92DF92EF92FF920F9372
:103D60001F93CF93DF936C017B018A01E90181E20C
:103D70000E94501C0E94421CF601918380830E9485
:103D8000421CF701918380830E94421CF8019183B9
:103D900080838E017E01F0E1EF0EF11C0E94211C58
:103DA000F80181938F01EE15FF05C1F7188ADF91A5
:103DB000CF911F910F91FF90EF90DF90CF900895DA
:103DC000CF93C0913A06C11106C064E975E08EE850
:103DD00093E00E94DD0F8C2FCF910895CF93C09177
:103DE0008302C11106C060E875E08EE893E00E948E
:103DF000DD0F8C2FCF910895CF93DF930E949F0307
:103E0000EB010E94FA038F3F49F00E949F036C1B55
:103E10007D0B69357240A8F380E001C081E0DF913D
:103E2000CF9108958F929F92AF92BF92CF92DF92DF
:103E3000EF92FF92CF93C82F1092E30381E090E0BE
:103E4000A0E0B0E08093E6039093E703A093E8033B
:103E5000B093E9038EED93E0909300048093FF0309
:103E60001092FE038FEF9FEFDC018093010490938B
:103E70000204A0930304B0930404CC2331F1C530B1
:103E800008F0DCC020E040E050E0BA018EEF93E0A3
:103E90000E947F05009709F4D1C020E1C29F800DE8
:103EA000911D11244097FC01E254FE4F20812F7791
:103EB00009F0C4C0389680809180A280B3808114BC
:103EC0009104A104B10421F4B9C0812C912C5401B6
:103ED00020E0B501A4018EEF93E00E947F05FC0174
:103EE000892B09F4ABC0838594858115924009F034
:103EF000A5C08089823009F0A1C04685578541154B
:103F0000510509F49BC025852093E0038FEF820FB4
:103F10008093E10380E091E0291751F031E0380F00
:103F2000393019F48093E20389C0990F832FF4CFBD
:103F30008093E203C688D788C114D10419F0E12C1C
:103F4000F12C04C0C4A0D5A0E6A0F7A0C092EA035B
:103F5000D092EB03E092EC03F092ED03D501C401A3
:103F6000840F951FA11DB11D8093F2039093F3035D
:103F7000A093F403B093F503218932893093E503CC
:103F80002093E403CC0CDD1CEE1CFF1CC80ED91ED4
:103F9000EA1EFB1EC092FA03D092FB03E092FC03E0
:103FA000F092FD0355E0220F331F5A95E1F721509F
:103FB0003E4F232F33272695C20ED31EE11CF11C42
:103FC000C092EE03D092EF03E092F003F092F1037F
:103FD000238934892115310521F0C901A0E0B0E021
:103FE00004C080A191A1A2A1B3A1B501A4014C1963
:103FF0005D096E097F09480F591F6A1F7B1F0090DA
:10400000E20304C076956795579547950A94D2F7D1
:10401000DB01CA010196A11DB11D8093F6039093A7
:10402000F703A093F803B093F903453F8FE05807D7
:104030006105710528F48CE08093E30380E017C0EC
:10404000453F5F4F6105710510F480E10DC084A507
:1040500095A5A6A5B7A58093FA039093FB03A0931B
:10406000FC03B093FD0380E28093E30381E0CF91F2
:10407000FF90EF90DF90CF90BF90AF909F908F9088
:1040800008950F931F93FA018C0122273327012BE8
:10409000022B032B09F42EC033E3639F6627030E24
:1040A000611D202D739F7727600D711D839F8827C9
:1040B000700D811D939F9927800D911D1124260F4E
:1040C000671F781F891F911D270F681F791F811D8A
:1040D000911D290F611D711D811D911D969587955B
:1040E0007795679527953AE0239F212D1124205D30
:1040F0002293CACFCF0101976A307105E8F033E30C
:10410000639F6627030E611D202D739F7727600D27
:10411000711D1124260F671F711D270F611D711D51
:104120007695679527953AE0239F212D1124FC0170
:1041300080E3820F8083DECF605DFC0160831F918E
:104140000F910895CF93282F843660F46AE00E947F
:10415000C92B205DC22F9AE0899FC019112460E30A
:10416000680F02C06FE3CFE3E0918E03F0918F03FD
:104170000190F081E02D8EE893E00995E0918E03A7
:10418000F0918F030190F081E02D6C2F8EE893E089
:10419000CF9109942F923F924F925F926F927F92AC
:1041A0008F929F92AF92BF92CF92DF92EF92FF9247
:1041B0000F931F93CF93DF93CDB7DEB7C155D109CE
:1041C0000FB6F894DEBF0FBECDBF7C01862E19A2BC
:1041D0001AA240E050E0BA010E94751070E2972EDA
:1041E000CE0101966C01E0E17E2EFEE26F2E89A1E8
:1041F00081112CC2F7018081807709F427C2808960
:104200009189A289B3898F719927AA27BB27892B06
:104210008A2B8B2B09F01AC200E010E0D7015096D0
:104220002D903D904D905C90539760E0C7010E94A7
:104230005412009709F40AC2FC012081222309F4D8
:1042400005C22E3211F400E0E9CF253EE1F33385BB
:1042500033FD22C0B201A10125E0769567955795FF
:1042600047952A95D1F70023F9F02F964FAF2F9756
:1042700060965FAF609761966FAF619762967FAF10
:1042800062970E9412072F964FAD2F9760965FADF1
:1042900060971813DBC108C03F30A9F626FFBECFD8
:1042A000022F0F711585BACF21E0B701CE0181969B
:1042B0000E941513882309F4C9C189A181FDC1C1D8
:1042C00010E0181569F0E0918E03F0918F030190D2
:1042D000F081E02D60E28EE893E009951F5FF1CF59
:1042E000CE0181960E94D613882309F47CC060E039
:1042F000CE0181960E94B613009709F474C0DC01C8
:1043000056960D911C9157975896AD90BC90599721
:104310001B86B501672F772766956454784F80E038
:1043200090E0AE01455F5F4F0E944120BC018EE8E6
:1043300093E00E94FD06E0918E03F0918F030190BF
:10434000F081E02D6DE28EE893E00995C50155E01E
:10435000969587955A95E1F78F700E94A220E0917B
:104360008E03F0918F030190F081E02D6DE28EE8D5
:1043700093E009958A2D8F710E94A220E0918E030F
:10438000F0918F030190F081E02D60E28EE893E0E0
:104390000995812F8695869586950E94A220E091A9
:1043A0008E03F0918F030190F081E02D6AE38EE897
:1043B00093E00995C80165E0969587956A95E1F7C0
:1043C0008F730E94A220E0918E03F0918F030190E1
:1043D000F081E02D6AE38EE893E00995802F8F71DC
:1043E000880F0E94A220E0918E03F0918F0301902C
:1043F000F081E02D60E28EE893E009951B8669ADBF
:104400007AAD8BAD9CADAE01455F5F4F0E94412000
:10441000C816D90620F4FC019292CF01F9CFB6015B
:104420008EE893E00E94FD06E0918E03F0918F03E9
:104430000190F081E02D60E28EE893E00995198209
:104440001A828CA181114AC089A1882309F4D5C0A0
:10445000807641F08FE222968FAF229723961FAE8F
:104460002397C4C060E0CE0181960E94B6138C01F0
:10447000009709F4C2C0FC0168E090E020E0808170
:10448000803201F1283051F441E450E04C0F5D1FBF
:10449000490F511DDA016C929F5F60E130818FEB13
:1044A000830F8A3130F4D8011C968C91862309F051
:1044B000305E41E450E04C0F5D1F490F511DDA01A1
:1044C0003C939F5F2F5F31962B30C9F6E1E4F0E01B
:1044D000EC0FFD1FE90FF11D108288C089A59AA578
:1044E000ABA5BCA50097A105B10549F46FA178A5BE
:1044F000C6010E94FB12882309F47FC010C0F60198
:10450000292D11922A95E9F7798221E02B832FA199
:1045100038A538872F838D8F9E8FAF8FB8A3BB248C
:10452000B3948CA18B1508F468C00B2D10E04DA13D
:104530005EA1401B510B60E070E035E0440F551F59
:10454000661F771F3A95D1F7C6010E947510882320
:1045500009F453C060E0C6010E9454122C01009778
:1045600009F44BC0DC011B968C911B978F3009F02E
:1045700044C08C918F7190E008171907F1F5820102
:1045800020E0253020F4F801618172810BC02B30CE
:1045900030F4D80114966D917C91159703C0F80101
:1045A000668177816115710531F4D2018C9186FDA8
:1045B00024C0B394B6CF6F37710510F06FE370E08D
:1045C000E0918E03F0918F030190F081E02D8EE851
:1045D00093E02F962FAF2F9709952F962FAD2F97FA
:1045E0002F5F0E5F1F4F2D3061F6DFCFBE016F5B77
:1045F0007F4F8EE893E00E94FD0689A1807759F0F5
:10460000E0918E03F0918F030190F081E02D6FE235
:104610008EE893E00995E0918E03F0918F0301906D
:10462000F081E02D6DE08EE893E00995E0918E0336
:10463000F0918F030190F081E02D6AE08EE893E025
:104640000995CE0181960E941214D1CDCF5ADF4F29
:104650000FB6F894DEBF0FBECDBFDF91CF911F9193
:104660000F91FF90EF90DF90CF90BF90AF909F9011
:104670008F907F906F905F904F903F902F90089514
:10468000FC0180913C06811103C08FEF9FEF0895DC
:104690009FB7F89482E08093E9002091F20030E027
:1046A0001216130614F421E030E02115310559F0FB
:1046B000289884E680933B068091F1008083809166
:1046C000F200882319F09FBFC90108958BE68093FB
:1046D000E800F9CF1F93CF93DF93182FC0E08EE847
:1046E00093E00E94270B892BD1F38EE893E00E9480
:1046F000240C682F883089F01CF4813029F017C011
:104700008D3029F08B3199F46093840221C0EC2F15
:10471000F0E0EC57FD4F10821BC0CC2301F3C150D9
:104720006EEA75E08EE893E00E94B90FD8CF603250
:10473000B4F2C117A0F6D1E0DC0FEC2FF0E0EC579B
:10474000FD4F60838EE893E00E949E0FCD2FC7CF70
:1047500081E0DF91CF911F910895CF9363EA75E0D7
:104760008EE893E00E94B90F8EE10E946A23C82F61
:104770008EE893E00E94880F80918402882311F0D4
:104780008C2F01C080E0CF91089585E296E0909350
:10479000DF038093DE0385E096E00E94121481E03F
:1047A0000E94121F882349F06EED73E085E096E0C9
:1047B0000E94FB12882331F007C080E00E94121F84
:1047C0008111F2CF80E00895909105069077D1F3A2
:1047D00025E036E030933E0620933D060895CF93C2
:1047E000DF93CDB7DEB7C156D1090FB6F894DEBF5F
:1047F0000FBECDBF789484B5826084BD84B58160DE
:1048000084BD85B5826085BD85B5816085BD80919B
:104810006E00816080936E00109281008091810013
:10482000826080938100809181008160809381000B
:1048300080918000816080938000809191008260EF
:10484000809391008091910081608093910080918C
:1048500090008160809390008091C100846080937B
:10486000C1008091C10082608093C1008091C1002D
:1048700081608093C1008091C30081608093C300F8
:104880008091C00082608093C0008091C2008160EE
:104890008093C20080917A00846080937A00809136
:1048A0007A00826080937A0080917A0081608093A0
:1048B0007A0080917A00806880937A0010923C069A
:1048C00010926601109265018091D70081608093FB
:1048D000D70080EA8093D80089B5806189BD89B509
:1048E000826089BD09B400FEFDCF61E070E080E028
:1048F00090E00E9465038091D8008F7C8061809356
:10490000D8008091E000807F8093E0008091E100FA
:104910008E7E8093E1008DE08093E200559A209A8C
:10492000EEEFFFE7859194918B3F9C4D19F481E068
:104930008093640161E082E00E94290362E083E0E9
:104940000E94290361E084E00E94290360E085E081
:104950000E94290361E08DE00E94290361E089E063
:104960000E94290361E08AE00E94290361E08AE055
:104970000E94EF0F80918100887F81608093810089
:1049800061E089E00E942903E1EFF0E0E4918E2FDD
:1049900090E0FC013197EF30F10508F07DC0EA5A54
:1049A000FF4F0C940B2C84B5806884BD8FE787BDC6
:1049B00077C084B5806284BD8FE788BD71C0809167
:1049C00080008068809380008FE790E0909389005A
:1049D0008093880065C08091800080628093800011
:1049E0008FE790E090938B0080938A0059C080916C
:1049F00080008860809380008FE790E090938D0026
:104A000080938C004DC080919000806880939000CE
:104A10008FE790E0909399008093980041C0809137
:104A200090008062809390008FE790E090939B00CD
:104A300080939A0035C080919000886080939000A8
:104A40008FE790E090939D0080939C0029C0809117
:104A5000C00080688093C0008091C0008F7B8093ED
:104A6000C0008FE78093CF001BC08091C0008062A0
:104A70008093C0008FE78093D00012C08091C20065
:104A800088608093C2008091C2008B7F8093C200B7
:104A90008FE78093D20004C060E089E00E94EF0FAE
:104AA0008FEF9FEF90939B0380939A0310910701E0
:104AB0006AE070E080E090E00E9465031123B1F3AA
:104AC00088EE93E0A0E0B0E080939203909393038C
:104AD000A0939403B093950380E591E00E949C1805
:104AE00081110E94C52380938302811106C060E278
:104AF00071E08EE893E00E94DD0F0E94971D811106
:104B000006C067E071E08EE893E00E94DD0F0E942E
:104B1000DF17813009F400C18D3009F0FFC00E9419
:104B2000F1178EE893E00E94880FF7E62F2EF1E050
:104B30003F2E6DEF73E08EE893E00E94B90F6BE5B6
:104B400071E08EE893E00E94B70F81E00E946A2333
:104B5000182F8EE893E00E94880F809184028823AA
:104B600041F3112331F362E671E08EE893E00E9495
:104B70008C0F8091840290E00E940D2E8934910563
:104B8000D1F064F48B31910509F4C8C086349105E5
:104B900009F481C0019709F0B2C0BEC08635910505
:104BA00009F4A7C08735910509F47EC082359105C7
:104BB00009F0A5C095C00E94E01E882309F49FC09B
:104BC0000E94971D882309F452C00E94351D6EEE85
:104BD00073E08EE893E00E94DD0F68EE73E08EE8EC
:104BE00093E00E94B90F10E0E12FF0E0EC57FD4F89
:104BF0006081662331F08EE893E00E949E0F1F5F74
:104C0000F3CFB0903606A0903706D0903406C0900F
:104C100035061091300600913106F0903206E09092
:104C2000330660EC73E0CE0101960E94470CAF9210
:104C3000BF92CF92DF92EF92FF920F931F938A81E0
:104C40008F9389818F933F922F920E942B2ECE01BA
:104C500001960E94420C67E671E08EE893E00E94A4
:104C60008C0F0FB6F894DEBF0FBECDBF06C065EA4D
:104C700073E08EE893E00E94DD0F80E591E00E94F2
:104C80009C18811103C067E973E025C00E94C52309
:104C9000811135C0F8CF0E94EE1E882381F10E9459
:104CA000E01E811143C02BC00E94EE1E882339F103
:104CB0000E94E01E811128C022C048ED50E064E847
:104CC00072E0CE01C9960E943911883D910509F420
:104CD0009AC06DE673E08EE893E00E94DD0F0FC08E
:104CE0000E94EE1E882359F00E94E01E8111C8C068
:104CF00006C00E94F1170E94EE1E0E94E01E8EE880
:104D000093E00E94880F15CF0E94AD238823B9F34A
:104D1000809184028130D9F40E94151A80E090E0DD
:104D2000892B09F4F4CE0E940000F1CE19821A8278
:104D300021E04EE551E065E076E0CE0101960E946B
:104D40001B1460E0CE0101960E94CA20D8CF6BE40C
:104D500074E08EE893E00E94B90F64E872E08EE898
:104D600093E00E94B70F6DE374E08EE893E00E9439
:104D7000DD0F19AE1AAE18AA1FA688EE93E0A0E0C8
:104D8000B0E089AB9AABABABBCAB86E191E09EA740
:104D90008DA71D861E861C821B8228EE33E040E014
:104DA00050E02D833E834F8358879A83898321E087
:104DB00044E852E065E076E0CE010D960E941B14B7
:104DC00080E2FE013D96DE01D99601900D928A9512
:104DD000E1F78B819C8198AB8FA78D819E81AF81FC
:104DE000B88589AB9AABABABBCAB89859A85AB85F3
:104DF000BC858DAB9EABAFABB8AF89AD81115DCF3C
:104E000067E873E083C0C0903006D0903106E09030
:104E10003206F090330640E150E06AED72E084E83B
:104E200092E00E946C2B892B19F066EC72E053CF54
:104E300010919402113021F480919502882319F089
:104E400061EB72E048CF8091580390915903A09193
:104E50005A03B0915B036D968CAF9DAFAEAFBFAF01
:104E60006D97C816D906EA06FB0618F460E972E0E9
:104E700032CF8091AC0280FF59C064E772E062C01B
:104E80000E94AD23882309F43ACF809184028130B7
:104E900009F442CF65E274E08EE893E00E94B90F16
:104EA00064E872E08EE893E00E94B70F67E28EE854
:104EB00093E00E94A50F1DA61EA622E044E852E042
:104EC00065E076E0CE018D960E941B1481116EC2C2
:104ED0001D861E861C821B8228EE33E040E050E0D7
:104EE0002D833E834F83588786E191E09A8389839F
:104EF00023E644E852E065E076E0CE010D960E949C
:104F00001B148D8581115BC269E571E08EE893E029
:104F10000E94B90F64E872E08EE893E00E94B70F38
:104F200067E28EE893E00E94A50FE9CE4BEA50E0DD
:104F300069EC71E08DEA92E00E94792B1093AC024B
:104F400064EB71E08EE893E00E94DD0F8DEB91E061
:104F50000E94731D4BEA50E06DEB71E08DEA92E028
:104F60000E94152E892B21F08DEA92E00E94911C5F
:104F700086E0E6E9F2E0A7EBB1E001900D928A95B8
:104F8000E1F74091BB015091BC016091B901709172
:104F9000BA012CE932E08091B7019091B8010E94EA
:104FA000FF1CD090BB01C090BC01F090B901E09013
:104FB000BA011091B7010091B80169E671E0CE0124
:104FC00001960E94470CCF92DF92EF92FF920F93CF
:104FD0001F936D969FAD6D979F936C96AFAD6C9739
:104FE000AF936B96BFAD6B97BF936A96EFAD6A9721
:104FF000EF938A818F9389818F933F922F920E94A2
:105000002B2ECE0101960E94420C67E671E08EE8DD
:1050100093E00E94B70F0FB6F894DEBF0FBECDBF6E
:105020000CE912E0E0E1FE2EF00ED8016D918D0149
:105030008EE893E00E949E0FF012F7CF67E28EE8B1
:1050400093E00E94A50F0E949F03A2966CAF7DAFD4
:105050008EAF9FAFA2976E961FAE6E97C12CD12CCC
:10506000760188248A94982C54018091300690917E
:105070003106A0913206B0913306C816D906EA0669
:10508000FB0678F5209138063091390640E050E073
:10509000C701B6010E94E92B672B682B692B39F4F5
:1050A00085E10E94501CC701B6010E94B51C6D9697
:1050B0002CAD3DAD4EAD5FAD6D97C216D306E40687
:1050C000F50608F0A5C0409134065091350664E815
:1050D00072E0CE01C9960E9439118C01009709F047
:1050E00060C02401350164E573E0CE0101960E94A1
:1050F000470CFF92EF92DF92CF928A818F93898142
:105100008F933F922F920E942B2ECE0101960E94E8
:10511000420C67E671E08EE893E00E948C0FCE01AE
:10512000C9960E94121481E30E94501C6EE373E042
:105130008EE893E00E94B90F0E949F03A2962CADC7
:105140003DAD4EAD5FADA297621B730B840B950B0B
:1051500028EE33E040E050E00E94E92BBA01A901BB
:105160002AE08EE893E00E943F0F63E78EE893E029
:105170000E94A50F66E273E08EE893E00E94DD0FC7
:105180000E94B4197501640131E0C322DD24EE24CC
:10519000FF240FB6F894DEBF0FBECDBF8FE190E0C5
:1051A00089C024E832E0AC01C701B6010E94CB1CE3
:1051B000E4E8F2E00C571D4FE017F10749F1A19127
:1051C00089E090E021E030E0B0E00197A9F324010C
:1051D0003501442477FC4394552466247724642DB8
:1051E000A9014A235B23452B11F061E06425880C5B
:1051F000991CAA1CBB1C662341F057EB85265DE178
:10520000952651ECA52654E0B526220F331FDDCF9D
:10521000D701C6019F73AA27BB27892B8A2B8B2B0B
:1052200009F03FC060E673E0CE0101960E94470C92
:10523000FF92EF92DF92CF928A818F9389818F9331
:105240003F922F920E942B2ECE0101960E94420C7B
:1052500067E671E08EE893E00E94B70F0FB6F8940E
:10526000DEBF0FBECDBF6D962CAD3DAD4EAD5FAD7B
:105270006D97C216D306E406F50698F46E963FAD18
:105280006E97311108C081E30E94501C41E06E9678
:105290004FAF6E9706C080E30E94501C6E961FAE03
:1052A0006E978091340690913506C80ED91EE11C88
:1052B000F11CDBCE7694679457944794CC0CDD1C9C
:1052C000EE1CFF1CB301A20141705527662777270A
:1052D000C42AD52AE62AF72A019761F7C094D09408
:1052E000E094F0946D962CAD3DAD4EAD5FAD6D97F5
:1052F00060E070E0CB010E946F1E4B015C0166E133
:1053000073E0CE0101960E94470CBF92AF929F922C
:105310008F92FF92EF92DF92CF928A818F93898151
:105320008F933F922F920E942B2ECE0101960E94C6
:10533000420C67E671E08EE893E00E948C0F0FB696
:10534000F894DEBF0FBECDBFC814D904EA04FB0435
:1053500019F067E073E0BFCC6AEE72E08EE893E08C
:105360000E94B90F0E949F03A2962CAD3DAD4EAD99
:105370005FADA297621B730B840B950B28EE33E095
:1053800040E050E00E94E92BBA01A9012AE08EE832
:1053900093E00E943F0F63E78EE893E00E94A50F21
:1053A00067E08EE893E00E949E0FA9CC19821A82D2
:1053B0008DA583FF8DCD8FA581FF8ACDD1C088EDCE
:1053C000E4E8F2E0DF011D928A95E9F740E150E060
:1053D0006AED72E0CF010E94792BE1E0F0E0F093FA
:1053E0009502E093940220E030E040E250E0209308
:1053F00058033093590340935A0350935B038DEA4B
:1054000092E00E94731D81E08093AC022CE932E0AF
:105410004BEB51E069EB71E087EB91E00E94AB1E32
:1054200086E0E7EBF1E0A6E9B2E001900D928A9503
:10543000E1F70E949F034B015C01C12CD12C760146
:1054400040E051E0C701B6010E94481D40E051E034
:1054500064E872E0CE0101960E94CA17D701C60126
:105460009F73AA27BB27892B8A2B8B2B09F56DE409
:1054700071E0CE018D960E94470CFF92EF92DF9271
:10548000CF928EA58F938DA58F933F922F920E94DE
:105490002B2ECE018D960E94420C67E671E08EE8BD
:1054A00093E00E94B70F0FB6F894DEBF0FBECDBFDA
:1054B0008091340690913506C80ED91EE11CF11C6E
:1054C000C114D10450E2E506F10408F4B9CF61E457
:1054D00071E0CE018D960E94470CFF92EF92DF9211
:1054E000CF928EA58F938DA58F933F922F920E947E
:1054F0002B2ECE018D960E94420C67E671E08EE85D
:1055000093E00E948C0FCE010D960E94121461E36D
:1055100071E08EE893E00E94B90F0E949F03681922
:1055200079098A099B0928EE33E040E050E00E94A7
:10553000E92BBA01A9012AE08EE893E00E943F0F0F
:1055400063E78EE893E00E94A50F67E08EE893E0A2
:105550000E949E0F0FB6F894DEBF0FBECDBFCFCB1B
:105560002D964CAD5DAD6EAD7FAD2D9741155105BE
:105570006105710539F08BA99CA90E94B0068823AA
:1055800009F4A6CC61E0CE018D960E94B6138C0181
:10559000009709F49DCC0E941207D82E85EED80101
:1055A0008C931DA68BA99CA980960E943C058823FC
:1055B00009F48ECC88A9882309F48ACC8DA99EA9E8
:1055C000AFA9B8AD8E010F5F1F4F0097A105B105C0
:1055D00041F46BA97CA9C8010E94FB12811112C081
:1055E00077CC20E2F80111922A95E9F720E129838E
:1055F00021E02B832BA93CA938872F838D8F9E8F89
:10560000AF8FB8A3BB24B39495EEC92E88A98B1590
:1056100008F45ECCEB2CF12C49A95AA94E195F096C
:1056200060E070E085E0440F551F661F771F8A9584
:10563000D1F7C8010E947510882309F449CC60E0B5
:10564000C8010E945412FC01892B09F441CC8385C6
:105650008F3009F03DCC9081292F2F7130E0E21678
:10566000F30609F035CC8585D81232CCC082EBA97F
:10567000FCA980A1816080A396FF05C0CF01809620
:105680000E943C0525CCB394C1CFEEE8F3E0138231
:10569000128288EE93E0A0E0B0E084839583A68335
:1056A000B7838FE291E0918380838FEF9FEF95879F
:1056B000848710923A061092E30310920506109226
:1056C000060684E68093250610922A0680E58093DC
:1056D0002B0610922C060895FB01DC0104C08D916D
:1056E0000590801921F441505040C8F7881B990B50
:1056F0000895FB01DC0102C005900D92415050401D
:10570000D8F70895FB01DC0105900D920020E1F728
:105710000895FC0105900020E9F7809590958E0F83
:105720009F1F08952F923F924F925F926F927F92A8
:105730008F929F92AF92BF92CF92DF92EF92FF92A1
:105740000F931F93CF93DF93CDB7DEB7CA1BDB0B4D
:105750000FB6F894DEBF0FBECDBF09942A883988F2
:1057600048885F846E847D848C849B84AA84B984F9
:10577000C884DF80EE80FD800C811B81AA81B98105
:10578000CE0FD11D0FB6F894DEBF0FBECDBFED0119
:105790000895991B79E004C0991F961708F0961B8D
:1057A000881F7A95C9F780950895AA1BBB1B51E104
:1057B00007C0AA1FBB1FA617B70710F0A61BB70B81
:1057C000881F991F5A95A9F780959095BC01CD0126
:1057D0000895A1E21A2EAA1BBB1BFD010DC0AA1F32
:1057E000BB1FEE1FFF1FA217B307E407F50720F04A
:1057F000A21BB30BE40BF50B661F771F881F991FC5
:105800001A9469F760957095809590959B01AC010D
:10581000BD01CF010895EE0FFF1F0590F491E02D1B
:105820000994CF93DF938230910510F482E090E0E9
:10583000E0914106F091420620E030E0C0E0D0E087
:10584000309711F14081518148175907C0F048172E
:10585000590761F482819381209719F09B838A8391
:105860002BC0909342068093410626C02115310536
:1058700019F04217530718F49A01BE01DF01EF0136
:105880000280F381E02DDCCF2115310509F1281BC1
:10589000390B2430310590F412968D919C91139719
:1058A0006115710521F0FB019383828304C09093FD
:1058B000420680934106FD01329644C0FD01E20F8D
:1058C000F31F81939193225031092D933C933AC059
:1058D00020913F0630914006232B41F420910E0188
:1058E00030910F013093400620933F0620910C0128
:1058F00030910D012115310541F42DB73EB740918E
:10590000100150911101241B350BE0913F06F091DD
:105910004006E217F307A0F42E1B3F0B28173907A8
:1059200078F0AC014E5F5F4F2417350748F04E0FFB
:105930005F1F5093400640933F068193919302C0AE
:10594000E0E0F0E0CF01DF91CF9108950F931F9336
:10595000CF93DF93009709F48CC0FC013297138238
:10596000128200914106109142060115110581F441
:1059700020813181820F931F20913F063091400694
:105980002817390779F5F0934006E0933F0671C078
:10599000D80140E050E0AE17BF0750F412962D91A9
:1059A0003C911397AD012115310509F1D901F3CFD0
:1059B0009D01DA013383228360817181860F971FF5
:1059C0008217930769F4EC0128813981260F371F6C
:1059D0002E5F3F4F318320838A819B819383828313
:1059E000452B29F4F0934206E093410642C01396FA
:1059F000FC93EE931297ED01499159919E01240F6A
:105A0000351FE217F30771F480819181840F951F90
:105A1000029611969C938E938281938113969C9308
:105A20008E931297E0E0F0E0D80112968D919C9150
:105A30001397009719F0F8018C01F6CF8D919C9186
:105A400098012E5F3F4F820F931F20913F063091A8
:105A500040062817390769F4309729F41092420656
:105A60001092410602C013821282109340060093E6
:105A70003F06DF91CF911F910F910895A0E0B0E014
:105A8000E4E4FDE20C94962BEC01009721F4CB01A9
:105A90000E94112CB8C0FC01E60FF71F9C01225098
:105AA0003109E217F30708F4ACC0D9010D911C913C
:105AB000119706171707B0F00530110508F49FC0BD
:105AC000C80104978617970708F499C00250110976
:105AD000061B170B019311936D937C93CF010E94CA
