:1000000007C3000036C3000034C3000032C3000041
:1000100030C300002EC300002CC300002AC3000020
:1000200028C3000026C3000024C3000022C3000030
:1000300020C300001EC300001CC300001AC3000040
:1000400018C3000016C3000014C3000012C3000050
:1000500010C300000EC300000CC300000C94231357
:1000600008C300000C9403120C94DA1102C30000C0
:1000700000C30000FEC20000FCC20000FAC2000083
:10008000F8C20000F6C20000F4C20000F2C2000094
:10009000F0C20000EEC20000ECC20000EAC20000A4
:1000A000E8C20000E6C20000E4C20000E2C20000B4
:1000B000E0C20000DEC20000DCC20000DAC20000C4
:1000C000D8C20000D6C20000D4C20000D2C20000D4
:1000D000D0C20000CEC20000CCC20000CAC20000E4
:1000E000C8C200003A224022462252225E22ED225D
:1000F0006A2273227C2288229422A022B122BD226D
:10010000ED22C922D522E12268126B125A125E1228
:100110006212A2126F12731279127D12811287126B
:100120008B128F12A212951299129D124172647550
:10013000696E6F205461706563617274466C61739F
:10014000686572205625642E25642F256400000002
:100150000A0B02090C0D0E08070304010000000041
:10016000000000000000000000000000000000008F
:10017000000000000000000000001211100000004C
:10018000000000000000000000000000000000006F
:10019000000000002A6572726F72207374617274BD
:1001A000696E67207461706563617274002A5344DC
:1001B0002063617264206661696C65642100666910
:1001C0006E69736865642C2074696D653D00777293
:1001D000697465202530366C78007265616420256D
:1001E00030366C780D006572726F722077726974A8
:1001F000696E67202700544352542073697A653D25
:10020000256C78682C204C6F6164657220696E667D
:100210006F3D2578682C204C6F61646572206C6599
:100220006E6774683D2578682C204C6F6164657238
:100230002063616C6C616464723D2578682C2027B2
:10024000007573696E672064656661756C74206CF7
:100250006F61646572006E11D07818A010A20086DC
:10026000C6A9272EF303900209088501CAEAD0FC2B
:1002700029DF8501CAD0FD88D0E7A9308501A0FA21
:1002800020B20399B0FFC8D0F720B20391AEE6AE1A
:10029000D002E6AFA5AEC5ACD0EFA6AFE4ADD0E9D5
:1002A000A0378401382E11D0862E8630852D852FDB
:1002B000582053E46CAA00A9102401D0FCA238A94C
:1002C0002786018500EAA50129184A4A45014A29DD
:1002D0000FAAA50129184A4A45014A290F1DE3031F
:1002E000A22F8600E8860160001020304050607028
:1002F0008090A0B0C0D0E0F0CA0000000000000074
:10030000007573696E67206C6F6164657220667238
:100310006F6D20544352542066696C6500544352FB
:10032000542073697A65206578636565647320631A
:1003300061727472696467652073697A6500756EAD
:100340006B6E6F776E2054435254207665727369DA
:100350006F6E00696E76616C69642054435254205C
:100360006865616465720074617065636172744987
:100370006D6167650D0A1A63686B73756D20666938
:100380006E69736865642C20746F74616C20746985
:100390006D653D00636865636B73756D2065727292
:1003A0006F7200637263202530366C7820253036FA
:1003B0006C780063616C63756C6174696E6720634F
:1003C0006865636B73756D2E2E2E00777269746588
:1003D0002066696E69736865642C2074696D653D7B
:1003E000007772697465202530366C780077726901
:1003F0007465202530366C780D006572726F72203E
:1004000072656164696E6720544352542068656167
:10041000646572006572726F722072656164696EE4
:100420006720270053442063617264206572726FF5
:1004300072006572726F722073657474696E6720E2
:10044000636F6D6D616E64206D6F6465006E616DCC
:10045000653D256C78682C207061676573697A65E5
:100460003D2578682C2065726173657061676573DE
:100470003D257868006E616D653D0054617065636F
:1004800061727420696E666F3A002849296E69743A
:100490002C284629696C65732C2857297269746564
:1004A0002C2852296561642C285629657273696F5E
:1004B0006E000D0A72656164696E67205461706533
:1004C0006361727420746F2027002720746F20549A
:1004D00061706563617274000D0A77726974696E88
:1004E0006720270000002200250028002B002E0096
:1004F0003100340002010000050108010B01000079
:100500002100240027002A002D00300033000101C3
:100510000000040107010A01010210202008081050
:100520002040102040800201020108040201010263
:10053000040810204080804020100804020180043C
:100540000201804020100804020108040201010297
:100550000408102040800102040810204080050596
:100560000505070508080808020202020A0A080829
:100570000404040401010101010101010303030357
:1005800003030303040707070C0C0C0C0C0C0C0CE6
:100590000202020206060606060606060B0B0B0BF7
:1005A0000B0B0B0B66696C656E616D653A2000087C
:1005B0002008006E6F2073642D636172642064658F
:1005C000746563746564007461706563617274203E
:1005D0006572726F72002A6E6F7420696D706C653F
:1005E0006D656E74656420002A6572726F72207387
:1005F00074617274696E672074617065636172748E
:1006000020636F6D6D616E64206D6F646500EC2812
:1006100011241FBECFEFD1E2DEBFCDBF00E00CBF83
:1006200027E0A0E5B2E001C01D92A636B207E1F7CF
:1006300012E0A0E0B2E0E2E3FDE500E00BBF02C0A3
:1006400007900D92A035B107D9F713E0C8E0D3E0C9
:1006500000E006C021970109802FFE010E94932926
:10066000C730D10780E00807A9F70E9485210C94C4
:10067000972EC6CCFC01848583FF0DC084A195A173
:10068000A6A1B7A1448D558D668D778D841B950BE2
:10069000A60BB70B03C080E090E0DC01811520E8D9
:1006A0009207A105B10520F08FEF9FE7A0E0B0E031
:1006B0000895089580E090E008953F924F925F92F0
:1006C0006F927F928F929F92AF92BF92CF92DF9262
:1006D000EF92FF920F931F93CF93DF93CDB7DEB7C7
:1006E00028970FB6F894DEBF0FBECDBF4C01DC01DA
:1006F00012968C911297806812968C9312971C9682
:100700004D905D906D907C901F971696AD90BC902B
:100710001797411451046104710461F4D5011896CE
:100720008D919D910D90BC91A02D8D839E83AF8363
:10073000B88704C04D825E826F827886CD80DE806D
:10074000EF80F884BFEFCB1ADB0AEB0AFB0AF50156
:10075000808D918DA28DB38D8C159D05AE05BF0545
:1007600028F482E0C82ED12CE12CF12C9E012F5FC1
:100770003F4FB701A601C5010E946F1587FD20C03C
:10078000882341F089819A81AB81BC81892B8A2B96
:100790008B2B51F08D819E81AF81B885C816D9060B
:1007A000EA06FB0679F60CC00FEF1FEF2FEF3FE0D4
:1007B000B701A601C5010E94FF14382E811102C0A5
:1007C000312C1BC0411451046104710451F0970194
:1007D0008601B301A201C5010E94FF14811108C066
:1007E000EFCFD5011896CD92DD92ED92FC921B973A
:1007F000F401C486D586E686F786832D28960FB643
:10080000F894DEBF0FBECDBFDF91CF911F910F9146
:10081000FF90EF90DF90CF90BF90AF909F908F9020
:100820007F906F905F904F903F9008956115710594
:1008300079F0FB0101900020E9F73197AF01461BE9
:10084000570BDC01ED91FC910280F381E02D1994AE
:1008500080E090E00895FC01AC01455F5F4F80E0CF
:1008600090E8899F90011124982F9695922B2191C1
:10087000892F820FE417F50799F708954F925F9239
:100880006F927F928F929F92AF92BF92CF92DF92A0
:10089000EF92FF920F931F93CF93DF93EC014A01E6
:1008A0005B014C845D846E847F84A881AA2309F453
:1008B00091C0488959896A897B8984169506A6065C
:1008C000B70609F48DC081149104A104B10429F480
:1008D0001C861D861E861F8678C0A3FF0BC0088D50
:1008E000198D2A8D3B8D081519052A053B0508F43D
:1008F00071C014C0A5FF12C0EE81FF81868197816F
:1009000025E0880F991F2A95E1F7A0E0B0E088154F
:100910009905AA05BB0508F45DC057C0EE81FF81AB
:10092000848190E009968A019B01015011092109F7
:100930003109082E04C036952795179507950A9416
:10094000D2F775016401B1E0CB1AD108E108F108D2
:1009500004C0F694E794D794C7948A95D2F7C0164A
:10096000D106E206F30620F0452B462B472B81F4F7
:10097000A6FF05C0848D958DA68DB78D04C08C8D86
:100980009D8DAE8DBF8D8C879D87AE87BF8704C040
:10099000C01AD10AE20AF30A8E01045F1F4FC11484
:1009A000D104E104F10489F04C855D856E857F8575
:1009B00098018E819F810E946F1591E0C91AD1081C
:1009C000E108F10818165CF305C0888A998AAA8A9A
:1009D000BB8A06C04C865D866E867F8680E001C03D
:1009E00081E0DF91CF911F910F91FF90EF90DF9009
:1009F000CF90BF90AF909F908F907F906F905F90BF
:100A00004F9008953F924F925F926F927F928F9294
:100A10009F92AF92BF92CF92DF92EF92FF920F938D
:100A20001F93CF93DF93CDB7DEB728970FB6F89417
:100A3000DEBF0FBECDBF98878F835B018A01DC01CB
:100A40008C91882309F112969C9190FF1DC027C0BC
:100A500033803422C114D10409F098C0311096C0FB
:100A6000892B8A2B8B2B09F47AC0AF81B8851C9611
:100A70004D915D916D917C911F9729813A81C401BF
:100A80000E946F1587FF7AC0AF81B88511968C914F
:100A90001197826011968C938FEF9FEF6DC183FF4A
:100AA00017C0EF81F885808D918DA28DB38D40891F
:100AB000518962897389841B950BA60BB70BA8011A
:100AC00060E070E0481759076A077B07D0F018C04C
:100AD00085FF17C0AF81B8851696ED91FC911797E9
:100AE00086819781F5E0880F991FFA95E1F7509676
:100AF0002D913C915197821B930B8017910708F41D
:100B00008C017801312CEF81F8853C96FA83E983DA
:100B1000E114F10409F477C0EF81F88580899189A7
:100B2000A289B3896C01F1E0DF22EF81F885208191
:100B300086809780AC01BD01E9E076956795579571
:100B40004795EA95D1F7F40125FF82CF848D958DE5
:100B5000A68DB78D480F591F6A1F7B1F3BC026FD0E
:100B600002C0EF81F885848D958DA68DB78DEF81BC
:100B7000F88584879587A687B78708C0811106C046
:100B8000EF81F88580818077F1F57ECFAF81B885E0
:100B90001696ED91FC9117971C964D915D916D9174
:100BA0007C911F974250510961097109048004C06A
:100BB000440F551F661F771F0A94D2F780899189C9
:100BC000A289B389480F591F6A1F7B1F430D511D0E
:100BD000611D711DAF81B8851696ED91FC91179737
:100BE000C114D10409F0A0C0E114B2E0FB0608F47E
:100BF0009BC063A074A085A096A046155705680504
:100C0000790529F491C0C8018E199F09B5C0E11476
:100C1000B4E0FB0608F46AC02701452C552446942D
:100C2000AF81B8858C9185FD07C08281831990E0E2
:100C30008415950508F42C014615570568057905B6
:100C4000A0F4AF81B8851696ED91FC911797C080FE
:100C5000D180F60185818330A9F029E0440F551F2A
:100C6000661F771F2A95D1F70DC0D401C301840DEB
:100C7000951DA11DB11D481759076A077B0708F488
:100C80006CC0DFCF9A01AB0162E1C6010E94D513AF
:100C9000811104C03501812C912C0EC081E319C053
:100CA000B301C6010E94CC1D882309F4EDCEBFEF2D
:100CB0008B1A9B0AEEEF7E1A8414950489F720E0C4
:100CC00030E0A9016CE0C6010E94D513882339F0F9
:100CD00088E2D6018C93C6010E947913D5CE982C58
:100CE0008824990CC6010E9479130BC0950180815C
:100CF00091810E945314882309F4C6CE812C82E08E
:100D0000982EA80CB91CEF81F88580899189A28959
:100D1000B389880D991DA11DB11D808B918BA28B6C
:100D2000B38BE818F908F4CE20E0CF0180960E943A
:100D3000C114009709F4A8CE20E032E02C193D0937
:100D400047012E153F0508F44901BC016C0D7D1DBE
:100D5000A401C5010E94C52BD4CFCF0180964B833F
:100D60005C836D837E830E9480144B815C816D81E6
:100D70007E81811166CF88CE28960FB6F894DEBFAB
:100D80000FBECDBFDF91CF911F910F91FF90EF90DC
:100D9000DF90CF90BF90AF909F908F907F906F909B
:100DA0005F904F903F900895FF920F931F93CF93C2
:100DB000DF931F92CDB7DEB78C01FC01808991894A
:100DC000A289B3899C01AD0175E056954795379589
:100DD00027957A95D1F7F22FFF70FF2E11F0611150
:100DE00015C041E050E0BE016F5F7F4FC8010ADED1
:100DF000813019F080E090E01AC0F8018089918973
:100E0000A289B3894F96A11DB11D04C08096A11D72
:100E1000B11DF801808B918BA28BB38BF801868179
:100E200097818796F0E2FF9E800D911D11240F900F
:100E3000DF91CF911F910F91FF900895CF93DF9392
:100E40001F92CDB7DEB741E050E0BE016F5F7F4F2C
:100E50000C96D8DD019719F4898190E002C08FEFDC
:100E60009FEF0F90DF91CF9108958F929F92AF9255
:100E7000BF92CF92DF92EF92FF920F931F93CF9387
:100E8000DF931F92CDB7DEB78C01FC01848C958C6B
:100E9000A68CB78CC08CD18CE28CF38C41E050E0F6
:100EA000BE016F5F7F4F0C96ADDD019721F49981F4
:100EB000892F90E002C08FEF9FEF8F3FFFEF9F07DA
:100EC00049F0F801848E958EA68EB78EC08ED18E95
:100ED000E28EF38E0F90DF91CF911F910F91FF90D3
:100EE000EF90DF90CF90BF90AF909F908F9008953C
:100EF000FC018081811114C080E2DF01982F1D92D6
:100F00009A95E9F777836683DB0115969C9190317A
:100F100019F0903229F480E4808381E0828308957F
:100F200080E008958F929F92AF92BF92FF920F93AD
:100F30001F93CF93DF93EC01F22E80E2DE011D922E
:100F40008A95E9F7FB01868197819F838E835D8374
:100F50004C83848C958CA68CB78C88869986AA86BF
:100F6000BB86FA01EF70FF27DC01979635E0EE0FA4
:100F7000FF1F3A95E1F7AD014E0F5F1FDA011B9697
:100F80002C9123FF03C0188280E062C09C012E0FC9
:100F90003F1FD901D2962C9127712883DA011B9625
:100FA0003C91387111F4286028830B832F2D227314
:100FB00019F02881217139F72F2D2F702A83DC0138
:100FC00093964D915D916D917C9196974C8B5D8B35
:100FD0006E8B7F8BE80FF91F43AD54AD60E070E07E
:100FE000BA0155274427DF01AF5BBF4F0D911C911C
:100FF00020E030E0402B512B622B732BF4FE0AC013
:101000004115510561057105F1F00E94EC15811142
:101010001AC0B9CF4C8F5D8F6E8F7F8FED5BFF4F06
:1010200080819181A281B381888F998FAA8FBB8F94
:10103000F5FE0DC0488D598D6A8D7B8DCE011EDC6D
:10104000811105C0A0CF8A8180688A83F1CF81E0B9
:10105000DF91CF911F910F91FF90BF90AF909F9024
:101060008F9008952F923F924F925F926F927F924E
:101070008F929F92AF92BF92CF92DF92EF92FF92A8
:101080000F931F93CF93DF93CDB7DEB72D970FB696
:10109000F894DEBF0FBECDBF8C017B01FA01418108
:1010A00052815A834983DB018C91807709F4D6C23F
:1010B000D8018C918111D2C29081937009F4C2C27F
:1010C00089819A810C966DE070E00E945D298824E8
:1010D0008394860E2F831F01FD86EC861A8709876D
:1010E00040E050E0BA01C701C9DBE12CB12CF12C82
:1010F000912C10E000E018866101B6E0CB0ED11C07
:101100009DE0A92EAC85BD8550964D905D906D906B
:101110007C905397A301920185E0569547953795AA
:1011200027958A95D1F72B833C834D835E834B8033
:101130005C8061E0CD0138DE009741F4AC85BD856F
:1011400011968C91882309F494C088C2FC012081F7
:10115000253E11F021110AC0111102C0EB80BC80A4
:10116000181508F41F5F211105C083C0181508F475
:101170006CC202C0253EF1F12E32E1F1DC011B967A
:101180003C911B973F3009F056C0011108C026FF63
:10119000B9CF022F0F711D96FC90902E07C09A9424
:1011A000291128C0FC012585F21224C0492D50E0E8
:1011B00041505109A49E9001A59E300D11244981F2
:1011C0005A8124173507B0F4FC0160E0653018F44B
:1011D0008181928107C06B3018F48481958102C0AF
:1011E00086819781A981BA812A173B0729F4892B27
:1011F00009F488CF00E086CF8F3F910509F0D0F742
:101200004FEB480F4A3110F0782F02C070E2780F90
:10121000C9010196D10113964D915C911497DA01A1
:10122000A20FB31F2C913FEB320F3A3108F4205E2E
:101230007213E0CF0CC233FDDDCF002339F0B1E0F3
:101240009B120CC208DB8F1109C20FC04BE050E0AB
:10125000B6010E94B82B892B09F054CFF10180818F
:1012600080FF03C0E1E0E8874DCFFF81F7FFE2C1D7
:10127000F5C18F818274823409F0F0C1112351F0DD
:101280004E2C5B2C07C060E08C859D858DDD892B05
:1012900021F01F5F1815B8F306C0AC85BD85119607
:1012A0008C918111DBC1612CF2E07F2E71C0EC8545
:1012B000FD85808185FDD2C180899189A289B3890C
:1012C00081159E4FAF41B10508F0C8C18C859D8541
:1012D000F4D9882309F4C2C1AC85BD851696ED9179
:1012E000FC9117971C96CD90DD90ED90FC901F9788
:1012F000B2E0CB1AD108E108F108048004C0CC0C9C
:10130000DD1CEE1CFF1C0A94D2F780899189A2890A
:10131000B389C80ED91EEA1EFB1E25E0B701A6013F
:10132000CF0180960E94C1145C01009709F496C118
:10133000FC019301119221503040E1F701E0EC856E
:10134000FD850680F781E02DFC83EB838281081701
:1013500018F190E0A0E0B0E0E9E0880F991FAA1F23
:10136000BB1FEA95D1F7EC85FD85408951896289DB
:101370007389840F951FA61FB71F808B918BA28B3B
:10138000B38BAB81BC8112968C918230B8F4105F24
:10139000181508F48CCF12C09501B701A601400FB3
:1013A000511D611D711DAB81BC818D919C910E946D
:1013B0001414882309F452C10F5FC1CFB885BB2331
:1013C00009F473C0F101D58002E010E07EE7C72E7A
:1013D0007101F6E0EF0EF11C40C0B3E0BD1510F452
:1013E00053E0D52E94E09D0D822F8F70E92FF0E011
:1013F0008A3008F053C0805DE20DF31D868344E01F
:10140000369527954A95E1F79150D91668F3F10181
:10141000ED0DF11DC68240E050E0BA018C859D853E
:101420002DDA61E08C859D85BFDC0097C9F1DC0178
:101430002C912223D1F11B962C9123FDF2CF4BE06E
:1014400050E0BC01C7010E94B82B892B51F70F5FF8
:101450001F4F0436110509F401C1D10111964D91B8
:101460005C9112979801240F351F1396ED91FC9112
:1014700014974E0F5F1FE417F50709F4AECFC901AB
:1014800065E0880F991F6A95E1F7280F391F819150
:10149000082E000C990B28273927EDCF895CACCF9B
:1014A000EC85FD8581818111D9C0A20160E070E0E9
:1014B00025E0440F551F661F771F2A95D1F78C85AD
:1014C0009D85DCD9882309F4C9C00FEF080DA02E33
:1014D0001FE06101B6E0CB0ED11C9DE0B92EAA2021
:1014E00009F45FC060E08C859D855EDC7C01892B02
:1014F00009F4B4C0AC85BD851696ED91FC911797A3
:1015000080A1816080A32A2DA01201C02064F70170
:10151000208313871486C6012B879DD9D7011D967A
:101520008C931D975B961C921E925A97F1014381F2
:1015300054812B852F7130E021503109B29EC001BA
:10154000B39E900D1124F70160E029813A81821742
:10155000930740F4DA01A80FB91F2C91022E000C5A
:10156000330B0CC021E030E0A981BA818A179B07B8
:1015700011F420E030E0319521953109653018F4FF
:101580003283218307C06B3018F43583248302C073
:10159000378326836F5F019632966D30B1F6AA9439
:1015A0009ECFEC85FD85408951896289738985E0EC
:1015B00076956795579547958A95D1F72A0160E00A
:1015C000CF01F2DB009709F449C020E2DC011D9253
:1015D0002A95E9F7F10136962BE0DC0101900D9296
:1015E0002A95E1F7F10120812871DC011C962C93EA
:1015F0001C9721E238E251963C932E93509740E09D
:1016000058E01F965C934E931E9753963C932E93EF
:10161000529759963C932E93589757965C934E93B6
:101620005697AC85BD851696ED91FC91179780A1D4
:10163000816080A32F81A2016C857D8589859A8533
:1016400071DC0DC08824839445CD10E095CD6F5F8B
:1016500032966D3009F456CD9C01B8CD80E02D96C0
:101660000FB6F894DEBF0FBECDBFDF91CF911F91B3
:101670000F91FF90EF90DF90CF90BF90AF909F9031
:101680008F907F906F905F904F903F902F90089534
:10169000CF93DF93EC01262F4C895D896E897F897A
:1016A0008E819F8180960E94C114009761F02C81E9
:1016B0003D812F70332745E0220F331F4A95E1F714
:1016C000820F931F02C080E090E0DF91CF910895D8
:1016D000CF93DF93FC012081211102C081E030C053
:1016E000EC01828187FF24C061E0CF01D1DFFC01E2
:1016F000892B29F489818160898380E021C08081E0
:10170000853EC1F3888183FF08C0888D998DAA8D9D
:10171000BB8D848F958FA68FB78F8C8D9D8DAE8D51
:10172000BF8D938F828FB58BA48B8A818F778A83AD
:101730008E819F8180960E9480148823D9F2CECF1B
:10174000DF91CF9108952F923F924F925F926F92C7
:101750007F928F929F92AF92BF92CF92DF92EF9241
:10176000FF920F931F93CF93DF93CDB7DEB72A97E6
:101770000FB6F894DEBF0FBECDBF9E838D833B01B5
:101780005A834983DC018C9183FF10C012968C919F
:1017900081FF0CC082FF12C0ED81FE81408D518D12
:1017A000628D738DCF016AD8811108C0ED81FE81F1
:1017B0008181816081838FEF9FEFAFC189819A81A1
:1017C000AC0160E070E0ED81FE8180899189A289A1
:1017D000B38980959095A095B09584179507A60735
:1017E000B70720F3C980DA803C96FC83EB83222480
:1017F0002A94322C2101AD81BE8150964D915D918C
:101800006D917C915397C114D10409F45DC1AD81F0
:10181000BE8116968D919C9117978A019B0169E074
:1018200036952795179507956A95D1F7DC0113969C
:10183000EC91BE2EB0227A01B1E0FB22B1103EC085
:10184000E114F104D9F5ED81FE8144855585668565
:101850007785411551056105710579F02B813C8132
:101860000E946F1587FDA2CF811128C08D819E81B6
:101870000E945D03811122C099CFED81FE81848D8C
:10188000958DA68DB78D0097A105B10589F4CF017F
:101890000E945D03882309F489CFED81FE81848550
:1018A0009585A685B785848F958FA68FB78F06C03F
:1018B000ED81FE8184879587A687B787AD81BE813C
:1018C0001696ED91FC9117971C964D915D916D9137
:1018D0007C911F974250510961097109048004C02D
:1018E000440F551F661F771F0A94D2F7808991898C
:1018F000A289B389480F591F6A1F7B1F4B0D511DC9
:10190000611D711DE114F10429F4C114B2E0DB067C
:1019100008F03FC080E092E08E199F0986018C1587
:101920009D0508F48C01E114F104A9F4AD81BE8198
:1019300050968D909D90AD90BC90539758968D91F8
:101940009D910D90BC91A02D88169906AA06BB0604
:1019500010F025E001C021E0CF0180960E94C11463
:10196000009709F423CFA801B3018E0D9F1D0E949B
:10197000C52BE00EF11EE114B2E0FB0609F091C0A8
:10198000ED81FE81868197818096BAD7811189C0C9
:101990000DCF03A114A125A136A1C11484E0D8065E
:1019A00008F466C082818B1990E0AD2CA694B12C0E
:1019B0008A159B0508F45C014017510762077307FD
:1019C00060F0D901C8018A0D9B1DA11DB11D4817EA
:1019D00059076A077B0708F49AC0AD81BE81169645
:1019E000ED91FC911797E080F180F70185818330BC
:1019F00039F099E0440F551F661F771F9A95D1F76C
:101A00009A01AB0169E1C701D0D6811104C043013D
:101A100000E010E00EC083E3D7018C9314C0A40152
:101A20006CEFC70179D6882371F00F5F1F4FFEEF6F
:101A30009F1A0A151B0551F00E94101E8111EFCF4D
:101A40008AE5F7018083C70154D60FC00E94101E9B
:101A5000882341F0102F0027110F8DEF3ED6C701CC
:101A600048D61FC086E5D7018C93C70142D69ECECB
:101A7000041715072607370729F410A223A234A25A
:101A800045A256A2AD81BE811696ED91FC911797A5
:101A9000930180819181C8D6882309F487CE00E024
:101AA00012E0ED81FE8180899189A289B389800F3E
:101AB000911FA11DB11D808B918BA28BB38B600EEA
:101AC000711EC01AD10A97CE58968D919D910D9096
:101AD000BC91A02D84179507A607B70748F4ED81A0
:101AE000FE81408F518F628F738F828180688283E5
:101AF000AD81BE8112968C9183FD03C089819A814C
:101B00000CC08D819E81E4DD8111F8CF4FCE10A2F3
:101B100023A234A245A256A260CF2A960FB6F8940B
:101B2000DEBF0FBECDBFDF91CF911F910F91FF9010
:101B3000EF90DF90CF90BF90AF909F908F907F906D
:101B40006F905F904F903F902F9008950C96FBCD33
:101B5000CF93DF931F92CDB7DEB7698341E050E0AA
:101B6000BE016F5F7F4F0C96EEDD0F90DF91CF913E
:101B70000895CF93DF93EC01ABDD1882DF91CF9115
:101B800008952F923F924F925F926F927F928F9221
:101B90009F92AF92BF92CF92DF92EF92FF920F93FC
:101BA0001F93CF93DF93CDB7DEB7E4970FB6F894CA
:101BB000DEBF0FBECDBF6C017A01922E19821A8250
:101BC000DC018C91811166C1FB018081807709F471
:101BD00061C1FA0180818F32B9F47F0181918F3226
:101BE000E1F3DB0116966D917C911797811103C08B
:101BF000C6017ED954C1CE0101967AD9882309F451
:101C000049C1BE016F5F7F4F5E01B2E3AB0EB11CF5
:101C1000F7012FEFE21AF20A80818032C9F3FDA3A7
:101C2000ECA3DF019D012E1B3F0B8D918823D9F082
:101C30008F32C9F08C3509F42DC1982F977F9232DD
:101C400009F428C18A3309F425C1982F9F7B9C335E
:101C500009F420C192EC980F923008F41BC1805215
:101C60008F3500F317C1AF01420F531FCA017C012A
:101C7000DC012D91CD012AAB2032C9F32F32B9F30B
:101C80009A012E1B3F0B4E175F0741F0DA019E9120
:101C9000AD019E32A9F3903299F303C080E090E049
:101CA00006C0C9012F3F310511F00CF0F3C09BA312
:101CB0008AA3DE01979620E22D93AA15BB05D9F7DA
:101CC000DF019D012E1B3F0B4D914E32D1F340326F
:101CD000C1F33CAB2BAB51E0232B09F050E08C015E
:101CE0000150110938F09F01200F311FD9012C91AB
:101CF0002E32B1F76EA027E0722E312C512C812CA0
:101D000038E0432EABA9BCA9A817B9070CF080C0D6
:101D10002BA93CA92E0F3F1FD9014C91403209F449
:101D200060C04E3239F42BA93CA90217130709F001
:101D300058C004C04232A1F04C3791F026ED240F78
:101D4000263010F44D3261F426EC240F263040F09A
:101D500025EA240F233020F02FED240F2E3530F00C
:101D6000ABA9BCA9A017B10781F43FC02BA93CA91E
:101D700020173107D1F1731410F1242F3FE9340FEC
:101D80003A3140F44052842809C07314C0F050E046
:101D90004FE52FE521542A3108F4542822242394B6
:101DA000230C27E230E02C0F3D1F230D311DD901FC
:101DB0004C93B6E0B215B8F0622C322C22C03AE057
:101DC000731609F469C0ABA9BCA90A171B070CF468
:101DD00063C01CAB0BAB5AE0752EA8E03A2EB0E105
:101DE0004B2E50E00EC0322C0CC02AE0721609F4C3
:101DF00053C01CAB0BAB2AE0722E38E0332E40E10F
:101E0000442E2BA93CA92F5F3F4F3CAB2BAB7ACF85
:101E10006EA28FA1803209F43DC0552339F05820BD
:101E200011F4882D01C082E089A314C081E089A348
:101E30008EA190E0E7E2F0E0EC0FFD1FE80FF91F44
:101E40002EE72083E8E2F0E0EC0FFD1FE80FF91F1A
:101E500021E32083FAA9FF23B1F021E0AE014F5D19
:101E60005F4FC601FFD88823A9F0F601DE01119665
:101E700080E201900D928A95E1F7C6017ADEBE01FB
:101E80006F5F7F4FC5CE292DAE014F5D5F4FC601FD
:101E9000E9D805C080E003C06EA250E0BACFE49656
:101EA0000FB6F894DEBF0FBECDBFDF91CF911F916B
:101EB0000F91FF90EF90DF90CF90BF90AF909F90E9
:101EC0008F907F906F905F904F903F902F900895EC
:101ED0000C96FECBCF93DF931F92CDB7DEB78FEF7B
:101EE000898361E070E0CE0101960E944B1A8981DE
:101EF0000F90DF91CF910895CF93DF9300D000D062
:101F0000CDB7DEB76CE271E0CE01019660D11F92D1
:101F100082E08F931F9285E08F931F921F928A8198
:101F20008F9389818F9380E592E09F938F930E9496
:101F3000CE2BCE01019646D160E572E088E694E0B2
:101F4000DBD10FB6F894DEBF0FBECDBF26960FB61D
:101F5000F894DEBF0FBECDBFDF91CF910895CF9231
:101F6000DF92EF92FF920F931F93CF93DF936C0159
:101F70007A018B01C0E0D0E0CE15DF0589F0D801F1
:101F80006D918D01D601ED91FC910190F081E02DD4
:101F9000C6011995892B11F47E0102C02196ECCF60
:101FA000C701DF91CF911F910F91FF90EF90DF90CC
:101FB000CF900895FC01538D448D252F30E0842F60
:101FC00090E0821B930B541710F0CF960895019761
:101FD0000895FC01918D828D981761F0828DDF014B
:101FE000A80FB11D5D968C91928D9F5F9F73928F0C
:101FF00090E008958FEF9FEF0895FC01918D828D01
:10200000981731F0828DE80FF11D858D90E00895CD
:102010008FEF9FEF0895FC01918D228D892F90E025
:10202000805C9F4F821B91098F739927089588E6E2
:1020300094E0F1DF21E0892B09F420E0822F08955C
:10204000FC01848DDF01A80FB11DA35ABF4F2C9155
:10205000848D90E001968F739927848FA689B78924
:102060002C93A089B1898C9180648C93938D848DFD
:10207000981306C00288F389E02D80818F7D8083CC
:102080000895EF92FF920F931F93CF93DF93EC018C
:1020900081E0888F9B8D8C8D981305C0E889F98924
:1020A000808185FD23C0F62E0B8D10E00F5F1F4F42
:1020B0000F731127E02E8C8DE8120BC00FB607FCB2
:1020C000FACFE889F989808185FFF5CFCE01B8DFA5
:1020D000F2CF8B8DFE01E80FF11DE35AFF4FF08226
:1020E0000B8FEA89FB898081806207C0EE89FF89B6
:1020F0006083E889F98980818064808381E090E051
:10210000DF91CF911F910F91FF90EF900895CF93A2
:10211000DF93EC01888D8823C1F0EA89FB898081F7
:1021200085FD05C0A889B9898C9186FD0EC00FB6C2
:1021300007FCF5CF808185FFF2CFA889B9898C9102
:1021400085FFEDCFCE017CDFE8CFDF91CF91089501
:1021500080E090E0892B19F06ADF811125C080E0D2
:1021600090E0892B41F080E090E0892B21F00E94E3
:10217000000081111CC080E090E0892B41F080E0DC
:1021800090E0892B21F00E940000811113C080E0B3
:1021900090E0892BA1F080E090E0892B81F00E94F3
:1021A000000081110AC008950E940000D8CF0E944B
:1021B0000000E1CF0E940000EACF0C9400000895D7
:1021C0000E94AC2BFC01808191810C94302AEF920B
:1021D000FF920F931F93CF93DF93EC011982188224
:1021E0001B821A821D821C826115710589F18B0187
:1021F000CB010E9448297C01BC016F5F7F4F80E0CA
:1022000090E00E94C82A009759F099838883FB8246
:10221000EA822C813D81232B81F4FC0110820DC0C8
:1022200088819981009711F00E94302A19821882C2
:102230001D821C821B821A820BC0FD82EC82B801B7
:10224000DF91CF911F910F91FF90EF900C94412956
:10225000DF91CF911F910F91FF90EF9008954F92D2
:102260005F926F927F92EF92FF920F931F93CF93A3
:10227000DF93CDB7DEB7A1970FB6F894DEBF0FBEE0
:10228000CDBF7C01FA01CB0119A2223008F42AE06B
:102290008E010F5D1F4F422E512C612C712CBF01FE
:1022A000A30192010E947129F901CA01015011098B
:1022B0006A3014F4605D01C0695CD8016C93232B13
:1022C000242B252B61F7B801C7010E941604A196A3
:1022D0000FB6F894DEBF0FBECDBFDF91CF911F9137
:1022E0000F91FF90EF907F906F905F904F900895C7
:1022F0006DE472E00C9416040F931F93CF93DF9359
:10230000EC010E9416048C01CE01F2DF800F911FB8
:10231000DF91CF911F910F910895DC01ED91FC9118
:102320000190F081E02D19940F931F93CF93DF93C9
:10233000EC01F3DF8C01CE01DBDF800F911FDF9119
:10234000CF911F910F9108950C941604EF92FF9274
:102350000F931F93CF93DF938C017B01C0E0D0E0FC
:10236000F701EC0FFD1F6491662361F0D801ED9138
:10237000FC910190F081E02DC8011995892B11F095
:102380002196EECFCE01DF91CF911F910F91FF905B
:10239000EF9008950F931F93CF93DF93EC01D6DF57
:1023A0008C01CE01A5DF800F911FDF91CF911F918E
:1023B0000F9108951F920F920FB60F9211240BB632
:1023C0000F922F933F934F935F936F937F938F93CE
:1023D0009F93AF93BF93EF93FF9388E694E030DE33
:1023E000FF91EF91BF91AF919F918F917F916F91ED
:1023F0005F914F913F912F910F900BBE0F900FBEA9
:102400000F901F9018951F920F920FB60F921124E4
:102410000BB60F922F938F939F93EF93FF93E091BF
:102420007804F09179048081E0917E04F0917F043A
:1024300082FD12C09081809181048F5F8F73209103
:102440008204821751F0E0918104F0E0E859FB4FDB
:10245000958F8093810401C08081FF91EF919F91BE
:102460008F912F910F900BBE0F900FBE0F901F906A
:102470001895362F90E0FC01E25BFE4F4491FC0181
:10248000E85EFA4F2491FC01E25AFA4F94919923A5
:1024900009F46BC0442309F455C050E0FA013197A8
:1024A000E231F10508F04EC08827EC57FF4F8F4FFF
:1024B0000C949329809180008F7707C080918000D1
:1024C0008F7D03C080918000877F809380003AC019
:1024D00084B58F7702C084B58F7D84BD33C0809171
:1024E000B0008F7703C08091B0008F7D8093B000E3
:1024F00029C0809190008F7707C0809190008F7DD8
:1025000003C080919000877F809390001BC08091D2
:10251000A0008F7707C08091A0008F7D03C08091BD
:10252000A000877F8093A0000DC0809120018F774D
:1025300007C0809120018F7D03C080912001877F9B
:1025400080932001E92FF0E0EE0FFF1FEC51FB4FCD
:10255000A591B4918FB7F894EC91311103C02095F7
:102560002E2301C02E2B2C938FBF0895CF93DF9382
:1025700090E0FC01E85EFA4F2491FC01E25AFA4F28
:102580008491882361F190E0880F991FFC01E2504B
:10259000FB4FC591D491FC01EC51FB4FA591B49137
:1025A000611109C09FB7F8948881209582238883A0
:1025B000EC912E230BC0623061F49FB7F894388100
:1025C000822F809583238883EC912E2B2C939FBFA1
:1025D00006C08FB7F894E8812E2B28838FBFDF9138
:1025E000CF9108953FB7F894809156039091570387
:1025F000A0915803B091590326B5A89B05C02F3F61
:1026000019F00196A11DB11D3FBFBA2FA92F982F18
:102610008827820F911DA11DB11DBC01CD0142E093
:10262000660F771F881F991F4A95D1F708952FB716
:10263000F8946091520370915303809154039091E8
:1026400055032FBF08951F920F920FB60F921124BA
:102650002F933F938F939F93AF93BF938091520398
:1026600090915303A0915403B091550330915103BD
:1026700023E0230F2D3720F40196A11DB11D05C0C5
:1026800026E8230F0296A11DB11D209351038093CC
:10269000520390935303A0935403B0935503809136
:1026A000560390915703A0915803B0915903019696
:1026B000A11DB11D8093560390935703A093580317
:1026C000B0935903BF91AF919F918F913F912F91FB
:1026D0000F900FBE0F901F9018958EBD0DB407FE82
:1026E000FDCF08958FEF8EBD0DB407FEFDCF8EB5E3
:1026F0000895CF93DF93FC012381222351F0EC0155
:102700000180F281E02D61E08281B3DE8FEFE5DFB1
:102710001B82DF91CF9108950F931F93CF93DF9387
:102720008C01862FEA01D9DF88818EBD8981FE0167
:102730003296DE5F0DB407FEFDCF8EBDEC17FD07B0
:1027400011F08191F7CF0DB407FEFDCF8FEFC5DFFC
:102750008FEFC3DFC7DFF8018483982F9F71953017
:1027600031F087E58083C801C4DF80E001C081E0EB
:10277000DF91CF911F910F910895CF93DF93FC01CB
:10278000238121110FC0EC010180F281E02D9081A5
:1027900081819CBD8DBDE981FA8160E0828169DE25
:1027A00081E08B83DF91CF910895EF92FF921F9389
:1027B000CF93DF9300D01F92CDB7DEB77C01162FE9
:1027C00029833A834B835C83FC018381811102C09E
:1027D000C701D3DF0E94101E812F80647EDF8C81B1
:1027E0007CDF8B817ADF8A8178DF898176DF112334
:1027F00011F087E801C085E970DF1C3009F472DF51
:1028000010E070DFF701848387FF04C01F3F11F0E1
:102810001F5FF7CF0F900F900F900F90DF91CF9128
:102820001F91FF90EF9008950F931F93CF93DF9325
:10283000EC0189018D81833039F089E0440F551F07
:10284000661F771F8A95D1F79A01AB0168E1CE0127
:10285000ACDF882311F082E31CC0A8016EEFCE012B
:102860005BDF8823B9F00E94101E182F811102C06F
:102870008AE50FC020E030E0A9016DE0CE0195DFD0
:10288000811106C02FDF811103C0CE0132DF05C0E8
:1028900089E28883CE012DDF10E0812FDF91CF9177
:1028A0001F910F9108950F931F93CF93DF93EC0126
:1028B00089018D81833039F089E0440F551F661FEF
:1028C000771F8A95D1F79A01AB0161E1CE016DDFE7
:1028D000882319F080E388830AC0B801CE010E94E2
:1028E000CC1D182F882319F0CE0103DF03C0CE01C1
:1028F00000DF10E0812FDF91CF911F910F9108959C
:10290000EF92FF921F93CF93DF93FC01208120FF72
:1029100030C0EC017C01F7E0EF0EF11C4B815C81D3
:102920006D817E81E981FA819701808191817CDFCF
:10293000182F811102C010E01DC0888181FD04C0E4
:1029400088818E7F888316C0E981FA814485558508
:10295000668577858B819C81AD81BE81480F591F2B
:102960006A1F7B1F9701808191815EDF8111E8CF13
:10297000E2CF11E0812FDF91CF911F91FF90EF9077
:102980000895CF92DF92EF92FF921F93CF93DF9340
:10299000EC016A017B01122F8B819C81AD81BE818C
:1029A00084179507A607B707E1F0CE01A9DF8111CB
:1029B00003C080E090E01BC012FF06C01882CB82EB
:1029C000DC82ED82FE820DC0E981FA819E01295FE1
:1029D0003F4FB701A6018081918165DF8111EECF64
:1029E000E8CF13708881182B1883CE010796DF91EA
:1029F000CF911F91FF90EF90DF90CF9008958F922D
:102A00009F92AF92BF92CF92DF92EF92FF920F937D
:102A10001F936A017B01480159014230510561054C
:102A2000710510F480E050C0FC01408D518D628D25
:102A3000738D4C155D056E057F05A0F32581203251
:102A400039F5448955896689778997018601E7E0D8
:102A50003695279517950795EA95D1F7400F511FA1
:102A6000621F731F23E080968CDF0097D9F2E894F1
:102A7000C7F8DD24EE24FF24CC0CDD1CCC0CDD1CBF
:102A8000FC01EC0DFD1D80829182A282B3821BC0ED
:102A9000203141F6FC0144895589668977894D0DBD
:102AA000511D611D711D23E080966BDF009709F4B5
:102AB000B9CFDD24EE24FF24CC0CDD1CFC01EC0D91
:102AC000FD1D9182808281E01F910F91FF90EF9018
:102AD000DF90CF90BF90AF909F908F900895CF924E
:102AE000DF92EF92FF920F931F93CF93DF93EC014E
:102AF0006A017B018901423051056105710510F4BD
:102B00008FEF61C0888D998DAA8DBB8D8417950735
:102B1000A607B707A8F38D81803239F58C899D8986
:102B2000AE89BF89E7E07695679557954795EA9511
:102B3000D1F7480F591F6A1F7B1F22E0CE018096F4
:102B400020DF0097E9F2E894C7F8DD24EE24FF24A3
:102B5000CC0CDD1CCC0CDD1CFC01EC0DFD1D8081C2
:102B60009181A281B381BF701DC0803149F64C892B
:102B70005D896E897F894D0D511D611D711D22E09A
:102B8000CE018096FEDE009709F4BACFDD24EE2454
:102B9000FF24CC0CDD1CFC01EC0DFD1D808191811E
:102BA000A0E0B0E0488D598D6A8D7B8D481759079C
:102BB0006A077B0738F0F80180839183A283B3838F
:102BC00081E001C080E0DF91CF911F910F91FF90D4
:102BD000EF90DF90CF9008959F92AF92BF92CF92E7
:102BE000DF92EF92FF920F931F93CF93DF9300D06A
:102BF0001F92CDB7DEB75C016A017B019E012F5F9A
:102C00003F4FB701A601C5016ADF982E87FF02C0BA
:102C100080E01DC000E010E09801B701A601C501E9
:102C2000EEDE8823A9F3F501408551856285738521
:102C3000C416D506E606F70620F4C086D186E286DD
:102C4000F386C980DA80EB80FC809110D7CF0F909B
:102C50000F900F900F90DF91CF911F910F91FF90E8
:102C6000EF90DF90CF90BF90AF909F900895CF935B
:102C7000282F843660F46AE00E945129205DC22F1B
:102C80009AE0899FC019112460E3680F02C06FE3C6
:102C9000CFE3E0916804F09169040190F081E02DA8
:102CA00088E694E01995E0916804F0916904019038
:102CB000F081E02D6C2F88E694E0CF9119942F924B
:102CC0003F924F925F926F927F928F929F92AF92BC
:102CD000BF92CF92DF92EF92FF920F931F93CF9309
:102CE000DF93CDB7DEB7C155D1090FB6F894DEBF7B
:102CF0000FBECDBF7C01862E19A21AA240E050E083
:102D0000BA010E943E0470E2972ECE0101966C013A
:102D1000E0E17E2EFEE26F2E89A1811126C2F7012D
:102D20008081807709F421C280899189A289B38941
:102D30008F719927AA27BB27892B8A2B8B2B09F008
:102D400014C200E010E0D70150962D903D904D90B8
:102D50005C90539760E0C7010E94D406009709F485
:102D600004C2FC012081222309F4FFC12E3211F498
:102D700000E0E9CF253EE1F3338533FD22C0B20107
:102D8000A10125E076956795579547952A95D1F746
:102D90000023F9F02F964FAF2F9760965FAF6097A3
:102DA00061966FAF619762967FAF62970E942B0426
:102DB0002F964FAD2F9760965FAD60971813D5C1D2
:102DC00008C03F30A9F626FFBECF022F0F71158530
:102DD000BACF21E0B701CE0181960E9492078823E5
:102DE00009F4C3C189A181FDBBC110E0181569F0C8
:102DF000E0916804F09169040190F081E02D60E2B7
:102E000088E694E019951F5FF1CFCE0181960E946C
:102E1000680B882309F477C060E0CE0181960E9498
:102E2000480B009709F46FC0DC0156960D911C9178
:102E300057975896AD90BC9059971B86B501672F50
:102E4000772766956454784F80E090E0AE01455F47
:102E50005F4F0E94551FBC0188E694E00E94160453
:102E6000E0916804F09169040190F081E02D6DE239
:102E700088E694E01995C50155E0969587955A9591
:102E8000E1F78F70F4DEE0916804F091690401903D
:102E9000F081E02D6DE288E694E019958A2D8F711E
:102EA000E6DEE0916804F09169040190F081E02D84
:102EB00060E288E694E01995812F8695869586953F
:102EC000D6DEE0916804F09169040190F081E02D74
:102ED0006AE388E694E01995C80165E096958795C0
:102EE0006A95E1F78F73C3DEE0916804F09169049D
:102EF0000190F081E02D6AE388E694E01995802F37
:102F00008F71880FB4DEE0916804F091690401903C
:102F1000F081E02D60E288E694E019951B8669ADAA
:102F20007AAD8BAD9CADAE01455F5F4FBED7C81685
:102F3000D90620F4FC019292CF01F9CFB60188E6C0
:102F400094E00E941604E0916804F09169040190F5
:102F5000F081E02D60E288E694E0199519821A82EA
:102F60008CA181114AC089A1882309F4D5C080763B
:102F700041F08FE222968FAF229723961FAE2397C0
:102F8000C4C060E0CE0181960E94480B8C0100977E
:102F900009F4C2C0FC0168E090E020E0808180324A
:102FA00001F1283051F441E450E04C0F5D1F490F0E
:102FB000511DDA016C929F5F60E130818FEB830FCE
:102FC0008A3130F4D8011C968C91862309F0305E4A
:102FD00041E450E04C0F5D1F490F511DDA013C9355
:102FE0009F5F2F5F31962B30C9F6E1E4F0E0EC0FE4
:102FF000FD1FE90FF11D108288C089A59AA5ABA518
:10300000BCA50097A105B10549F46FA178A5C6013B
:103010000E947807882309F47FC010C0F601292D8B
:1030200011922A95E9F7798221E02B832FA138A507
:1030300038872F838D8F9E8FAF8FB8A3BB24B39417
:103040008CA18B1508F468C00B2D10E04DA15EA17A
:10305000401B510B60E070E035E0440F551F661FC8
:10306000771F3A95D1F7C6010E943E04882309F4E0
:1030700053C060E0C6010E94D4062C01009709F4F9
:103080004BC0DC011B968C911B978F3009F044C01C
:103090008C918F7190E008171907F1F5820120E0FB
:1030A000253020F4F801618172810BC02B3030F49F
:1030B000D80114966D917C91159703C0F801668133
:1030C00077816115710531F4D2018C9186FD24C0A0
:1030D000B394B6CF6F37710510F06FE370E0E091F5
:1030E0006804F09169040190F081E02D88E694E095
:1030F0002F962FAF2F9719952F962FAD2F972F5FC4
:103100000E5F1F4F2D3061F6DFCFBE016F5B7F4F2B
:1031100088E694E00E94160489A1807759F0E09136
:103120006804F09169040190F081E02D6FE288E677
:1031300094E01995E0916804F09169040190F081A0
:10314000E02D6DE088E694E01995E0916804F09137
:1031500069040190F081E02D6AE088E694E0199519
:10316000CE0181960E94B90DD7CDCF5ADF4F0FB651
:10317000F894DEBF0FBECDBFDF91CF911F910F91AD
:10318000FF90EF90DF90CF90BF90AF909F908F9087
:103190007F906F905F904F903F902F9008951F9376
:1031A000CF93DF93182FC0E088E694E00E940B10C5
:1031B000892BD1F388E694E00E94E90F682F8830CC
:1031C00089F01CF4813029F016C08D3029F08B3144
:1031D00091F460935E031FC0EC2FF0E0E25AFC4FC5
:1031E000108219C0CC2301F3C1506FEA75E088E664
:1031F00094E0ACD8D9CF6032BCF2C117A8F6D1E0C8
:10320000DC0FEC2FF0E0E25AFC4F608388E694E09C
:1032100084D8CD2FC9CF81E0DF91CF911F91089540
:10322000CF9364EA75E088E694E090D88EE1B7DF4A
:10323000C82F88E694E05CD880915E03882311F063
:103240008C2F01C080E0CF9108958CE497E090939B
:103250000605809305058CE297E00E94B90D81E098
:10326000F5D4882349F065E075E08CE297E00E9490
:103270007807882329F006C080E0E8D48111F3CFD5
:1032800080E0089590912C079077D1F32CE237E0FD
:1032900030935C0320935B0308958F929F92AF92CB
:1032A000BF92CF92DF92EF92FF921F93CF93DF9363
:1032B000D82FC92F10924F0710924C071092510728
:1032C00082E597E090934E0780934D07B0D96B014C
:1032D0007C01A0904D07B0904E078AE0F5018283F3
:1032E00061E044D961E0F5018281C3D81FB7F89449
:1032F00080915A03811123C0E3E9F5E02491EDE4C4
:10330000F5E08491E22FF0E0EE0FFF1FE250FB4F5B
:10331000A591B491EC91E82319F461E085E3A9D873
:1033200061E085E323D98CB580618CBD8CB5806468
:103330008CBD61E084E31AD961E083E317D9809101
:103340005A038F5F80935A031FBFE0914D07F0919E
:103350004E0782E5808311828CE497E00EDAE091DB
:103360004D07F0914E0761E0828183D81AE08FEF1C
:10337000B4D91150E1F7E0914D07F0914E0760E0AC
:10338000828177D820E030E0A90160E08CE497E00A
:103390000CDA813041F04BD96C197D09613D7740E1
:1033A00088F380E251C02AEA31E040E050E068E072
:1033B0008CE497E0FAD9853011F481E009C014E07B
:1033C00091D9809350071150D9F78A3A59F482E085
:1033D0008093510780915107823061F0812C912CAC
:1033E00054010DC024D96C197D09613D7740D8F294
:1033F00085E22AC0812C912CA12C80E4B82E20E0FB
:1034000030E0A90167E38CE497E0CFD9A5019401EE
:1034100069E28CE497E0C9D9882341F008D96C1996
:103420007D09613D774058F383E40EC080915107D8
:103430008230D9F420E030E0A9016AE38CE497E01F
:10344000B4D9882341F087E380934C078CE497E05C
:1034500050D980E014C046D9807C803C19F483E0C8
:10346000809351073FD93ED93DD98CE497E041D9AB
:10347000E0914D07F0914E07D083C18381E0DF9149
:10348000CF911F91FF90EF90DF90CF90BF90AF90C2
:103490009F908F9008958F929F92AF92BF92EF92DC
:1034A000FF920F931F93CF93DF937B018C01C0E0BA
:1034B000D0E0CE15DF05B9F1BAD8609370047093EF
:1034C00071048093720490937304E0916804F09106
:1034D00069040284F385E02D88E694E0199597FF4E
:1034E0001DC0A5D88090700490907104A0907204C3
:1034F000B0907304DC01CB0188199909AA09BB09B2
:1035000080906C0490906D04A0906E04B0906F0455
:1035100088159905AA05BB05C0F205C0F80181937D
:103520008F012196C6CFCE01DF91CF911F910F91D0
:10353000FF90EF90BF90AF909F908F9008950F9362
:103540001F93FC016181862F90E0A0E0B0E000278E
:10355000182F292F3A2F428150E060E070E0BA0125
:1035600055274427D901C801840F951FA61FB71FEF
:103570002081BC01CD01620F711D811D911D1F9124
:103580000F910895CF92DF92EF92FF920F931F93C6
:10359000CF93DF93082FF62E142FE90161E088E620
:1035A00094E00E944110602F88E694E00E94411050
:1035B0006F2D88E694E00E944110612F88E694E028
:1035C0000E9441101C27F1266C2F88E694E00E948F
:1035D00041106D2F88E694E00E944110FD261F2DBA
:1035E00010278EE5E82E83E0F82EC25ADC4FEC1649
:1035F000FD0661F06701F70161917F0188E694E0C3
:103600000E944110F60180811827F1CF612F88E6D2
:1036100094E0DF91CF911F910F91FF90EF90DF9099
:10362000CF900C944110F894639BFECFA59AE3E0F1
:10363000F0E03197F1F798E027E030E043E050E028
:10364000A598F9013197F1F7A59AFA013197F1F7A9
:10365000880F63998160915099F7A598E3E0F0E0B5
:103660003197F1F778940895CF93DF93DCDFC82F7B
:10367000D0E0D9DF9E01382BC901DF91CF910895A9
:10368000CF92DF92EF92FF920E94F2126B017C01C7
:103690000E94F212DC01CB018C199D09AE09BF0911
:1036A000883E9340A105B10598F3FF90EF90DF901D
:1036B000CF900895CF93C82FF894639BFECF61E01D
:1036C00085E00E94B61298E043E050E027E030E049
:1036D000C7FF02C0739A01C07398CC0FFA013197EB
:1036E000F1F7A59AF9013197F1F7A598F90131970A
:1036F000F1F7915069F7739A83E090E00197F1F741
:10370000739860E085E00E94B61283E290E0019732
:10371000F1F77894CF910895CF93DF931F92CDB7AF
:10372000DEB79983C7DF9981892F0F90DF91CF9101
:10373000C1CFEF92FF920F931F93CF93DF931F920E
:10374000CDB7DEB7182F82E29983B4DFE12E9981DD
:10375000F92E870105551F4FF70181917F01AADFDF
:10376000E016F106C9F70F90DF91CF911F910F91ED
:10377000FF90EF9008951F93CF93DF931F92CDB7E3
:10378000DEB7182F862F798395DF7981872F92DF17
:10379000812F0F90DF91CF911F918CCFCF92DF922D
:1037A000EF92FF920F931F93CF93DF931F921F927D
:1037B000CDB7DEB76B017C018A0182E129833A83B0
:1037C00079DFC701B601D7DFC801A6DF2981E22E64
:1037D0003A81F32E0E0D1F1DE016F10629F0F701B8
:1037E00081917F0167DFF8CF0F900F90DF91CF912C
:1037F0001F910F91FF90EF90DF90CF900895CF929F
:10380000DF92EF92FF920F931F93CF93DF931F925C
:103810001F92CDB7DEB77C018B016A0183E2298359
:103820003A8348DFC70178DFC80176DFC60174DF5D
:103830002981E22E3A81F32E8701005F1F4FF701A5
:1038400081917F0137DFE016F106C9F70F900F90E5
:10385000DF91CF911F910F91FF90EF90DF90CF906C
:103860000895CF93DF9381E025DFCEE5D3E0DBDE63
:103870008993882321F083E0CE37D807C1F7DF9101
:10388000CF910895CF92DF92EF92FF920F931F9303
:10389000CF93DF936B017C01EA0180E10BDFC7016D
:1038A000B60169DFCE0138DF0EE513E0C25ADC4F06
:1038B0000C171D0729F0B7DEF80181938F01F8CFAF
:1038C000DF91CF911F910F91FF90EF90DF90CF90FC
:1038D0000895EF92FF920F931F93CF93DF931F9260
:1038E000CDB7DEB7182F80E29983E4DEE12E99810F
:1038F000F92E870105551F4F96DEF70181937F0151
:10390000E017F107C9F70F90DF91CF911F910F9149
:10391000FF90EF900895CF92DF92EF92FF92CF93B6
:10392000DF93A598749AACDE0E9417136B017C019B
:10393000639B0DC00E941713DC01CB018C199D09FC
:10394000AE09BF090B97A105B10590F35EC074984D
:1039500097DE80E122EE3CEF4BEC57E037FF02C0F0
:10396000A59A01C0A598220F331FFA013197F1F7EC
:10397000749AFA013197F1F77498815079F780DEE3
:10398000A59A0E9417136B017C0163990DC00E94D8
:103990001713DC01CB018C199D09AE09BF09C39730
:1039A000A105B10590F331C06BDED4E6C0E00E9402
:1039B00017136B017C01659B0EC00E941713DC017D
:1039C000CB018C199D09AE09BF0985369105A1056A
:1039D000B10588F3C0E00E9417136B017C01659963
:1039E0000EC00E941713DC01CB018C199D09AE0992
:1039F000BF0985369105A105B10588F3C0E0CF5F09
:103A0000D150A9F6A598CB3020F41092610780E040
:103A100039C082E04FDE07DEC82ED12CE12CF12C1C
:103A200002DEC82F00DE90E0A0E0B0E0DC019927C4
:103A300088279C2B8C299D29AE29BF298093570765
:103A400090935807A0935907B0935A070DDE9093AF
:103A50005C0780935B0708DE90935E0780935D07A9
:103A600040915B0750915C07849F9001859F300DCA
:103A7000949F300D11243093600720935F0781E0FD
:103A800080936107DF91CF91FF90EF90DF90CF900F
:103A90000895CF92DF92EF92FF92CF93DF9300D001
:103AA0001F92CDB7DEB76B017C0186E129833A8393
:103AB0004B835C83FFDDC701B6015DDE29813A815E
:103AC0004B815C81CA01B90156DECEDD6C01E12C6F
:103AD000F12CCADDA0E0B0E0DC0199278827BC0109
:103AE000CD016C297D298E299F290F900F900F9071
:103AF0000F90DF91CF91FF90EF90DF90CF900895DE
:103B0000CF92DF92EF92FF920F931F93CF93DF93A9
:103B10006C017B018A01E90181E2CCDDA5DDF601C2
:103B200091838083A1DDF701918380839DDDF8017E
:103B3000918380838E017E01F0E1EF0EF11C73DD35
:103B4000F80181938F01EE15FF05C9F7188ADF91FF
:103B5000CF911F910F91FF90EF90DF90CF9008953C
:103B6000CF93C0916107C11106C067EC75E088E68C
:103B700094E00E94CA118C2FCF910895CF93C091E9
:103B80005D03C11106C063EB75E088E694E00E9416
:103B9000CA118C2FCF910895EF92FF920F931F932C
:103BA000CF93DF93EC017B010E9417138B010E94DE
:103BB00072138C838F3F49F40E941713601B710BA3
:103BC0006D327140A0F385E503C08E3F39F080E58A
:103BD0008883CE010E94791380E01BC08FEF8EBDD9
:103BE000F701D701A150BE4F9FEF0DB407FEFDCFE7
:103BF0008EB59EBD8193EA17FB07B9F70DB407FE9A
:103C0000FDCF8EB58C931C820E9472130E9472139A
:103C100081E0DF91CF911F910F91FF90EF90089578
:103C2000CF93DF930E941713EB010E9472138F3F13
:103C300049F00E9417136C1B7D0B69357240A8F385
:103C400080E001C081E0DF91CF9108958F929F9233
:103C5000AF92BF92CF92DF92EF92FF92CF93C82F95
:103C600010920A0581E090E0A0E0B0E080930D059D
:103C700090930E05A0930F05B093100585E095E095
:103C80009093270580932605109225058FEF9FEFCF
:103C9000DC018093280590932905A0932A05B09311
:103CA0002B05CC2331F1C53008F0DCC020E040E02A
:103CB00050E0BA0185E295E00E94C114009709F432
:103CC000D1C020E1C29F800D911D11244097FC01BD
:103CD000E254FE4F20812F7709F0C4C038968080CF
:103CE0009180A280B38081149104A104B10421F4D5
:103CF000B9C0812C912C540120E0B501A40185E2CA
:103D000095E00E94C114FC01892B09F4ABC08385A6
:103D100094858115924009F0A5C08089823009F010
:103D2000A1C0468557854115510509F49BC02585DD
:103D3000209307058FEF820F8093080580E091E0C4
:103D4000291751F031E0380F393019F48093090503
:103D500089C0990F832FF4CF80930905C688D7882F
:103D6000C114D10419F0E12CF12C04C0C4A0D5A0D9
:103D7000E6A0F7A0C0921105D0921205E0921305BB
:103D8000F0921405D501C401840F951FA11DB11D2A
:103D90008093190590931A05A0931B05B0931C05F9
:103DA0002189328930930C0520930B05CC0CDD1C46
:103DB000EE1CFF1CC80ED91EEA1EFB1EC092210578
:103DC000D0922205E0922305F092240555E0220FBF
:103DD000331F5A95E1F721503E4F232F3327269565
:103DE000C20ED31EE11CF11CC0921505D09216051F
:103DF000E0921705F09218052389348921153105C1
:103E000021F0C901A0E0B0E004C080A191A1A2A16D
:103E1000B3A1B501A4014C195D096E097F09480FD2
:103E2000591F6A1F7B1F0090090504C0769567958E
:103E3000579547950A94D2F7DB01CA010196A11D57
:103E4000B11D80931D0590931E05A0931F05B0938F
:103E50002005453F8FE058076105710528F48CE087
:103E600080930A0580E017C0453F5F4F61057105EB
:103E700010F480E10DC084A595A5A6A5B7A58093F3
:103E8000210590932205A0932305B093240580E299
:103E900080930A0581E0CF91FF90EF90DF90CF9063
:103EA000BF90AF909F908F9008950F931F93FA014A
:103EB0008C0122273327012B022B032B09F42EC060
:103EC00033E3639F6627030E611D202D739F7727C1
:103ED000600D711D839F8827700D811D939F992709
:103EE000800D911D1124260F671F781F891F911DBA
:103EF000270F681F791F811D911D290F611D711DDD
:103F0000811D911D969587957795679527953AE040
:103F1000239F212D1124205D2293CACFCF01019729
:103F20006A307105E8F033E3639F6627030E611D75
:103F3000202D739F7727600D711D1124260F671F99
:103F4000711D270F611D711D7695679527953AE0C4
:103F5000239F212D1124FC0180E3820F8083DECF7B
:103F6000605DFC0160831F910F9108958F929F9275
:103F7000AF92BF92CF92DF92EF92FF920F931F9377
:103F8000CF93DF9300D000D0CDB7DEB70E946A0F89
:103F9000B82E0E946A0FF82E0E946A0FE82E0E9427
:103FA0006A0F082F10E0102F00270E0D111D0B3087
:103FB00081E0180708F07DC10032110528F4B8012E
:103FC0008EE593E068DA1CC02F9AC12CD12C65E0F5
:103FD00088E694E00E94411048018C189D0881E217
:103FE0008816910418F0A0E28A2E912CB401C60123
:103FF000825A9C4F50DAC80CD91CC016D10638F32F
:10400000EF2CEB24E026E126EEE5F3E0025A1C4F0C
:10401000E017F10719F08191E826FACF0E946A0FA4
:104020008E1539F020E030E043E06F2D8B2DAADAB9
:1040300040C181E0B81621F082E0B81669F138C1BC
:1040400081E0F81621F082E0F81679F01BC085E0D7
:1040500080935E0310925F0382E08093600383E0AD
:104060008093610324E030E013C055DC81110EC061
:1040700068EE75E088E694E00E94CA1120E030E026
:1040800041E007C020E030E042E003C020E030E043
:1040900040E06F2D81E00BC180916107811104C068
:1040A00020E030E044E001C185E1F81609F4BDC02C
:1040B0008F1588F182E0F81609F481C08F1588F019
:1040C000FF2009F47AC081E0F812F5C0CADBEEE502
:1040D000F3E001900020E9F731978F010E5513406E
:1040E000E2C082E1F81609F489C084E1F81609F407
:1040F00095C080E1F812DFC08EE593E020DA2091D0
:1041000061030091620310E0102F0027020F111DC0
:10411000A801B8DBC8C082E2F81609F4BAC08F154E
:1041200010F180E2F81609F48BC08F1508F48EC0E8
:1041300086E1F812C0C08EE593E001DA4B015C0124
:1041400081E693E0FCD99B01AC01C501B401A1DC7F
:1041500060935E0370935F038093600390936103A9
:1041600004E010E0A0C080E3F81609F496C081E3F3
:10417000F81609F494C083E2F8129DC0809162039E
:104180004091630350E0542F4427480F511D809104
:1041900060036091610370E0762F6627680F711DE0
:1041A000E0915E0380915F0390E0982F882724E6DA
:1041B00033E08E0F911D23DB74C080E071C020912D
:1041C0005707909158078091590720935E03909369
:1041D0005F038093600390915B0780915C079093ED
:1041E00061038093620390915D0780915E079093D5
:1041F00063038093640307E010E055C08EE593E00D
:104200009ED9209161034091620350E0542F4427CE
:10421000420F511D23E633E0C1DA43C08EE593E03F
:104220008ED94B015C0184E106C08EE593E087D90D
:104230004B015C0185E13EDAC501B4019CDA31C075
:104240008EE593E046DB0BEA10E02DC024E633E078
:10425000AE014F5F5F4FBE016D5F7F4FCE01059690
:104260004FDC8D819E8180935E0390935F036B8111
:104270007C81609360037093610349815A8140930C
:1042800062035093630324E633E03ADC06E110E076
:104290000AC08EE593E04DDA04C080E301C081E3FB
:1042A00009DA00E010E040E098016F2D82E06AD961
:1042B00019C080E017C066ED75E088E694E00E94C2
:1042C000A6114F2D50E060E070E020E188E694E018
:1042D0000E942F1188E694E00E94781100E010E01F
:1042E00042E0E2CF26960FB6F894DEBF0FBECDBFF8
:1042F000DF91CF911F910F91FF90EF90DF90CF90C2
:10430000BF90AF909F908F900895CF93DF93CDB7DC
:10431000DEB7C156D1090FB6F894DEBF0FBECDBFD0
:10432000789484B5826084BD84B5816084BD85B590
:10433000826085BD85B5816085BD80916E0081609C
:1043400080936E0010928100809181008260809342
:104350008100809181008160809381008091800044
:104360008160809380008091B10084608093B1006F
:104370008091B00081608093B00080919100826054
:104380008093910080919100816080939100809151
:1043900090008160809390008091A1008260809362
:1043A000A1008091A10081608093A1008091A00074
:1043B00081608093A000809121018260809321011F
:1043C0008091210181608093210180912001816091
:1043D0008093200180917A00846080937A0080919C
:1043E0007A00826080937A0080917A008160809365
:1043F0007A0080917A00806880937A001092C100E0
:1044000061E082E00E94B61262E083E00E94B61290
:1044100061E084E00E94B61260E085E00E94B6127E
:1044200061E08DE00E94B61261E089E00E94B61260
:1044300061E08AE00E94B61261E08AE00E943912CF
:1044400080918100887F81608093810061E089E0B4
:104450000E94B612E7E5F1E0E4918E2F90E0FC01B6
:104460003197E231F10508F0B8C08827EE58FF4FC8
:104470008F4F59C784B5806884BD8FE787BDB1C0B1
:1044800084B5806284BD8FE788BDABC08091800019
:104490008068809380008FE790E0909389008093FC
:1044A00088009FC0809180008062809380008FE7A9
:1044B00090E090938B0080938A0093C0809180005D
:1044C0008860809380008FE790E090938D008093C8
:1044D0008C0087C08091B00080688093B0008FE727
:1044E0008093B3007EC08091B00080628093B00062
:1044F0008FE78093B40075C08091900080688093AE
:1045000090008FE790E0909399008093980069C0A5
:10451000809190008062809390008FE790E090936C
:104520009B0080939A005DC080919000886080938A
:1045300090008FE790E090939D0080939C0051C085
:104540008091A00080688093A0008091A0008F7B64
:104550008093A0008FE790E09093A9008093A8003B
:1045600040C08091A00080628093A0008FE790E01F
:104570009093AB008093AA0034C08091A000886023
:104580008093A0008FE790E09093AD008093AC0003
:1045900028C0809120018068809320018FE790E0FF
:1045A00090932901809328011CC080912001806292
:1045B000809320018FE790E090932B0180932A0154
:1045C00010C0809120018860809320018FE790E0E7
:1045D00090932D0180932C0104C060E089E00E943B
:1045E0003912E0917804F091790482E08083E091BF
:1045F0007404F09175041082E0917604F0917704D0
:1046000080E1808310928004E0917C04F0917D042D
:1046100086E08083E0917A04F0917B048081806160
:104620008083E0917A04F0917B04808188608083AC
:10463000E0917A04F0917B04808180688083E0912E
:104640007A04F0917B0480818F7D808388EE93E0F3
:10465000A0E0B0E080936C0490936D04A0936E048E
:10466000B0936F0480E591E00E944D1981110E9482
:10467000251980935D03811106C06DEA71E088E61B
:1046800094E00E94CA1147D9811106C064E971E023
:1046900088E694E00E94CA110E946A0F813009F4F2
:1046A000F4C08D3009F0F2C00E947C0F88E694E0DF
:1046B0000E947811F0E52F2EF2E03F2E6AE874E0B8
:1046C00088E694E00E94A61168E472E088E694E02F
:1046D0000E94A41181E00E94CF18182F88E694E070
:1046E0000E94781180915E03882341F3112331F3F6
:1046F0006FE472E088E694E00E947C1180915E0392
:1047000090E00E94B02B89349105D1F064F48B3194
:10471000910509F4BBC08634910509F47DC0019769
:1047200009F0A6C0B2C08635910509F49DC0873551
:10473000910509F478C08235910509F099C08DC0C2
:104740000FDA882309F494C0E6D8882309F450C00E
:1047500088D86BE774E088E694E00E94CA1165E7A8
:1047600074E088E694E00E94A61110E0E12FF0E0EA
:10477000E25AFC4F6081662331F088E694E00E94A3
:104780008D111F5FF3CFB0905D07A0905E07D090B2
:104790005B07C0905C071091570700915807F09095
:1047A0005907E0905A076DE474E0CE0101960E942B
:1047B000E710AF92BF92CF92DF92EF92FF920F93EA
:1047C0001F938A818F9389818F933F922F92E6D78F
:1047D000CE0101960E94E21060E572E088E694E066
:1047E0000E947C110FB6F894DEBF0FBECDBF06C08D
:1047F00062E374E088E694E00E94CA1180E591E0EB
:104800000E944D19811103C064E274E021C00E942E
:10481000251981112DC0F8CFB1D9882349F1A0D92C
:10482000811137C025C0AAD9882311F199D98111E6
:1048300024C01EC048ED50E06EE573E0CE01C9967D
:104840000E940205883D910509F490C06AEF73E06B
:1048500088E694E00E94CA110BC090D9882341F0E9
:104860007FD98111BFC004C00E947C0F87D978D93D
:1048700088E694E00E94781121CF0E9410198823C5
:10488000B9F380915E038130A9F470DB0E94A81017
:1048900003CF19821A8221E04BE452E06CE277E008
:1048A000CE0101960E94C10D60E0CE0101960E94EA
:1048B0005F16DECF68ED74E088E694E00E94A611F2
:1048C0006EE573E088E694E00E94A4116AEC74E05F
:1048D00088E694E00E94CA1119AE1AAE18AA1FA663
:1048E00088EE93E0A0E0B0E089AB9AABABABBCAB99
:1048F0008AE092E09EA78DA71D861E861C821B82E1
:1049000028EE33E040E050E02D833E834F8358870C
:104910009A83898321E04EE553E06CE277E0CE0193
:104920000D960E94C10D80E2FE013D96DE01D996F2
:1049300001900D928A95E1F78B819C8198AB8FA7AE
:104940008D819E81AF81B88589AB9AABABABBCAB97
:1049500089859A85AB85BC858DAB9EABAFABB8AF77
:1049600089AD811167CF64E174E082C0C0905707C0
:10497000D0905807E0905907F0905A0740E150E076
:1049800067E673E08EE593E066D4892B19F063E562
:1049900073E05ECF10916E03113021F480916F03AC
:1049A000882319F06EE373E053CF80913204909125
:1049B0003304A0913404B09135046D968CAF9DAF53
:1049C000AEAFBFAF6D97C816D906EA06FB0618F45E
:1049D0006DE173E03DCF8091860380FF59C061E0B7
:1049E00073E061C00E941019882309F441CF8091BF
:1049F0005E03813009F449CF62EB74E088E694E00D
:104A00000E94A6116EE573E088E694E00E94A4116E
:104A100067E288E694E00E9494111DA61EA622E09B
:104A20004EE553E06CE277E0CE018D960E94C10D19
:104A3000811167C21D861E861C821B8228EE33E010
:104A400040E050E02D833E834F8358878AE092E018
:104A50009A83898323E64EE553E06CE277E0CE014A
:104A60000D960E94C10D8D85811154C266EE71E0D4
:104A700088E694E00E94A6116EE573E088E694E073
:104A80000E94A41167E288E694E00E949411F0CE9F
:104A90004BEA50E066E572E087E893E0E9D31093D3
:104AA000860361E472E088E694E00E94CA1186EA17
:104AB00092E00E94691C4BEA50E066EA72E087E8E7
:104AC00093E056D6892B21F087E893E00E94991B4A
:104AD00086E0E0E7F3E0A0EAB2E001900D928A956B
:104AE000E1F74091A4025091A5026091A202709159
:104AF000A30226E733E08091A0029091A1020E94D8
:104B0000FF1BD090A402C090A502F090A202E090FA
:104B1000A3021091A0020091A10266EF71E0CE0104
:104B200001960E94E710CF92DF92EF92FF920F93CF
:104B30001F936D969FAD6D979F936C96AFAD6C97DD
:104B4000AF936B96BFAD6B97BF936A96EFAD6A97C5
:104B5000EF938A818F9389818F933F922F921ED6F4
:104B6000CE0101960E94E21060E572E088E694E0D2
:104B70000E94A4110FB6F894DEBF0FBECDBF06E7AA
:104B800013E0E0E1FE2EF00ED8016D918D0188E674
:104B900094E00E948D11F012F7CF67E288E694E06E
:104BA0000E9494110E941713A2966CAF7DAF8EAF36
:104BB0009FAFA2976E961FAE6E97C12CD12C760137
:104BC00088248A94982C5401809157079091580713
:104BD000A0915907B0915A07C816D906EA06FB06F4
:104BE00070F520915F073091600740E050E0C70109
:104BF000B60177D3672B682B692B39F485E10E94C6
:104C00005A1BC701B6010E94BB1B6D962CAD3DAD72
:104C10004EAD5FAD6D97C216D306E406F50608F0FB
:104C2000A5C040915B0750915C076EE573E0CE0133
:104C3000C9960E9402058C01009709F060C024010A
:104C4000350161EE73E0CE0101960E94E710FF92FC
:104C5000EF92DF92CF928A818F9389818F933F92D7
:104C60002F929CD5CE0101960E94E21060E572E081
:104C700088E694E00E947C11CE01C9960E94B90D8D
:104C800081E30E945A1B6BEC73E088E694E00E947B
:104C9000A6110E941713A2962CAD3DAD4EAD5FAD8F
:104CA000A297621B730B840B950B28EE33E040E058
:104CB00050E017D3BA01A9012AE088E694E00E94E7
:104CC0002F1163E788E694E00E94941163EB73E090
:104CD00088E694E00E94CA1188E694E00E9487105A
:104CE0007501640131E0C322DD24EE24FF240FB6F8
:104CF000F894DEBF0FBECDBF8FE190E088C02EE5F7
:104D000033E0AC01C701B6010E94CE1BEEE5F3E033
:104D1000025A1C4FE017F10749F1A19189E090E098
:104D200021E030E0B0E00197A9F3240135014424EB
:104D300077FC4394552466247724642DA9014A23E3
:104D40005B23452B11F061E06425880C991CAA1C9B
:104D5000BB1C662341F057EB85265DE1952651EC9F
:104D6000A52654E0B526220F331FDDCFD701C6019B
:104D70009F73AA27BB27892B8A2B8B2B09F03EC058
:104D80006DEE73E0CE0101960E94E710FF92EF9264
:104D9000DF92CF928A818F9389818F933F922F9256
:104DA000FDD4CE0101960E94E21060E572E088E633
:104DB00094E00E94A4110FB6F894DEBF0FBECDBFE1
:104DC0006D962CAD3DAD4EAD5FAD6D97C216D30661
:104DD000E406F50698F46E963FAD6E97311108C063
:104DE00081E30E945A1B41E06E964FAF6E9706C05A
:104DF00080E30E945A1B6E961FAE6E9780915B07F0
:104E000090915C07C80ED91EE11CF11CDDCE769492
:104E1000679457944794CC0CDD1CEE1CFF1CB30127
:104E2000A2014170552766277727C42AD52AE62A8A
:104E3000F72A019761F7C094D094E094F0946D96AE
:104E40002CAD3DAD4EAD5FAD6D9760E070E0CB0138
:104E50000E94491D4B015C0163EA73E0CE0101969B
:104E60000E94E710BF92AF929F928F92FF92EF92B3
:104E7000DF92CF928A818F9389818F933F922F9275
:104E80008DD4CE0101960E94E21060E572E088E6C2
:104E900094E00E947C110FB6F894DEBF0FBECDBF28
:104EA000C814D904EA04FB0419F064E973E0D0CC17
:104EB00067E773E088E694E00E94A6110E9417134A
:104EC000A2962CAD3DAD4EAD5FADA297621B730BAC
:104ED000840B950B28EE33E040E050E002D2BA019B
:104EE000A9012AE088E694E00E942F1163E788E692
:104EF00094E00E94941167E088E694E00E948D118E
:104F0000B7CC19821A828DA583FF94CD8FA581FF1E
:104F100091CDCDC088EDEEE5F3E0DF011D928A95DD
:104F2000E9F740E150E067E673E0CF01A1D1E1E0AD
:104F3000F0E0F0936F03E0936E0320E030E040E296
:104F400050E0209332043093330440933404509360
:104F5000350487E893E00E94691C81E08093860312
:104F600026E733E044EA52E062EA72E080EA92E047
:104F70000E94801D86E0E0EAF2E0A0E7B3E0019045
:104F80000D928A95E1F70E9417134B015C01C12C29
:104F9000D12C760140E051E0C701B6010E94421CCD
:104FA00040E051E06EE573E0CE0101960E94A60D4F
:104FB000D701C6019F73AA27BB27892B8A2B8B2B6E
:104FC00001F56AED71E0CE018D960E94E710FF9227
:104FD000EF92DF92CF928EA58F938DA58F933F9204
:104FE0002F92DCD3CE018D960E94E21060E572E034
:104FF00088E694E00E94A4110FB6F894DEBF0FBEBD
:10500000CDBF80915B0790915C07C80ED91EE11C53
:10501000F11CC114D10450E2E506F10408F4BACF42
:105020006EEC71E0CE018D960E94E710FF92EF9238
:10503000DF92CF928EA58F938DA58F933F922F9263
:10504000ADD3CE018D960E94E21060E572E088E655
:1050500094E00E947C11CE010D960E94B90D6EEB7A
:1050600071E088E694E00E94A6110E941713681967
:1050700079098A099B0928EE33E040E050E031D1FC
:10508000BA01A9012AE088E694E00E942F1163E7A3
:1050900088E694E00E94941167E088E694E00E941C
:1050A0008D110FB6F894DEBF0FBECDBFE1CB2D96AC
:1050B0004CAD5DAD6EAD7FAD2D97411551056105D0
:1050C000710539F08BA99CA90E94EC15882309F47D
:1050D000B1CC61E0CE018D960E94480B8C01009707
:1050E00009F4A8CC0E942B04D82E85EED8018C930D
:1050F0001DA68BA99CA980960E948014882309F480
:1051000099CC88A9882309F495CC8DA99EA9AFA92B
:10511000B8AD8E010F5F1F4F0097A105B10541F497
:105120006BA97CA9C8010E947807811112C082CCAA
:1051300020E2F80111922A95E9F720E1298321E084
:105140002B832BA93CA938872F838D8F9E8FAF8F00
:10515000B8A3BB24B39495EEC92E88A98B1508F487
:1051600069CCEB2CF12C49A95AA94E195F0960E0D2
:1051700070E085E0440F551F661F771F8A95D1F7B1
:10518000C8010E943E04882309F454CC60E0C801A1
:105190000E94D406FC01892B09F44CCC83858F3006
:1051A00009F048CC9081292F2F7130E0E216F306E8
:1051B00009F040CC8585D8123DCCC082EBA9FCA972
:1051C00080A1816080A396FF05C0CF0180960E94D8
:1051D000801430CCB394C1CFE8E6F4E0138212829D
:1051E00088EE93E0A0E0B0E084839583A683B78344
:1051F0008CE192E09183808385EC90E095878487B1
:1052000084EC90E09787868780EC90E0918B808B90
:1052100081EC90E0938B828B82EC90E0958B848B79
:1052200086EC90E0978B868B118E128E138E148EE7
:105230001092610710920A0510922C0710922D0708
:1052400084E680934C071092510780E580935207C3
:10525000109253070895FB01DC0104C08D91059065
:10526000801921F441505040C8F7881B990B0895CC
:10527000FB01DC0102C005900D9241505040D8F76F
:105280000895FB01DC0105900D920020E1F70895DF
:10529000FC0105900020E9F7809590958E0F9F1FE7
:1052A0000895991B79E004C0991F961708F0961B82
:1052B000881F7A95C9F780950895AA1BBB1B51E1F9
:1052C00007C0AA1FBB1FA617B70710F0A61BB70B76
:1052D000881F991F5A95A9F780959095BC01CD011B
:1052E0000895A1E21A2EAA1BBB1BFD010DC0AA1F27
:1052F000BB1FEE1FFF1FA217B307E407F50720F03F
:10530000A21BB30BE40BF50B661F771F881F991FB9
:105310001A9469F760957095809590959B01AC0102
:10532000BD01CF010895EE0FFF1F881F8BBF0790AF
:10533000F691E02D1994CF93DF938230910510F40C
:1053400082E090E0E0916407F091650720E030E0B2
:10535000C0E0D0E0309711F14081518148175907E2
:10536000C0F04817590761F482819381209719F0A2
:105370009B838A832BC0909365078093640726C024
:105380002115310519F04217530718F49A01BE018F
:10539000DF01EF010280F381E02DDCCF2115310523
:1053A00009F1281B390B2430310590F412968D91A8
:1053B0009C9113976115710521F0FB019383828302
:1053C00004C09093650780936407FD01329644C042
:1053D000FD01E20FF31F81939193225031092D9328
:1053E0003C933AC02091620730916307232B41F42C
:1053F00020910202309103023093630720936207E9
:1054000020910002309101022115310541F42DB7A0
:105410003EB74091040250910502241B350BE091E8
:105420006207F0916307E217F307A0F42E1B3F0B0E
:105430002817390778F0AC014E5F5F4F2417350706
:1054400048F04E0F5F1F50936307409362078193AC
:10545000919302C0E0E0F0E0CF01DF91CF91089599
:105460000F931F93CF93DF93009709F48CC0FC0137
:10547000329713821282009164071091650701151B
:10548000110581F420813181820F931F20916207E1
:10549000309163072817390779F5F0936307E09394
:1054A000620771C0D80140E050E0AE17BF0750F46A
:1054B00012962D913C911397AD012115310509F1FB
:1054C000D901F3CF9D01DA01338322836081718199
:1054D000860F971F8217930769F4EC0128813981A1
:1054E000260F371F2E5F3F4F318320838A819B8198
:1054F00093838283452B29F4F0936507E093640737
:1055000042C01396FC93EE931297ED014991599185
:105510009E01240F351FE217F30771F480819181FA
:10552000840F951F029611969C938E93828193818E
:1055300013969C938E931297E0E0F0E0D8011296B8
:105540008D919C911397009719F0F8018C01F6CF7B
:105550008D919C9198012E5F3F4F820F931F209158
:105560006207309163072817390769F4309729F4E7
:10557000109265071092640702C013821282109382
:10558000630700936207DF91CF911F910F910895F8
:105590006F927F928F929F92AF92BF92CF92DF9243
:1055A000EF92FF920F931F93CF93DF93EC0100973D
:1055B00081F4CB01DF91CF911F910F91FF90EF907C
:1055C000DF90CF90BF90AF909F908F907F906F9023
:1055D000B2CEFC01E60FF71F9C0122503109E21701
:1055E000F30708F4A8C0D9010D911C911197061773
:1055F0001707A8F00530110508F49BC0C8010497EF
:105600008617970708F495C002501109061B170B5F
:10561000019311936D937C93CF0122DF8AC05B01CC
:10562000A01AB10A4C01800E911EA0916407B0919E
:10563000650740E050E0E12CF12C109709F44AC0D6
:10564000A815B905D1F56D907C901197630182E0A2
:10565000C80ED11CCA14DB0480F1A3014A195B09EE
:105660006A0182E0C80ED11C1296BC901297139664
:10567000AC91B5E0CB16D10440F0B282A383518344
:105680004083D9016D937C930AC00E5F1F4FC30105
:10569000800F911FF90191838083EB2DFA2FE11484
:1056A000F10431F0D7011396FC93EE93129741C0A9
:1056B000F0936507E09364073CC08D919C9111972E
:1056C0004817590708F4AC017D0112960D90BC9162
:1056D000A02DB3CF8091620790916307881599053B
:1056E000E1F446175707C8F4809100029091010237
:1056F000009741F48DB79EB7409104025091050286
:10570000841B950BE817F907B0F4F0936307E09357
:105710006207F901718360830CC0CB010CDE7C0150
:10572000009749F0A801BE0130D0CE0199DEC70133
:1057300004C0CE0102C080E090E0DF91CF911F91C4
:105740000F91FF90EF90DF90CF90BF90AF909F9020
:105750008F907F906F90089581E090E0F894E7C279
:105760009111089581568A5108F480528558089500
:10577000FB01DC0104C08D910190801921F441509E
:105780005040C8F7881B990B0895FB01DC0102C04B
:1057900001900D9241505040D8F708950F931F93F8
:1057A000CF93DF93CDB7DEB72E970FB6F894DEBF59
:1057B0000FBECDBF0E891F8986E08C831A830983B3
:1057C0008FEF9FE79E838D83AE01465E5F4F688DAE
:1057D000798DCE01019611D02F813885F801E20F25
:1057E000F31F10822E960FB6F894DEBF0FBECDBF0A
:1057F000DF91CF911F910F9108952F923F924F9279
:105800005F926F927F928F929F92AF92BF92CF9250
:10581000DF92EF92FF920F931F93CF93DF93CDB759
:10582000DEB72C970FB6F894DEBF0FBECDBF7C015C
:105830006B018A01FC0117821682838181FFB0C14E
:10584000CE0101964C01F7019381F60193FD8591FC
:1058500093FF81916F01882309F49EC1853239F449
:1058600093FD859193FF81916F01853221F4B701FA
:1058700090E0C7D1E8CF512C312C20E02032A0F4A9
:105880008B3269F030F4803259F0833269F4206150
:105890002CC08D3239F0803339F4216026C022606B
:1058A000246023C0286021C027FD27C030ED380FB9
:1058B0003A3078F426FF06C0FAE05F9E300D1124DE
:1058C000532E13C08AE0389E300D1124332E2062EF
:1058D0000CC08E3221F426FD5FC1206406C08C36D8
:1058E00011F4206802C0883641F4F60193FD8591D9
:1058F00093FF81916F018111C1CF982F9F7D9554A6
:10590000933028F40C5F1F4FFFE3F9830DC08336FB
:1059100031F0833771F0833509F057C021C0F801A9
:10592000808189830E5F1F4F44244394512C54017E
:1059300014C03801F2E06F0E711CF801A080B18034
:1059400026FF03C0652D70E002C06FEF7FEFC50139
:105950002C874CD12C0183012C852F77222E16C049
:105960003801F2E06F0E711CF801A080B18026FFB3
:1059700003C0652D70E002C06FEF7FEFC5012C877B
:105980002AD12C012C852068222E830123FC19C0EA
:10599000832D90E048165906A0F4B70180E290E00C
:1059A00030D13A94F5CFF50127FC859127FE8191FE
:1059B0005F01B70190E025D131103A94F1E04F1A20
:1059C00051084114510479F7DEC0843611F089364C
:1059D00031F5F80127FF07C06081718182819381D1
:1059E0000C5F1F4F08C060817181072E000C880B6F
:1059F000990B0E5F1F4F2F76722E97FF09C090955F
:105A00008095709561957F4F8F4F9F4F2068722EC4
:105A10002AE030E0A4012DD1A82EA81843C0853774
:105A200029F42F7EB22E2AE030E025C0F22FF97F34
:105A3000BF2E8F36C1F018F4883579F0ADC08037AD
:105A400019F0883721F0A8C02F2F2061B22EB4FEA4
:105A50000DC08B2D8460B82E09C024FF0AC09F2F73
:105A60009660B92E06C028E030E005C020E130E0A5
:105A700002C020E132E0F801B7FE07C06081718109
:105A8000828193810C5F1F4F06C06081718180E02D
:105A900090E00E5F1F4FA401ECD0A82EA818FB2D9C
:105AA000FF777F2E76FE0BC0372D3E7FA51450F476
:105AB00074FE0AC072FC08C0372D3E7E05C0BA2CA9
:105AC000372D03C0BA2C01C0B52C34FF0DC0FE0128
:105AD000EA0DF11D8081803311F4397E09C032FF57
