:1000000047C1000076C1000074C1000072C1000049
:1000100070C100006EC100006CC100006AC1000028
:1000200068C1000066C1000064C1000062C1000038
:1000300060C100005EC100005CC100005AC1000048
:1000400058C1000056C1000054C1000052C1000058
:1000500050C100004EC100004CC100000C94D809F2
:1000600048C100004DC3000022C3000042C100008F
:1000700040C100003EC100003CC100003AC1000088
:1000800038C1000036C1000034C1000032C1000098
:1000900030C100002EC100002CC100002AC10000A8
:1000A00028C1000026C1000024C1000022C10000B8
:1000B00020C100001EC100001CC100001AC10000C8
:1000C00018C1000016C1000014C1000012C10000D8
:1000D00010C100000EC100000CC100000AC10000E8
:1000E00008C10000DA02DD02CC02D002D4021403FF
:1000F000E102E502EB02EF02F302F902FD02010365
:10010000140307030B030F03000021002400270042
:100110002A002D0030003300010100000401070116
:100120000A0100002200250028002B002E003100CB
:10013000340002010000050108010B010505050559
:10014000070508080808020202020A0A080804044F
:10015000040401010101010101010303030303037D
:100160000303040707070C0C0C0C0C0C0C0C02020C
:10017000020206060606060606060B0B0B0B0B0B09
:100180000B0B010210202008081020401020408096
:10019000020102010804020101020408102040804B
:1001A00080402010080402018004020180402010D9
:1001B0000804020108040201010204081020408022
:1001C000010204081020408000000A0B02090C0DF7
:1001D0000E080703040100000000000000000000FA
:1001E000000000000000000000000000000000000F
:1001F00000000000121110000000000000000000CC
:100200000000000000000000000000000000646525
:1002100076696365696E666F3A20002A6572726F4F
:1002200072207374617274696E67207461706563A3
:10023000617274002A5461706563617274205600A3
:100240002A6572726F72207374617274696E6720AE
:100250007461706563617274002A726561642074F0
:10026000696D656F7574204C4F5720002A73656E59
:1002700073652074696D656F75742032002A73652B
:100280006E73652074696D656F75742031007E1022
:1002900011241FBECFEFD1E2DEBFCDBF00E00CBF07
:1002A00026E0A2E5B2E001C01D92A436B207E1F754
:1002B00012E0A0E0B2E0EEE2F6E200E00BBF02C026
:1002C00007900D92A235B107D9F711E0C8E4D1E04B
:1002D00000E006C021970109802FFE010E94E8106E
:1002E000C734D10780E00807A9F70E94750D0C9468
:1002F000151386CECF92DF92EF92FF920F931F934A
:10030000CF93DF936C017A018B01C0E0D0E0CE1572
:10031000DF0589F0D8016D918D01D601ED91FC9139
:100320000190F081E02DC6011995892B11F47E0111
:1003300002C02196ECCFC701DF91CF911F910F91A1
:10034000FF90EF90DF90CF900895FC01538D448D86
:10035000252F30E0842F90E0821B930B541710F070
:10036000CF96089501970895FC01918D828D98177D
:1003700061F0828DDF01A80FB11D5D968C91928D89
:100380009F5F9F73928F90E008958FEF9FEF089586
:10039000FC01918D828D981731F0828DE80FF11D4F
:1003A000858D90E008958FEF9FEF0895FC01918D6A
:1003B000228D892F90E0805C9F4F821B91098F7363
:1003C000992708958DE695E0F1DF21E0892B09F466
:1003D00020E0822F0895FC01848DDF01A80FB11D5C
:1003E000A35ABF4F2C91848D90E001968F7399276B
:1003F000848FA689B7892C93A089B1898C91806458
:100400008C93938D848D981306C00288F389E02D18
:1004100080818F7D80830895EF92FF920F931F93C9
:10042000CF93DF93EC0181E0888F9B8D8C8D9813A7
:1004300005C0E889F989808185FD23C0F62E0B8DE2
:1004400010E00F5F1F4F0F731127E02E8C8DE81205
:100450000BC00FB607FCFACFE889F989808185FFC8
:10046000F5CFCE01B8DFF2CF8B8DFE01E80FF11D85
:10047000E35AFF4FF0820B8FEA89FB89808180620B
:1004800007C0EE89FF896083E889F98980818064EB
:10049000808381E090E0DF91CF911F910F91FF90D9
:1004A000EF900895CF93DF93EC01888D8823C1F0FE
:1004B000EA89FB89808185FD05C0A889B9898C916D
:1004C00086FD0EC00FB607FCF5CF808185FFF2CF09
:1004D000A889B9898C9185FFEDCFCE017CDFE8CF6B
:1004E000DF91CF91089580E090E0892B19F06ADFC9
:1004F000811125C080E090E0892B41F080E090E000
:10050000892B21F00E94000081111CC080E090E046
:10051000892B41F080E090E0892B21F00E940000BF
:10052000811113C080E090E0892BA1F080E090E081
:10053000892B81F00E94000081110AC008950E9459
:100540000000D8CF0E940000E1CF0E940000EACF57
:100550000C9400000895362F90E0FC01E853FE4F04
:100560004491FC01EE57FE4F2491FC01E45CFE4FE8
:100570009491992309F46BC0442309F455C050E0C9
:10058000FA013197E231F10508F04EC08827EE58A4
:10059000FF4F8F4F0C94E810809180008F7707C039
:1005A000809180008F7D03C080918000877F809341
:1005B00080003AC084B58F7702C084B58F7D84BD3A
:1005C00033C08091B0008F7703C08091B0008F7DE1
:1005D0008093B00029C0809190008F7707C08091F0
:1005E00090008F7D03C080919000877F8093900062
:1005F0001BC08091A0008F7707C08091A0008F7DE5
:1006000003C08091A000877F8093A0000DC08091DF
:1006100020018F7707C0809120018F7D03C08091DA
:100620002001877F80932001E92FF0E0EE0FFF1F6C
:10063000EE5DFE4FA591B4918FB7F894EC91311116
:1006400003C020952E2301C02E2B2C938FBF08951D
:1006500061E0FC0184817FDF809152028111109260
:10066000520208958EBD00000DB407FEFDCF8EB579
:1006700008958FEFF7CFCF93DF93EC018E8188231E
:1006800079F08F8198859C012F5F3F4F38872F83AA
:100690008230924010F4EDDFF4CFCE01D9DF1E821C
:1006A000DF91CF910895089580E090E008951F9222
:1006B0000F920FB60F9211240BB60F922F933F9308
:1006C0004F935F936F937F938F939F93AF93BF935A
:1006D000EF93FF938DE695E07EDEFF91EF91BF9162
:1006E000AF919F918F917F916F915F914F913F91CA
:1006F0002F910F900BBE0F900FBE0F901F9018956B
:100700001F920F920FB60F9211240BB60F922F93D8
:100710008F939F93EF93FF93E0917D05F0917E057A
:100720008081E0918305F091840582FD12C0908163
:10073000809186058F5F8F7320918705821751F016
:10074000E0918605F0E0E359FA4F958F8093860596
:1007500001C08081FF91EF919F918F912F910F9018
:100760000BBE0F900FBE0F901F901895CF93DF9385
:1007700090E0FC01EE57FE4F2491FC01E45CFE4F3B
:100780008491882361F190E0880F991FFC01E85F54
:10079000FE4FC591D491FC01EE5DFE4FA591B49141
:1007A000611109C09FB7F8948881209582238883BE
:1007B000EC912E230BC0623061F49FB7F89438811E
:1007C000822F809583238883EC912E2B2C939FBFBF
:1007D00006C08FB7F894E8812E2B28838FBFDF9156
:1007E000CF9108953FB7F89480915F049091600491
:1007F000A0916104B091620426B5A89B05C02F3F6B
:1008000019F00196A11DB11D3FBFBA2FA92F982F36
:100810008827820F911DA11DB11DBC01CD0142E0B1
:10082000660F771F881F991F4A95D1F708952FB734
:10083000F89460915B0470915C0480915D049091E8
:100840005E042FBF08950F931F93CF93DF93EB01A7
:10085000EEDF8B010EDF8F3F41F0E9DF601B710B94
:100860006C177D07B8F380E001C081E0DF91CF9184
:100870001F910F910895CF92DF92FF920F931F93D4
:10088000CF93DF9300D01F92CDB7DEB76C01F62E69
:1008900029833A834B835C83EEDE80915202298167
:1008A0003A814B815C81811109C081E080935202C1
:1008B00090910A0680910B069CBD8DBD60E0F6010B
:1008C000848129833A834B835C8345DE6CE271E04B
:1008D000C601B9DF8F2D8064C5DE08E110E05C81C0
:1008E0004B813A812981DA01C901002E04C0B695F5
:1008F000A795979587950A94D2F729833A834B83D6
:100900005C83B0DE0850110929813A814B815C81FA
:10091000083FFFEF1F0739F7FF2029F088E0F812A2
:1009200004C087E803C085E901C08FEF9BDE10E0BB
:10093000A0DEF601828787FF04C01F3F11F01F5F12
:10094000F7CF0F900F900F900F90DF91CF911F91E5
:100950000F91FF90DF90CF900895EF92FF920F9349
:100960001F93CF93DF93EC01790141155105610588
:10097000710511F482E134C08B85833039F089E050
:10098000440F551F661F771F8A95D1F79A01AB0157
:1009900068E1CE0170DF882311F084E021C08EEF82
:1009A00061DE87018EEFF81AF80181918F015ADE1E
:1009B0000E151F05C9F78FEF55DE8FEF53DE59DE99
:1009C0008A878F71853029F081E18D83CE0140DEE9
:1009D00008C068E572E0CE0136DF811106C085E10E
:1009E0008D83CE0135DE80E010C020E030E0A9012B
:1009F0006DE0CE0140DF811103C03BDE882311F0A2
:100A000084E1EECFCE0124DE81E0DF91CF911F9112
:100A10000F91FF90EF900895CF93DF93809155024F
:100A2000882389F1C0915302D09154024091000271
:100A30005091010260910202709103022AE532E0B6
:100A4000CE018BDF811102C080E01EC040915602B2
:100A50005091570260915802709159024115510509
:100A60006105710571F02AE532E0CE0176DF882359
:100A700059F3109256021092570210925802109297
:100A800059021092550281E0DF91CF910895BF92F3
:100A9000CF92DF92EF92FF920F931F93CF93DF934A
:100AA0006B017C01B42E8091000290910102A09113
:100AB0000202B09103028C159D05AE05BF0509F435
:100AC0006DC0AADF882309F470C0C0915302D09191
:100AD00054028E81882369F088819981AA81BB8123
:100AE000C816D906EA06FB0621F48F819885892B62
:100AF00089F1C882D982EA82FB828B85A70196019F
:100B0000833039F089E0220F331F441F551F8A9527
:100B1000D1F761E1CE01AFDE882319F083E08D8348
:100B200031C085DE8B01A5DD8A878F3F41F47FDEF2
:100B3000601B710B6D327140B0F38FE003C08E3FCC
:100B400029F08DE08D83CE0183DD1CC018861F82C5
:100B500081E08E830AE512E08CDDF80181938F013C
:100B6000F4E00A351F07C1F78F8198859E5F98874B
:100B70008F832985222319F08115924038F0CE0108
:100B80007ADD04C0CE0164DD80E00FC0C0920002B7
:100B9000D0920102E0920202F0920302809155028B
:100BA000482F4B294093550281E0DF91CF911F914F
:100BB0000F91FF90EF90DF90CF90BF9008954F92EC
:100BC0005F926F927F928F929F92AF92BF92CF92DD
:100BD000DF92EF92FF920F931F93CF93DF93EC017D
:100BE0006A017B0128013901423051056105710517
:100BF00010F480E072C089859A85AB85BC8501962A
:100C0000A11DB11D84179507A607B70790F38B8820
:100C10009C88AD88BE888F89803129F4BB27AF2D91
:100C20009E2D8D2D09C0DB01CA0147E0B695A79521
:100C3000979587954A95D1F7880E991EAA1EBB1ED7
:100C40008091000290910102A0910202B0910302F2
:100C500088169906AA06BB0679F48F89803199F423
:100C6000DD24EE24FF24C601880F991FFC01E65AFB
:100C7000FD4F5182408218C040E0C501B40107DF3A
:100C80008111EBCFB6CFE894C7F8DD24EE24FF2422
:100C9000C601880F991F880F991FFC01E65AFD4F66
:100CA000408251826282738280915502816080937A
:100CB00055028A89823080F08D819E81AF81B8850E
:100CC000880E991EAA1EBB1E809256029092570251
:100CD000A0925802B092590281E0DF91CF911F910A
:100CE0000F91FF90EF90DF90CF90BF90AF909F90CB
:100CF0008F907F906F905F904F9008958F929F920A
:100D0000AF92BF92CF92DF92EF92FF920F931F9319
:100D1000CF93DF93FC0181859285A385B4850196ED
:100D2000A11DB11D84179507A607B70710F480E031
:100D30005BC083899489A589B689C789C03129F4A4
:100D4000852E962EA72EBB2409C04A015B01C7E061
:100D5000B694A79497948794CA95D1F7E9016A014C
:100D60007B018F01BC01CD01680D791D8A1D9B1D82
:100D70008090000290900102A0900202B0900302C5
:100D8000681579058A059B0599F4F80187898031F2
:100D9000A1F4B701A601552766277727440F551FF1
:100DA000FA01E65AFD4F80819181A0E0B0E017C0C2
:100DB00040E06DDE8111E9CFBACFB701A6014F77D0
:100DC000552766277727440F551F440F551FFA01F3
:100DD000E65AFD4F80819181A281B381BF708883E3
:100DE0009983AA83BB8381E0DF91CF911F910F91FB
:100DF000FF90EF90DF90CF90BF90AF909F908F903B
:100E000008953F924F925F926F927F928F929F923E
:100E1000AF92BF92CF92DF92EF92FF920F931F9308
:100E2000CF93DF93CDB7DEB72C970FB6F894DEBF24
:100E30000FBECDBF5C01DC015B968D909C905C97F2
:100E40001696CD90DD90ED90FC901997C114D104C9
:100E5000E104F10439F0BFEFCB1ADB0AEB0AFB0A1D
:100E6000312C07C0F401C080D180E280F3803324AC
:100E70003394F40181859285A385B4859C01AD01ED
:100E80002F5F3F4F4F4F5F4F29873A874B875C87D4
:100E9000260137011D821E821F821886F40181857A
:100EA0009285A385B4852D813E814F815885281771
:100EB00039074A075B0708F060C089859A85AB85CA
:100EC000BC858C159D05AE05BF0550F482E0C82E8B
:100ED000D12CE12CF12C92E0492E512C612C712C5B
:100EE0009E012F5F3F4FB701A601C40107DF882392
:100EF00009F443C089819A81AB81BC81892B8A2BFB
:100F00008B2B41F0260137019FEF491A590A690AD4
:100F1000790A05C0C414D504E604F70491F02D81C4
:100F20003E814F8158852F5F3F4F4F4F5F4F2D833D
:100F30003E834F8358873FEFC31AD30AE30AF30A6D
:100F4000ADCF0FEF1FEF2FEF3FE0B301A201C401C0
:100F500036DE882391F0D50116964D915D916D9105
:100F60007C911997411551056105710541F0930177
:100F70008201C40124DE811102C080E02AC0D501B3
:100F800016964D925D926D927C921997332051F096
:100F9000D301C2010196A11DB11DF401808391838B
:100FA000A283B383F5018789908DA18DB28D892BA2
:100FB0008A2B8B2B69F4D50157964D925D926D92D9
:100FC0007C925A9714968C911497806814968C93FF
:100FD00081E02C960FB6F894DEBF0FBECDBFDF9137
:100FE000CF911F910F91FF90EF90DF90CF90BF9026
:100FF000AF909F908F907F906F905F904F903F90B9
:1010000008954F925F926F927F928F929F92AF92CC
:10101000BF92EF92FF920F931F93CF93DF9300D075
:101020001F921F92CDB7DEB78C016D83DC01159640
:101030008C911597813009F056C014968C9181FFE0
:1010400052C059C0038CF48DE02D258530E0275F18
:101050003F4F2A013B01B1E04B1A5108610871086A
:10106000022E04C076946794579447940A94D2F75A
:10107000D501C4010197A109B10904C0B695A7958E
:10108000979587952A95D2F784159505A605B705F6
:1010900008F06FC0F8014789508D618D728D4683CD
:1010A0005783608771872C013D017801E6E0EE0EE1
:1010B000F11CD801411451046104710409F463C0A6
:1010C00016964D915D916D917C91199797015B9664
:1010D0008D919C915C9712DEB1E04B1A510861082A
:1010E00071088111E6CF81E090E0F801938382835B
:1010F00080E090E049C182FF0EC0F801428553852F
:101100006485758583889488A588B68848155905AF
:101110006A057B05F1F4D8011A964D915D916D91A8
:101120007C911D975B968D919C915C97FC017480DE
:101130007A944A015B0129E0B694A7949794879426
:101140002A95D1F778207A01F1E0FF22772011F17A
:1011500062C081149104A104B10409F073CF168216
:10116000178210861186F80112861386148615865A
:10117000D2CF452B462B472B09F48CCF84199509E8
:10118000A609B70990CF1A968D929D92AD92BC9206
:101190001D97C1CFE114F10409F03DC0F80146816B
:1011A000578160857185411551056105710549F4C7
:1011B0008789908DA18DB28D0097A105B10531F57C
:1011C00020C09E012F5F3F4F99DD882309F490CF07
:1011D00089819A81AB81BC81F801238D348DF9011D
:1011E0002789203129F048EF5FEF6FEF7FE004C0DF
:1011F00048EF5FEF60E070E084179507A607B70738
:1012000028F0C801FEDD811106C06DCFF80186838C
:101210009783A087B187D8015B96ED91FC915C978D
:1012200016968D909D90AD90BC901997B2E08B1A58
:101230009108A108B108058404C0880C991CAA1C57
:10124000BB1C0A94D2F786859785A089B189880E40
:10125000991EAA1EBB1E870C911CA11CB11CE11477
:10126000F10401F5F801428553856485758583890C
:101270009489A589B689481759076A077B0790F0B2
:10128000CBDB882309F42FCF8092000290920102D9
:10129000A0920202B0920302809155028160809375
:1012A000550207C041E0C501B401F1DB882309F410
:1012B0001ACFF701E65AFD4F8D818083F8018285B0
:1012C0009385A485B5850196A11DB11D828793875D
:1012D000A487B58743895489658976894817590752
:1012E0006A077B0738F4838B948BA58BB68B84813C
:1012F00080688483D80114968C9183FD03C081E0BB
:1013000090E042C0F8019581992309F4ECCE87FF63
:1013100037C0668577858089918941E0B8DB88236D
:1013200009F4E1CED8015296EC91B0E2EB9F900126
:101330001124D901A65ABD4F109709F4D4CEF80153
:101340008581823050F443895489658976895C9619
:101350004D935D936D937C935F97F8018789908D92
:10136000A18DB28DF901E65AFD4F938F828FB58B17
:10137000A48BD80114968C9114978F7714968C9324
:101380004BDB8111BCCFAFCE0F900F900F900F9021
:101390000F90DF91CF911F910F91FF90EF90BF9031
:1013A000AF909F908F907F906F905F904F90089537
:1013B0001F920F920FB60F9211242F933F938F938A
:1013C0009F93AF93BF9380915B0490915C04A09135
:1013D0005D04B0915E0430915A0423E0230F2D3751
:1013E00020F40196A11DB11D05C026E8230F029629
:1013F000A11DB11D20935A0480935B0490935C045B
:10140000A0935D04B0935E0480915F0490916004AA
:10141000A0916104B09162040196A11DB11D809359
:101420005F0490936004A0936104B0936204BF9141
:10143000AF919F918F913F912F910F900FBE0F9081
:101440001F901895E0916D05F0916E050190F08167
:10145000E02D682F8DE695E01994CF92DF92EF9200
:10146000FF920F931F93CF93DF93082FF62E142F25
:10147000E90161E08DE695E00E940C02602F8DE6A7
:1014800095E00E940C026F2D8DE695E00E940C0203
:10149000612F8DE695E00E940C021C27F1266C2F2F
:1014A0008DE695E00E940C026D2F8DE695E00E947E
:1014B0000C02FD261F2D102783E6E82E84E0F82E6F
:1014C000CD59DB4FEC16FD0661F06701F701619124
:1014D0007F018DE695E00E940C02F60180811827BD
:1014E000F1CF612F8DE695E0DF91CF911F910F91A4
:1014F000FF90EF90DF90CF900C940C02CF92DF9290
:10150000EF92FF92CF93DF936C01990FEE08FF08E3
:10151000F7FE15C08DE296DFEC0166277727CB0139
:101520006C197D098E099F094AE06CD08C0F9D1FB4
:10153000DF91CF91FF90EF90DF90CF9008954AE038
:10154000C701B601DF91CF91FF90EF90DF90CF9070
:1015500059C00E940113CF92DF92EF92FF9242D9BD
:101560006B017C013FD9DC01CB018C199D09AE09CF
:10157000BF09883E9340A105B105A0F3FF90EF900D
:10158000DF90CF900895009769F0FC010190002052
:10159000E9F73197AF01481B590BBC018DE695E087
:1015A0000C947A0180E090E008950F931F93CF93FD
:1015B000DF938C01C0E0D0E0F801EC0FFD1F6491D7
:1015C000662371F0E0916D05F0916E050190F08158
:1015D000E02D8DE695E01995892B11F02196ECCF41
:1015E000CE01DF91CF911F910F910895CF93DF939B
:1015F000DCDFEC0188E292E0C6DF8C0F9D1FDF91FB
:10160000CF9108958F929F92AF92BF920F931F93A5
:10161000CF93DF93CDB7DEB7A1970FB6F894DEBFB7
:101620000FBECDBF19A2423008F44AE08E010F5D13
:101630001F4F842E912CA12CB12CA5019401A6D56D
:10164000E62FB901CA0101501109EA3014F4E05D36
:1016500001C0E95CD801EC93232B242B252B69F7DF
:10166000C80191DFA1960FB6F894DEBF0FBECDBFC3
:10167000DF91CF911F910F91BF90AF909F908F906E
:101680000895CF93C82FF894639BFECF61E085E067
:101690006DD898E043E050E027E030E0C7FF02C09B
:1016A000739A01C07398CC0FFA013197F1F7A59A9C
:1016B000F9013197F1F7A598F9013197F1F79150B8
:1016C00069F7739A83E090E00197F1F7739860E00F
:1016D00085E04CD883E290E00197F1F77894CF91C0
:1016E00008951F93CF93DF931F92CDB7DEB7182FC6
:1016F000862F7983C6DF7981872FC3DF812F0F90F3
:10170000DF91CF911F91BDCFCF93DF931F92CDB7C4
:10171000DEB79983B6DF9981892F0F90DF91CF9142
:10172000B0CFF894639BFECFA59AE3E0F0E0319749
:10173000F1F798E027E030E043E050E0A598F901A8
:101740003197F1F7A59AFA013197F1F7880F63996C
:101750008160915099F7A598E3E0F0E03197F1F7B7
:10176000789408950F931F93CF93DF938C0181E0BA
:1017700088DFC3E6D4E0CE018356944080179107FA
:1017800024F4CFDF89938111F6CFDF91CF911F91A0
:101790000F910895CF93DF93C4DFC82FD0E0C1DF4E
:1017A0009E01382BC901DF91CF9108958F929F92AE
:1017B000AF92BF92CF92DF92EF92FF92A598749A68
:1017C000CADE35D86B017C01639B0EC030D8DC01CA
:1017D000CB018C199D09AE09BF090B97A105B10575
:1017E00098F38DE792E02CC07498B5DE80E122EE8C
:1017F0003CEF4BEC57E037FF02C0A59A01C0A5981B
:10180000220F331FFA013197F1F7749AFA013197D9
:10181000F1F77498815079F79EDEA59A08D86B018C
:101820007C01639910C003D8DC01CB018C199D09A0
:10183000AE09BF09C397A105B10598F38CE692E004
:10184000D5DE80E098C087DEC12CD12C76010E94C5
:1018500017044B015C01659B22C00E941704DC0148
:10186000CB0188199909AA09BB0985369105A105FB
:10187000B10588F38DE392E086DE4AE0C701B60148
:10188000C1DE8FE492E07FDE0E94170468197909B7
:101890008A099B094AE0B6DE88E292E074DE0E9483
:1018A00017044B015C01659922C00E941704DC01FA
:1018B000CB0188199909AA09BB0985369105A105AB
:1018C000B10588F389E592E070DE4AE0C701B60110
:1018D00099DE8FE492E057DE0E94170468197909B7
:1018E0008A099B094AE08EDE88E292E04CDE8FEFA7
:1018F000C81AD80AE80AF80A84E6C816D104E1042E
:10190000F10409F0A4CFA59882E0BBDE0ADFC82E5F
:10191000D12CE12CF12C05DFB82E03DF90E0A0E004
:10192000B0E0DC01992788279B298C299D29AE29C5
:10193000BF2980930D0690930E06A0930F06B093D7
:10194000100628DF909312068093110623DF9093F0
:101950001406809313064091110650911206849F3D
:101960009001859F300D949F300D11243093160601
:101970002093150681E0FF90EF90DF90CF90BF900D
:10198000AF909F908F900895EF92FF920F931F93C7
:10199000CF93DF937C018B01EA0181E272DEFADEF4
:1019A000F70191838083F6DEF80191838083F2DE74
:1019B00099838883C9E6D4E01C2F105FB2DE899337
:1019C0001C13FCCF10927904DF91CF911F910F91DE
:1019D000FF90EF9008958F929F92AF92BF92EF92F7
:1019E000FF920F931F93CF93DF937B018C01C0E095
:1019F000D0E0CE15DF05C9F10E941704609375058C
:101A0000709376058093770590937805E0916D0546
:101A1000F0916E050284F385E02D8DE695E0199531
:101A200097FF1EC00E941704809075059090760560
:101A3000A0907705B0907805DC01CB018819990951
:101A4000AA09BB098090710590907205A09073055A
:101A5000B090740588159905AA05BB05B8F205C0B4
:101A6000F80181938F012196C4CFCE01DF91CF91F0
:101A70001F910F91FF90EF90BF90AF909F908F902C
:101A80000895CF93DF931F92CDB7DEB78FEF898391
:101A900061E070E0CE0101969EDF89810F90DF91B9
:101AA000CF9108950F931F93FC016181862F90E0E1
:101AB000A0E0B0E00027182F292F3A2F428150E0F4
:101AC00060E070E0BA0155274427D901C801840FAE
:101AD000951FA61FB71F2081BC01CD01620F711D8C
:101AE000811D911D1F910F910895CF93DF9300D019
:101AF00000D0CDB7DEB7789484B5826084BD84B55C
:101B0000816084BD85B5826085BD85B5816085BDF8
:101B100080916E00816080936E00109281008091B0
:101B20008100826080938100809181008160809338
:101B30008100809180008160809380008091B1005D
:101B400084608093B1008091B00081608093B00088
:101B500080919100826080939100809191008160DA
:101B6000809391008091900081608093900080919B
:101B7000A10082608093A1008091A1008160809388
:101B8000A1008091A00081608093A000809121013C
:101B900082608093210180912101816080932101E5
:101BA0008091200181608093200180917A0084607F
:101BB00080937A0080917A00826080937A0080918D
:101BC0007A00816080937A0080917A0080688093A7
:101BD0007A001092C10061E082E00E94B60362E0E8
:101BE00083E00E94B60361E084E00E94B60360E0F7
:101BF00085E00E94B60361E08DE00E94B603E091AB
:101C00007D05F0917E0582E08083E0917905F09179
:101C10007A051082E0917B05F0917C0580E180835C
:101C200010928505E0918105F091820586E0808320
:101C3000E0917F05F0918005808180618083E09153
:101C40007F05F0918005808188608083E0917F0529
:101C5000F0918005808180688083E0917F05F0911C
:101C6000800580818F7D808388EE93E0A0E0B0E0E6
:101C70008093710590937205A0937305B0937405DA
:101C800084E392E092DC80E090E038DC8EE2DADB04
:101C900082E090E033DC8FE2D5DB4AE062E070E086
:101CA00080E090E0AFDC88E292E06DDC7FDD8111C6
:101CB00004C08BE192E09ADC1BC061E070E080E040
:101CC00090E0BBD38C01009729F0FC0110826AE2FE
:101CD00072E0A4D480E091E045DD8EE092E065DC26
:101CE00083E694E050DC88E292E04DDCC8010DD33D
:101CF000A3E62A2EA4E03A2EBBEA9B2E920C89E69C
:101D000094E010E1E12EE80E8DE695E00E94D60108
:101D100005970CF4EEC1B5DE813009F0EAC1B1DE01
:101D2000682EAFDEF82EADDED82EABDE082F10E029
:101D3000102F00270D0D111D0B30F1E01F0708F0CB
:101D4000D8C10032110580F4B80183E694E043DE87
:101D50007F2C762470267126E3E6CE2EE4E0DE2E7C
:101D60000D591B4FF6011DC02F9AC12CD12C65E0D7
:101D70008DE695E00E940C0228014C185D0881E276
:101D80004816510418F070E2472E512CB201C601DA
:101D90008D599B4F20DEC40CD51CC016D10638F3DC
:101DA000D7CFE017F10719F081917826FACF69DED5
:101DB000871531F020E030E043E06F2D862D98C18B
:101DC00091E0691621F0E2E06E1641F192C1F1E076
:101DD00082E0FF1619F0F81669F016C080936304CC
:101DE000109264048093650483E08093660424E089
:101DF00030E010C0DBDC81110BC080E492E0F6DB48
:101E000020E030E041E007C020E030E042E003C0E5
:101E100020E030E040E06F2D81E06AC195E1F916E5
:101E200009F402C19F1508F43DC0E2E0FE1609F472
:101E3000A8C0EF1590F0FF2009F4A1C0F1E0FF1257
:101E400043C180E290E08EDCF10101900020E9F7CF
:101E500031978F01035614404FC182E1F81609F4FF
:101E6000B8C094E1F91609F4D8C0E0E1FE122CC123
:101E700083E694E017DE2B013C018091660400911B
:101E8000670410E0102F0027080F111D80E1F9DB17
:101E9000C301B20126DCC80137DCF801ED59FB4F64
:101EA0003F018EC0F2E2FF1609F4F5C0FF15B0F154
:101EB00080E2F81609F4C3C08F1508F4CDC096E18E
:101EC000F91202C183E694E0EDDD5B016C0186E668
:101ED00094E0E8DD2B013C0186E1D3DBC601B501CE
:101EE00000DCC301B201FDDB55DC8C0153DCA0E05A
:101EF000B0E0DC0199278827A80160E070E0842B1E
:101F0000952BA62BB72B8093630490936404A09326
:101F10006504B093660404E010E0EEC0E0E3FE1652
:101F200009F4CBC0F1E3FF1609F4C9C083E2F8124B
:101F3000CBC08091630460906404712C762C66247D
:101F4000680E711C80916504C0906604D12CDC2C55
:101F5000CC24C80ED11C809167040091680410E065
:101F6000102F0027080F111D83E28BDBC301CCDB90
:101F7000C601CADBC801C8DB09E614E097C080E0EF
:101F80009FC020910D0690910E0680910F06209320
:101F9000630490936404809365049091110680918A
:101FA00012069093660480936704909113068091C3
:101FB0001406909368048093690407E010E09CC0C5
:101FC000C614D70409F498C0ACDBF60181936F0105
:101FD000F7CF83E694E066DD2B013C012091660497
:101FE0008091670490E0982F88276C01C20ED11C65
:101FF00082E147DBC301B20174DBC60185DB00E08F
:1020000010E00C151D0509F45CC0F801ED59FB4FFB
:10201000858137DB0F5F1F4FF4CF83E694E042DD0D
:102020002B013C0184E106C083E694E03BDD2B01FB
:102030003C0185E126DBC301B20153DB42C080E2F3
:1020400020DB03E614E06DDBF80181938F019E1223
:10205000FACF0BEA10E050C0AE014F5F5F4FBE01F8
:102060006D5F7F4FCE0105968FDC8D819E818093C1
:102070006304909364046B817C8160936504709326
:10208000660449815A8140936704509368047CDC5C
:1020900006E110E031C082E2F4DA03E614E0F80170
:1020A00081918F01EEDA9012FACF0BC0F801819185
:1020B0008F01E7DAE012FACF04C080E301C081E3C8
:1020C000E0DA00E010E018C08BE292E05CDA8F2DDD
:1020D00090E0A0E0B0E040E1BC01CD0193DA88E2FD
:1020E00092E051DA00E010E042E098016F2D82E0CA
:1020F000B4D90E94730208CE40E0F7CFEDE6F5E0D8
:102100001382128288EE93E0A0E0B0E0848395838E
:10211000A683B7838EE092E09183808385EC90E084
:102120009587848784EC90E09787868780EC90E0A1
:10213000918B808B81EC90E0938B828B82EC90E092
:10214000958B848B86EC90E0978B868B118E128E0C
:10215000138E148EEAE0F6E080E580831182E7E1D9
:10216000F6E0158216821186138682E090E0A0E0E8
:10217000B0E084879587A687B78713A215A614A613
:1021800080E292E093A782A717A60895A1E21A2EF3
:10219000AA1BBB1BFD010DC0AA1FBB1FEE1FFF1F0B
:1021A000A217B307E407F50720F0A21BB30BE40B5B
:1021B000F50B661F771F881F991F1A9469F76095A2
:1021C0007095809590959B01AC01BD01CF0108955C
:1021D000EE0FFF1F881F8BBF0790F691E02D19941B
:1021E000CF93DF938230910510F482E090E0E0918C
:1021F0006206F091630620E030E0C0E0D0E0309766
:1022000011F14081518148175907C0F0481759070B
:1022100061F482819381209719F09B838A832BC07C
:10222000909363068093620626C02115310519F04C
:102230004217530718F49A01BE01DF01EF01028033
:10224000F381E02DDCCF2115310509F1281B390B75
:102250002430310590F412968D919C91139761155D
:10226000710521F0FB019383828304C09093630680
:1022700080936206FD01329644C0FD01E20FF31F18
:1022800081939193225031092D933C933AC0209130
:10229000600630916106232B41F4209106023091B3
:1022A000070230936106209360062091040230916A
:1022B00005022115310541F42DB73EB740910802C2
:1022C00050910902241B350BE0916006F0916106E4
:1022D000E217F307A0F42E1B3F0B2817390778F0FD
:1022E000AC014E5F5F4F2417350748F04E0F5F1F5C
:1022F00050936106409360068193919302C0E0E0A1
:10230000F0E0CF01DF91CF9108950F931F93CF930A
:10231000DF93009709F48CC0FC013297138212827C
:1023200000916206109163060115110581F4208168
:102330003181820F931F209160063091610628172A
:10234000390779F5F0936106E093600671C0D80112
:1023500040E050E0AE17BF0750F412962D913C912B
:102360001397AD012115310509F1D901F3CF9D0175
:10237000DA013383228360817181860F971F821770
:10238000930769F4EC0128813981260F371F2E5FEE
:102390003F4F318320838A819B8193838283452BA6
:1023A00029F4F0936306E093620642C01396FC930F
:1023B000EE931297ED01499159919E01240F351F1B
:1023C000E217F30771F480819181840F951F0296C3
:1023D00011969C938E938281938113969C938E93F6
:1023E0001297E0E0F0E0D80112968D919C9113973E
:1023F000009719F0F8018C01F6CF8D919C9198010E
:102400002E5F3F4F820F931F20916006309161062F
:102410002817390769F4309729F41092630610924F
:10242000620602C013821282109361060093600656
:10243000DF91CF911F910F9108956F927F928F92AC
:102440009F92AF92BF92CF92DF92EF92FF920F9343
:102450001F93CF93DF93EC01009781F4CB01DF91C1
:10246000CF911F910F91FF90EF90DF90CF90BF9091
:10247000AF909F908F907F906F90B2CEFC01E60F4F
:10248000F71F9C0122503109E217F30708F4A8C096
:10249000D9010D911C91119706171707A8F0053067
:1024A000110508F49BC0C80104978617970708F424
:1024B00095C002501109061B170B019311936D93E0
:1024C0007C93CF0122DF8AC05B01A01AB10A4C01C4
:1024D000800E911EA0916206B091630640E050E02C
:1024E000E12CF12C109709F44AC0A815B905D1F5D3
:1024F0006D907C901197630182E0C80ED11CCA14C4
:10250000DB0480F1A3014A195B096A0182E0C80E6D
:10251000D11C1296BC9012971396AC91B5E0CB16D5
:10252000D10440F0B282A38351834083D9016D93DB
:102530007C930AC00E5F1F4FC301800F911FF901EA
:1025400091838083EB2DFA2FE114F10431F0D70150
:102550001396FC93EE93129741C0F0936306E093B9
:1025600062063CC08D919C9111974817590708F459
:10257000AC017D0112960D90BC91A02DB3CF80913E
:1025800060069091610688159905E1F44617570792
:10259000C8F48091040290910502009741F48DB730
:1025A0009EB74091080250910902841B950BE817D1
:1025B000F907B0F4F0936106E0936006F9017183C6
:1025C00060830CC0CB010CDE7C01009749F0A801B0
:1025D000BE011BD0CE0199DEC70104C0CE0102C0EE
:1025E00080E090E0DF91CF911F910F91FF90EF90ED
:1025F000DF90CF90BF90AF909F908F907F906F9023
:10260000089581E090E0F89410C0FB01DC0102C065
:1026100001900D9241505040D8F70895FB01DC0124
:0E26200001900D920020E1F70895F894FFCF8D
:10262E00FFFFFFFF000064068000000000000C02A8
:10263E007A01A5015202D601B401C80100000000C2
:10264E0001087A01540353030D0A002A6E6F742099
:10265E00696D706C656D656E74656420002A7265B7
:10266E0061642074696D656F757420484947482010
:02267E0000005A
:00000001FF
