:100000000C94BB000C94E3000C94E3000C94E3000C
:100010000C94E3000C94E3000C94E3000C94E300D4
:100020000C94E3000C94E3000C94E3000C94E300C4
:100030000C94E3000C94E3000C94E3000C94E300B4
:100040000C9441090C94E3000C9441020C941B02A3
:100050000C94E3000C94E3000C94E3000C94E30094
:100060000C94E3000C94E3003D0E410E590E800FFA
:10007000800F800F800F800F800F800F800F800F08
:10008000800F800F800F800F780E800F9F0E800FE3
:10009000C70ECF0EDF0E800F800F800F800F800FF6
:1000A000800F800F800F800F120F210F420F4F0F14
:1000B00000000000250028002B00040404040404B0
:1000C0000404020202020202030303030303010207
:1000D00004081020408001020408102001020408D6
:1000E00010200000000800020100000304070000C7
:1000F0000000000000002A6572726F722073746144
:100100007274696E67207461706563617274002A2D
:1001100054617065636172742056002A6572726F53
:1001200072207374617274696E67207461706563A4
:100130006172740000000000240027002A002A7267
:100140006561642074696D656F7574204C4F57202C
:10015000002A73656E73652074696D656F75742010
:1001600032002A73656E73652074696D656F7574EE
:10017000203100009A0F11241FBECFEFD8E0DEBF60
:10018000CDBF25E0ACE4B1E001C01D92AA35B207B5
:10019000E1F711E0A0E0B1E0E2E2F0E202C0059098
:1001A0000D92AC34B107D9F710E0CBEBD0E004C02E
:1001B0002197FE010E940410CA3BD107C9F70E9493
:1001C000C70C0C940F100C940000CF92DF92EF92AA
:1001D000FF920F931F93CF93DF936C017A018B01F2
:1001E000C0E0D0E0CE15DF0589F0D8016D918D011A
:1001F000D601ED91FC910190F081E02DC6010995A9
:10020000892B11F47E0102C02196ECCFC701DF914A
:10021000CF911F910F91FF90EF90DF90CF900895B5
:10022000FC01538D448D252F30E0842F90E0821BFC
:10023000930B541710F0CF96089501970895FC0181
:10024000918D828D981761F0828DDF01A80FB11D0D
:100250005D968C91928D9F5F9F73928F90E0089531
:100260008FEF9FEF0895FC01918D828D981731F0EB
:10027000828DE80FF11D858D90E008958FEF9FEF3F
:100280000895FC01918D228D892F90E0805C9F4F15
:10029000821B91098F739927089587E694E00E9445
:1002A000410121E0892B09F420E0822F0895FC010F
:1002B000848DDF01A80FB11DA35ABF4F2C91848DEF
:1002C00090E001968F739927848FA689B7892C9324
:1002D000A089B1898C9180648C93938D848D9813BF
:1002E00006C00288F389E02D80818F7D8083089588
:1002F000EF92FF920F931F93CF93DF93EC0181E076
:10030000888F9B8D8C8D981305C0E889F989808131
:1003100085FD24C0F62E0B8D10E00F5F1F4F0F736D
:100320001127E02E8C8DE8120CC00FB607FCFACF17
:10033000E889F989808185FFF5CFCE010E945701B8
:10034000F1CF8B8DFE01E80FF11DE35AFF4FF082D4
:100350000B8FEA89FB898081806207C0EE89FF8963
:100360006083E889F98980818064808381E090E0FE
:10037000DF91CF911F910F91FF90EF900895CF9350
:10038000DF93EC01888D8823C9F0EA89FB8980819D
:1003900085FD05C0A889B9898C9186FD0FC00FB66F
:1003A00007FCF5CF808185FFF2CFA889B9898C91B0
:1003B00085FFEDCFCE010E945701E7CFDF91CF91AE
:1003C000089580E090E0892B29F00E944D01811171
:1003D0000C9400000895CF92DF92EF92FF92CF939A
:1003E000DF936C01990FEE08FF08F7FE17C08DE24E
:1003F0000E94BC0CEC0166277727CB016C197D09A4
:100400008E099F094AE00E94E6098C0F9D1FDF912B
:10041000CF91FF90EF90DF90CF9008954AE0C70111
:10042000B601DF91CF91FF90EF90DF90CF900C94C9
:10043000E6090E940A101F920F920FB60F92112424
:100440002F933F934F935F936F937F938F939F93DC
:10045000AF93BF93EF93FF9387E694E00E94570119
:10046000FF91EF91BF91AF919F918F917F916F918C
:100470005F914F913F912F910F900FBE0F901F9062
:1004800018951F920F920FB60F9211242F938F93EE
:100490009F93EF93FF93E0917704F091780480812C
:1004A000E0917D04F0917E0482FD12C090818091E4
:1004B00080048F5F8F7320918104821751F0E09147
:1004C0008004F0E0E959FB4F958F8093800401C0D0
:1004D0008081FF91EF919F918F912F910F900FBE8F
:1004E0000F901F90189590E0FC01EE51FF4F349152
:1004F000FC01E253FF4F2491FC01E654FF4FE491CD
:10050000EE2309F43BC0332339F1333091F038F452
:100510003130A9F0323001F584B58F7D12C037300B
:1005200091F03830A1F03430B9F4809180008F7DA3
:1005300003C0809180008F77809380000DC084B5C8
:100540008F7784BD09C08091B0008F7703C0809100
:10055000B0008F7D8093B000F0E0EE0FFF1FE055FC
:10056000FF4FA591B4918FB7F894EC91611103C03E
:1005700020952E2301C02E2B2C938FBF08958EBD66
:1005800000000DB407FEFDCF8EB508958FEF0C94DB
:10059000BF02089580E090E0089561E0FC0184814D
:1005A0000E94730280914C01811110924C010895B8
:1005B000CF93DF93EC018E81882389F08F8198851A
:1005C0009C012F5F3F4F38872F838230924018F471
:1005D0000E94C602F3CFCE010E94CD021E82DF919F
:1005E000CF910895CF93DF9390E0FC01E253FF4F4A
:1005F0002491FC01E654FF4F8491882361F190E03F
:10060000880F991FFC01EC5CFE4FC591D491FC0151
:10061000E055FF4FA591B491611109C09FB7F894BF
:100620008881209582238883EC912E230BC0623031
:1006300061F49FB7F8943881822F80958323888353
:10064000EC912E2B2C939FBF06C08FB7F894E881B6
:100650002E2B28838FBFDF91CF9108953FB7F89459
:100660008091590390915A03A0915B03B0915C0370
:1006700026B5A89B05C02F3F19F00196A11DB11DFD
:100680003FBFBA2FA92F982F8827820F911DA11D38
:10069000B11DBC01CD0142E0660F771F881F991F75
:1006A0004A95D1F708952FB7F8946091550370914A
:1006B000560380915703909158032FBF08950F93CD
:1006C0001F93CF93DF93EB010E9453038B010E9492
:1006D000C6028F3F49F00E945303601B710B6C17D9
:1006E0007D07A8F380E001C081E0DF91CF911F91E9
:1006F0000F910895CF92DF92FF920F931F93CF93A4
:10070000DF9300D000D0CDB7DEB76C01F62E298381
:100710003A834B835C830E94D80280914C012981EB
:100720003A814B815C81811109C081E080934C0149
:1007300090910405809105059CBD8DBD60E0F6019A
:10074000848129833A834B835C830E9473026CE229
:1007500071E0C6010E945F038F2D80640E94BF027A
:1007600008E110E05C814B813A812981DA01C901FD
:10077000002E04C0B695A795979587950A94D2F751
:1007800029833A834B835C830E94BF02085011097E
:1007900029813A814B815C81083FFFEF1F0731F7C8
:1007A000FF2029F088E0F81204C087E803C085E93B
:1007B00001C08FEF0E94BF0210E00E94C602F60146
:1007C000828787FF04C01F3F11F01F5FF6CF0F9095
:1007D0000F900F900F90DF91CF911F910F91FF908D
:1007E000DF90CF900895EF92FF920F931F93CF93D6
:1007F000DF93EC017901411551056105710511F493
:1008000082E13CC08B85833039F089E0440F551F6D
:10081000661F771F8A95D1F79A01AB0168E1CE0177
:100820000E947A03882311F084E028C08EEF0E9492
:10083000BF0287018EEFF81AF80181918F010E94A3
:10084000BF020E151F05C1F78FEF0E94BF028FEF89
:100850000E94BF020E94C6028A878F71853031F0E4
:1008600081E18D83CE010E94CD0209C068E572E06E
:10087000CE010E945F03811107C085E18D83CE0107
:100880000E94CD0280E013C020E030E0A9016DE0BD
:10089000CE010E947A03811104C00E94C6028823FF
:1008A00011F084E1EBCFCE010E94CD0281E0DF9117
:1008B000CF911F910F91FF90EF900895CF93DF9309
:1008C00080914F01882399F1C0914D01D0914E0143
:1008D000409100015091010160910201709103016A
:1008E00024E531E0CE010E94F303811102C080E0D3
:1008F0001FC040915001509151016091520170917F
:100900005301411551056105710579F024E531E088
:10091000CE010E94F303882351F3109250011092EC
:100920005101109252011092530110924F0181E037
:10093000DF91CF910895BF92CF92DF92EF92FF9215
:100940000F931F93CF93DF936B017C01B42E8091A3
:10095000000190910101A0910201B09103018C1559
:100960009D05AE05BF0509F476C00E945E0488238C
:1009700009F478C0C0914D01D0914E018E81882339
:1009800069F088819981AA81BB81C816D906EA06D7
:10099000FB0621F48F819885892BB1F1C882D98219
:1009A000EA82FB828B85A7019601833039F089E0CA
:1009B000220F331F441F551F8A95D1F761E1CE01E5
:1009C0000E947A03882319F083E08D8337C00E9448
:1009D00053038B010E94C6028A878F3F49F40E940D
:1009E0005303601B710B6D327140A0F38FE003C0A5
:1009F0008E3F31F08DE08D83CE010E94CD021EC06E
:100A000018861F8281E08E8304E511E00E94C602F1
:100A1000F80181938F01F3E004351F07B9F78F8147
:100A200098859E5F98878F832985222319F08115E9
:100A3000924048F0CE010E94D80205C0CE010E942B
:100A4000CD0280E00FC0C0920001D0920101E0927F
:100A50000201F092030180914F01482F4B294093EE
:100A60004F0181E0DF91CF911F910F91FF90EF90A7
:100A7000DF90CF90BF9008954F925F926F927F92D8
:100A80008F929F92AF92BF92CF92DF92EF92FF929E
:100A90000F931F93CF93DF93EC016A017B01280131
:100AA0003901423051056105710510F480E073C0D1
:100AB00089859A85AB85BC850196A11DB11D8417DA
:100AC0009507A607B70790F38B889C88AD88BE88EA
:100AD0008F89803129F4BB27AF2D9E2D8D2D09C024
:100AE000DB01CA0147E0B695A795979587954A958A
:100AF000D1F7880E991EAA1EBB1E8091000190910D
:100B00000101A0910201B091030188169906AA067D
:100B1000BB0679F48F898031A1F4DD24EE24FF2413
:100B2000C601880F991FFC01EC5AFE4F518240828A
:100B300019C040E0C501B4010E949B048111EACFB5
:100B4000B5CFE894C7F8DD24EE24FF24C601880F52
:100B5000991F880F991FFC01EC5AFE4F4082518269
:100B60006282738280914F01816080934F018A89F4
:100B7000823080F08D819E81AF81B885880E991E6C
:100B8000AA1EBB1E8092500190925101A092520168
:100B9000B092530181E0DF91CF911F910F91FF90AF
:100BA000EF90DF90CF90BF90AF909F908F907F900D
:100BB0006F905F904F9008958F929F92AF92BF92E7
:100BC000CF92DF92EF92FF920F931F93CF93DF9319
:100BD000FC0181859285A385B4850196A11DB11D77
:100BE00084179507A607B70710F480E05CC08389D7
:100BF0009489A589B689C789C03129F4852E962E96
:100C0000A72EBB2409C04A015B01C7E0B694A79494
:100C100097948794CA95D1F7E9016A017B018F0106
:100C2000BC01CD01680D791D8A1D9B1D80900001BE
:100C300090900101A0900201B09003016815790520
:100C40008A059B0599F4F80187898031A9F4B701D9
:100C5000A601552766277727440F551FFA01EC5A3E
:100C6000FE4F80819181A0E0B0E018C040E00E947A
:100C70009B048111E8CFB9CFB701A6014F77552763
:100C800066277727440F551F440F551FFA01EC5A6A
:100C9000FE4F80819181A281B381BF708883998347
:100CA000AA83BB8381E0DF91CF911F910F91FF90C9
:100CB000EF90DF90CF90BF90AF909F908F9008956E
:100CC0003F924F925F926F927F928F929F92AF92DC
:100CD000BF92CF92DF92EF92FF920F931F93CF9329
:100CE000DF93CDB7DEB72C970FB6F894DEBF0FBEFB
:100CF000CDBF5C01DC015B968D909C905C97169655
:100D0000CD90DD90ED90FC901997C114D104E104D1
:100D1000F10439F0BFEFCB1ADB0AEB0AFB0A312CE6
:100D200007C0F401C080D180E280F3803324339483
:100D3000F40181859285A385B4859C01AD012F5F67
:100D40003F4F4F4F5F4F29873A874B875C8726017C
:100D500037011D821E821F821886F40181859285CB
:100D6000A385B4852D813E814F8158852817390789
:100D70004A075B0708F063C089859A85AB85BC8507
:100D80008C159D05AE05BF0550F482E0C82ED12C10
:100D9000E12CF12C92E0492E512C612C712C9E01FA
:100DA0002F5F3F4FB701A601C4010E94DC058823D5
:100DB00009F445C089819A81AB81BC81892B8A2B3A
:100DC0008B2B41F0260137019FEF491A590A690A16
:100DD000790A05C0C414D504E604F70491F02D8106
:100DE0003E814F8158852F5F3F4F4F4F5F4F2D837F
:100DF0003E834F8358873FEFC31AD30AE30AF30AAF
:100E0000ACCF0FEF1FEF2FEF3FE0B301A201C40102
:100E10000E943C05882399F0D50116964D915D916D
:100E20006D917C911997411551056105710549F046
:100E300093018201C4010E943C05811102C080E03F
:100E40002AC0D50116964D925D926D927C921997AB
:100E5000332051F0D301C2010196A11DB11DF4014F
:100E600080839183A283B383F5018789908DA18DBF
:100E7000B28D892B8A2B8B2B69F4D50157964D9215
:100E80005D926D927C925A9714968C91149780681B
:100E900014968C9381E02C960FB6F894DEBF0FBEAB
:100EA000CDBFDF91CF911F910F91FF90EF90DF9019
:100EB000CF90BF90AF909F908F907F906F905F90FA
:100EC0004F903F9008954F925F926F927F928F92D2
:100ED0009F92AF92BF92EF92FF920F931F93CF9387
:100EE000DF9300D000D01F92CDB7DEB78C016D83A9
:100EF000DC0115968C911597813009F057C0149636
:100F00008C9181FF53C05AC0038CF48DE02D258550
:100F100030E0275F3F4F2A013B01B1E04B1A5108F7
:100F200061087108022E04C0769467945794479420
:100F30000A94D2F7D501C4010197A109B10904C0EF
:100F4000B695A795979587952A95D2F78415950517
:100F5000A605B70508F070C0F8014789508D618D6E
:100F6000728D46835783608771872C013D0178011C
:100F7000E6E0EE0EF11CD801411451046104710445
:100F800009F464C016964D915D916D917C9119970D
:100F900097015B968D919C915C970E94DC05B1E076
:100FA0004B1A5108610871088111E5CF81E090E08A
:100FB000F8019383828380E090E04FC182FF0EC0EE
:100FC000F801428553856485758583889488A58852
:100FD000B688481559056A057B05F1F4D8011A96BB
:100FE0004D915D916D917C911D975B968D919C913A
:100FF0005C97FC0174807A944A015B0129E0B69405
:10100000A794979487942A95D1F778207A01F1E0F4
:10101000FF22772011F164C081149104A104B1046E
:1010200009F072CF1682178210861186F801128697
:10103000138614861586D2CF452B462B472B09F4F1
:101040008BCF84199509A609B7098FCF1A968D926F
:101050009D92AD92BC921D97C1CFE114F10409F0AD
:101060003FC0F80146815781608571854115510562
:101070006105710549F48789908DA18DB28D009726
:10108000A105B10541F521C09E012F5F3F4F0E9490
:10109000DC05882309F48FCF89819A81AB81BC81DB
:1010A000F801238D348DF9012789203129F048EF8B
:1010B0005FEF6FEF7FE004C048EF5FEF60E070E04C
:1010C00084179507A607B70730F0C8010E9460068D
:1010D000811106C06BCFF80186839783A087B18703
:1010E000D8015B96ED91FC915C9716968D909D9042
:1010F000AD90BC901997B2E08B1A9108A108B10885
:10110000058404C0880C991CAA1CBB1C0A94D2F745
:1011100086859785A089B189880E991EAA1EBB1E57
:10112000870C911CA11CB11CE114F10409F5F80114
:10113000428553856485758583899489A589B68997
:10114000481759076A077B0798F00E945E048823B6
:1011500009F42CCF8092000190920101A09202012B
:10116000B092030180914F01816080934F0108C0CC
:1011700041E0C501B4010E949B04882309F416CF05
:10118000F701EC5AFE4F8D818083F80182859385AB
:10119000A485B5850196A11DB11D82879387A4877B
:1011A000B5874389548965897689481759076A073D
:1011B0007B0738F4838B948BA58BB68B84818068F6
:1011C0008483D80114968C9183FD03C081E090E064
:1011D00044C0F8019581992309F4E8CE87FF38C00F
:1011E000668577858089918941E00E949B048823E8
:1011F00009F4DCCED8015296EC91B0E2EB9F90015D
:101200001124D901AC5ABE4F109709F4CFCEF80182
:101210008581823050F443895489658976895C964A
:101220004D935D936D937C935F97F8018789908DC3
:10123000A18DB28DF901EC5AFE4F938F828FB58B41
:10124000A48BD80114968C9114978F7714968C9355
:101250000E945E048111BACFA9CE0F900F900F901B
:101260000F900F90DF91CF911F910F91FF90EF9012
:10127000BF90AF909F908F907F906F905F904F90B6
:1012800008951F920F920FB60F9211242F933F9340
:101290008F939F93AF93BF93809155039091560383
:1012A000A0915703B09158033091540323E0230FCA
:1012B0002D3720F40196A11DB11D05C026E8230F8E
:1012C0000296A11DB11D2093540380935503909362
:1012D0005603A0935703B0935803809159039091FC
:1012E0005A03A0915B03B0915C030196A11DB11D4F
:1012F0008093590390935A03A0935B03B0935C03CC
:10130000BF91AF919F918F913F912F910F900FBE01
:101310000F901F901895CF92DF92EF92FF920E944C
:101320002E036B017C010E942E03DC01CB018C1982
:101330009D09AE09BF09883E9340A105B10598F308
:10134000FF90EF90DF90CF900895009769F0FC0137
:1013500001900020E9F73197AF01481B590BBC0100
:1013600087E694E00C94E50080E090E008950F9308
:101370001F93CF93DF938C01C0E0D0E0F801EC0F16
:10138000FD1F6491662371F0E0916704F091680499
:101390000190F081E02D87E694E00995892B11F00A
:1013A0002196ECCFCE01DF91CF911F910F9108953F
:1013B000CF93DF930E94B709EC0182E291E00E9493
:1013C000A5098C0F9D1FDF91CF9108958F929F9259
:1013D000AF92BF920F931F93CF93DF93CDB7DEB73A
:1013E000A1970FB6F894DEBF0FBECDBF19A2423051
:1013F00008F44AE08E010F5D1F4F842E912CA12C22
:10140000B12CA50194010E94E20FE62FB901CA0197
:1014100001501109EA3014F4E05D01C0E95CD80123
:10142000EC93232B242B252B61F7C8010E94A509DF
:10143000A1960FB6F894DEBF0FBECDBFDF91CF915E
:101440001F910F91BF90AF909F908F900895CF9371
:10145000C82FF8944D9BFECF61E085E00E94F20218
:1014600098E043E050E027E030E0C7FF02C05D9A1B
:1014700001C05D98CC0FFA013197F1F75C9AF90140
:101480003197F1F75C98F9013197F1F7915069F7CD
:101490005D9A83E090E00197F1F75D9860E085E068
:1014A0000E94F20283E290E00197F1F77894CF91E5
:1014B00008951F93CF93DF931F92CDB7DEB7182FF8
:1014C000862F79830E94270A7981872F0E94270A15
:1014D000812F0F90DF91CF911F910C94270ACF930A
:1014E000DF931F92CDB7DEB799830E94270A9981B7
:1014F000892F0F90DF91CF910C94270AF8944D9B80
:10150000FECF5C9AE3E0F0E03197F1F798E027E056
:1015100030E043E050E05C98F9013197F1F75C9AD4
:10152000FA013197F1F7880F4D998160915099F741
:101530005C98E3E0F0E03197F1F778940895CF9369
:10154000DF930E947E0AC82FD0E00E947E0A9E018F
:10155000382BC901DF91CF9108958F929F92AF925E
:10156000BF92CF92DF92EF92FF925C985A9A0E94BC
:101570008B090E9453036B017C014D9B0FC00E949D
:101580005303DC01CB018C199D09AE09BF090B97F0
:10159000A105B10590F382E691E030C05A980E940F
:1015A0008B0980E122EE3CEF4BEC57E037FF02C0A5
:1015B0005C9A01C05C98220F331FFA013197F1F752
:1015C0005A9AFA013197F1F75A98815079F70E94A7
:1015D0008B095C9A0E9453036B017C014D9912C0E8
:1015E0000E945303DC01CB018C199D09AE09BF0990
:1015F000C397A105B10590F381E591E00E94D80958
:1016000080E0A9C00E948B09C12CD12C76010E94D8
:1016100053034B015C014B9B27C00E945303DC0129
:10162000CB0188199909AA09BB0985369105A1053D
:10163000B10588F387E391E00E94A5094AE0C7015C
:10164000B6010E94E60989E491E00E94A5090E9482
:101650005303681979098A099B094AE00E94E6093F
:1016600082E291E00E94A5090E9453034B015C01B4
:101670004B9927C00E945303DC01CB0188199909BB
:10168000AA09BB0985369105A105B10588F38EE34A
:1016900091E00E94B7094AE0C701B6010E94E6093D
:1016A00089E491E00E94A5090E9453036819790911
:1016B0008A099B094AE00E94E60982E291E00E94C1
:1016C000A5098FEFC81AD80AE80AF80A84E6C816EE
:1016D000D104E104F10409F09ACF5C9882E00E9401
:1016E000270A0E947E0AC82ED12CE12CF12C0E94E0
:1016F0007E0AB82E0E947E0A90E0A0E0B0E0DC01F5
:10170000992788279B298C299D29AE29BF29809359
:10171000070590930805A0930905B0930A050E9458
:101720009F0A90930C0580930B050E949F0A90934B
:101730000E0580930D0540910B0550910C05849F7B
:101740009001859F300D949F300D1124309310052A
:1017500020930F0581E0FF90EF90DF90CF90BF9036
:10176000AF909F908F900895EF92FF920F931F93E9
:10177000CF93DF937C018B01EA0181E20E94270A6B
:101780000E949F0AF701918380830E949F0AF801BB
:10179000918380830E949F0A99838883C3E6D3E064
:1017A0001C2F105F0E947E0A89931C13FBCF10929E
:1017B0007303DF91CF911F910F91FF90EF900895E8
:1017C0008F929F92AF92BF92EF92FF920F931F93CF
:1017D000CF93DF937B018C01C0E0D0E0CE15DF0515
:1017E000C9F10E94530360936F0470937004809357
:1017F000710490937204E0916704F091680402848C
:10180000F385E02D87E694E0099597FF1EC00E94BE
:10181000530380906F0490907004A0907104B09076
:101820007204DC01CB0188199909AA09BB098090CF
:101830006B0490906C04A0906D04B0906E048815B9
:101840009905AA05BB05B8F205C0F80181938F017F
:101850002196C4CFCE01DF91CF911F910F91FF90C0
:10186000EF90BF90AF909F908F900895CF93DF93AC
:101870001F92CDB7DEB78FEF898361E070E0CE01B4
:1018800001960E94E00B89810F90DF91CF9108951E
:101890000F931F93FC016181862F90E0A0E0B0E0E0
:1018A0000027182F292F3A2F428150E060E070E086
:1018B000BA0155274427D901C801840F951FA61FD7
:1018C000B71F2081BC01CD01620F711D811D911DCB
:1018D0001F910F910895CF92DF92EF92FF920F9395
:1018E0001F93CF93DF93082FF62E142FE90161E0A9
:1018F00087E694E00E947801602F87E694E00E94DA
:1019000078016F2D87E694E00E947801612F87E6C9
:1019100094E00E9478011C27F1266C2F87E694E062
:101920000E9478016D2F87E694E00E947801FD26E1
:101930001F2D10278DE5E82E83E0F82EC35ADC4FCB
:10194000EC16FD0661F06701F70161917F0187E602
:1019500094E00E947801F60180811827F1CF612F71
:1019600087E694E0DF91CF911F910F91FF90EF9068
:10197000DF90CF900C947801E0916704F0916804B7
:101980000190F081E02D682F87E694E00994CF93D1
:10199000DF9300D000D000D0CDB7DEB7789484B507
:1019A000826084BD84B5816084BD85B5826085BD5B
:1019B00085B5816085BD80916E00816080936E00E9
:1019C00010928100809181008260809381008091DB
:1019D000810081608093810080918000816080938C
:1019E00080008091B10084608093B1008091B0004C
:1019F00081608093B00080917A00846080937A0047
:101A000080917A00826080937A0080917A00816070
:101A100080937A0080917A00806880937A00109297
:101A2000C10061E082E00E94F20262E083E00E9475
:101A3000F20261E084E00E94F20260E085E00E9430
:101A4000F20261E08DE00E94F202E0917704F091F1
:101A5000780482E08083E0917304F0917404108232
:101A6000E0917504F091760480E1808310927F0408
:101A7000E0917B04F0917C0486E08083E09179041E
:101A8000F0917A04808180618083E0917904F09103
:101A90007A04808188608083E0917904F0917A04EF
:101AA000808180688083E0917904F0917A0480815C
:101AB0008F7D808388EE93E0A0E0B0E080936B049C
:101AC00090936C04A0936D04B0936E048FE091E04A
:101AD0000E94B70980E090E00E94EB018EE20E9434
:101AE000BC0C81E090E00E94EB018FE20E94BC0CF4
:101AF0004AE061E070E080E090E00E94E60982E266
:101B000091E00E94A5090E94AD0A811105C086EFEF
:101B100090E00E94D80903C080E00E94270AADE54A
:101B20002A2EA3E03A2E83E693E0B0E1EB2EE80EF6
:101B30001BEA912E920C87E694E00E9441010597E2
:101B40000CF4F3C10E94360C813009F0EEC10E9402
:101B5000360C682E0E94360CF82E0E94360CD82EB9
:101B60000E94360C082F10E0102F00270D0D111DBC
:101B70000B3081E0180708F0D8C10032110588F455
:101B8000B8018DE593E00E94E00B7F2C762470264F
:101B90007126EDE5CE2EE3E0DE2E035A1C4FF60152
:101BA0001EC02D9AC12CD12C65E087E694E00E94DE
:101BB000780128014C185D0891E24916510418F08B
:101BC00070E2472E512CB201C601835A9C4F0E94ED
:101BD000E00BC40CD51CC016D10630F3D6CFE017ED
:101BE000F10719F081917826FACF0E94360C8715FB
:101BF00031F020E030E043E06F2D862D94C1E1E02C
:101C00006E1621F0F2E06F1651F18FC181E0F816E7
:101C100021F092E0F91669F018C0F0925D0310927D
:101C20005E03F0925F0382E08093600324E030E083
:101C300012C00E94AD0A81110CC08BE191E00E949C
:101C4000D80920E030E041E007C020E030E042E089
:101C500003C020E030E040E06F2D81E064C14F2CF4
:101C6000512C612C712CE4E24E16510408F048C14D
:101C7000F201EC5CFF4F0C94041080E00E94270AF4
:101C80009BC081E00E94270A0E947E0AF601819390
:101C90006F01882329F0FDE7CF16F3E0DF06A1F7F7
:101CA000F10101900020E9F731978F010D551340A4
:101CB0003FC1209107059091080580910905209367
:101CC0005D0390935E0380935F0390910B05809179
:101CD0000C05909360038093610390910D058091B2
:101CE0000E05909362038093630307E010E020C128
:101CF0008DE593E00E94480C2B013C01809160032C
:101D00000091610310E0102F0027080F111D80E1E2
:101D10000E94270AC301B2010E94590AC8010E9409
:101D20006F0AC801835A9C4F3C01C614D70409F4BA
:101D3000FFC00E947E0AF60181936F01F6CF8DE508
:101D400093E00E94480C2B013C012091600380919C
:101D5000610390E0982F88276C01C20ED11C82E1AC
:101D60000E94270AC301B2010E94590AC6010E94BB
:101D70006F0A00E010E00C151D05F1F0F801E35AC0
:101D8000FC4F85810E94270A0F5F1F4FF4CF8DE51E
:101D900093E00E94480C2B013C0184E107C08DE5D3
:101DA00093E00E94480C2B013C0185E10E94270A28
:101DB000C301B2010E94590A00E010E0B9C08DE5EC
:101DC00093E00E94480C5B016C0180E693E00E9466
:101DD000480C2B013C0186E10E94270AC601B5018F
:101DE0000E94590AC301B2010E94590A0E949F0A27
:101DF0008C010E949F0AA0E0B0E0DC0199278827AF
:101E0000A80160E070E0842B952BA62BB72B809364
:101E10005D0390935E03A0935F03B093600304E0BF
:101E200010E086C080E20E94270A0DE513E00E94C0
:101E30007E0AF80181938F019E12F9CF0BEA10E020
:101E400077C0AE014F5F5F4FBE016D5F7F4FCE0128
:101E500005960E94B40B8D819E8180935D039093C3
:101E60005E036B817C8160935F03709360034981A3
:101E70005A8140936103509362030E94B40B06E1C0
:101E800010E056C082E20E94270A0DE513E0F80137
:101E900081918F010E94270A9012F9CF8DCF8091F6
:101EA0005D0360905E03712C762C6624680E711CB5
:101EB00080915F03C0906003D12CDC2CCC24C80E31
:101EC000D11C809161030091620310E0102F002764
:101ED000080F111D83E20E94270AC3010E946F0AA6
:101EE000C6010E946F0AC8010E946F0A03E613E050
:101EF000F80181918F010E94270AE012F9CF5CCF8F
:101F000085E291E00E94A50940E1C301B2010E946F
:101F1000E60982E291E00E94A50900E010E042E0BB
:101F200098016F2D82E00E946B0C0E94E10103CEAC
:101F300040E0F6CFE7E6F4E01382128288EE93E009
:101F4000A0E0B0E084839583A683B78388E091E026
:101F50009183808385EC90E09587848784EC90E082
:101F60009787868780EC90E0918B808B81EC90E066
:101F7000938B828B82EC90E0958B848B86EC90E047
:101F8000978B868B118E128E138E148EE4E0F5E003
:101F900080E580831182E1E1F5E0158216821186E9
:101FA000138682E090E0A0E0B0E084879587A68762
:101FB000B78713A215A614A68AE191E093A782A77A
:101FC00017A60895A1E21A2EAA1BBB1BFD010DC086
:101FD000AA1FBB1FEE1FFF1FA217B307E407F507D9
:101FE00020F0A21BB30BE40BF50B661F771F881FB5
:101FF000991F1A9469F760957095809590959B014B
:10200000AC01BD01CF010895EE0FFF1F0590F491C3
:10201000E02D099481E090E0F8940C940F10F8946E
:02202000FFCFF0
:10202200FFFFFFFF000000007801E5001001BF0183
:1020320041011F013301000000006307E500CA02ED
:10204200C9020D0A002A6E6F7420696D706C656D8D
:10205200656E74656420002A726561642074696D1E
:0C206200656F7574204849474820000055
:00000001FF
