:100000000C944B020C9473020C9473020C947302C4
:100010000C9473020C9473020C9473020C9473028C
:100020000C9473020C9473020C9473020C9473027C
:100030000C9473020C9473020C9473020C9473026C
:100040000C94AB100C9473020C94C00F0C949A0F88
:100050000C9473020C9473020C9473020C9473024C
:100060000C9473020C94730241726475696E6F2074
:100070005461706563617274466C61736865722067
:100080005625642E25642F25640000000008000218
:1000900001000003040700000000000000002A65C2
:1000A00072726F72207374617274696E672074610A
:1000B000706563617274002A534420636172642026
:1000C0006661696C6564210066696E697368656460
:1000D0002C2074696D653D00777269746520253048
:1000E000366C780072656164202530366C780D00BE
:1000F0006572726F722077726974696E672027006B
:10010000544352542073697A653D256C78682C20DD
:100110004C6F6164657220696E666F3D2578682C4E
:10012000204C6F61646572206C656E6774683D2554
:1001300078682C204C6F616465722063616C6C611F
:100140006464723D2578682C2027007573696E679A
:100150002064656661756C74206C6F616465720003
:100160006E11D07818A010A20086C6A9272EF3031E
:10017000900209088501CAEAD0FC29DF8501CAD0AE
:10018000FD88D0E7A9308501A0FA20B20399B0FF1D
:10019000C8D0F720B20391AEE6AED002E6AFA5AE6E
:1001A000C5ACD0EFA6AFE4ADD0E9A0378401382EBE
:1001B00011D0862E8630852D852F582053E46CAAC9
:1001C00000A9102401D0FCA238A92786018500EAE5
:1001D000A50129184A4A45014A290FAAA50129184B
:1001E0004A4A45014A290F1DE303A22F8600E886EB
:1001F000016000102030405060708090A0B0C0D0EE
:10020000E0F0CA00000000000000007573696E672E
:10021000206C6F616465722066726F6D205443526A
:10022000542066696C6500544352542073697A65A2
:1002300020657863656564732063617274726964B4
:1002400067652073697A6500756E6B6E6F776E20D7
:10025000544352542076657273696F6E00696E76EE
:10026000616C69642054435254206865616465720E
:10027000007461706563617274496D6167650D0A30
:100280001A63686B73756D2066696E69736865645F
:100290002C20746F74616C2074696D653D00636817
:1002A00065636B73756D206572726F720063726344
:1002B000202530366C78202530366C780063616CF0
:1002C00063756C6174696E6720636865636B7375D1
:1002D0006D2E2E2E0077726974652066696E6973C3
:1002E0006865642C2074696D653D0077726974657A
:1002F000202530366C780077726974652025303699
:100300006C780D006572726F722072656164696E3F
:1003100067205443525420686561646572006572B9
:10032000726F722072656164696E672027005344A2
:100330002063617264206572726F72006572726F01
:10034000722073657474696E6720636F6D6D616E82
:1003500064206D6F6465006E616D653D256C786825
:100360002C207061676573697A653D2578682C205B
:10037000657261736570616765733D257868006EAD
:10038000616D653D00546170656361727420696ED2
:10039000666F3A002849296E69742C284629696CD1
:1003A00065732C285729726974652C285229656158
:1003B000642C285629657273696F6E000D0A726588
:1003C0006164696E67205461706563617274207442
:1003D0006F2027002720746F20546170656361725D
:1003E00074000D0A77726974696E67202700000037
:1003F0000000250028002B006E6F2073642D6361C0
:10040000726420646574656374656400746170650A
:1004100063617274206572726F72002A6E6F74204D
:10042000696D706C656D656E74656420002A657217
:10043000726F72207374617274696E672074617078
:10044000656361727420636F6D6D616E64206D6FA2
:1004500064650000000000240027002A0001020457
:100460000810204080010204081020010204081036
:10047000200404040404040404020202020202032D
:10048000030303030366696C656E616D653A2000C2
:10049000082008004C2611241FBECFEFD8E0DEBF95
:1004A000CDBF26E0A0E5B1E001C01D92A636B2079F
:1004B000E1F711E0A0E0B1E0EAEDF7E502C0059058
:1004C0000D92A035B107D9F712E0CBE4D2E004C019
:1004D0002197FE010E942A27CA34D107C9F70E943A
:1004E000731F0C94EB2B0C940000FC01848583FF9C
:1004F0000DC084A195A1A6A1B7A1448D558D668D8F
:10050000778D841B950BA60BB70B03C080E090E0A2
:10051000DC01811520E89207A105B10520F08FEFDD
:100520009FE7A0E0B0E00895089580E090E008958E
:100530003F924F925F926F927F928F929F92AF9273
:10054000BF92CF92DF92EF92FF920F931F93CF93C0
:10055000DF93CDB7DEB728970FB6F894DEBF0FBE96
:10056000CDBF4C01DC0112968C91129780681296D7
:100570008C9312971C964D905D906D907C901F9778
:100580001696AD90BC901797411451046104710404
:1005900061F4D50118968D919D910D90BC91A02D7F
:1005A0008D839E83AF83B88704C04D825E826F8245
:1005B0007886CD80DE80EF80F884BFEFCB1ADB0A2F
:1005C000EB0AFB0AF501808D918DA28DB38D8C1500
:1005D0009D05AE05BF0528F482E0C82ED12CE12C84
:1005E000F12C9E012F5F3F4FB701A601C5010E946C
:1005F000311387FD20C0882341F089819A81AB8126
:10060000BC81892B8A2B8B2B51F08D819E81AF81F0
:10061000B885C816D906EA06FB0679F60CC00FEFB6
:100620001FEF2FEF3FE0B701A601C5010E94BF12E7
:10063000382E811102C0312C1BC0411451046104B9
:10064000710451F097018601B301A201C5010E9416
:10065000BF12811108C0EFCFD5011896CD92DD925F
:10066000ED92FC921B97F401C486D586E686F78648
:10067000832D28960FB6F894DEBF0FBECDBFDF9155
:10068000CF911F910F91FF90EF90DF90CF90BF908F
:10069000AF909F908F907F906F905F904F903F9022
:1006A00008956115710579F0FB0101900020E9F7CB
:1006B0003197AF01461B570BDC01ED91FC91028095
:1006C000F381E02D099480E090E00895FC01AC01F5
:1006D000455F5F4F80E090E8899F90011124982F3B
:1006E0009695922B2191892F820FE417F50799F7A0
:1006F00008954F925F926F927F928F929F92AF92E6
:10070000BF92CF92DF92EF92FF920F931F93CF93FE
:10071000DF93EC014A015B014C845D846E847F842D
:10072000A881AA2309F491C0488959896A897B89DB
:1007300084169506A606B70609F48DC081149104A7
:10074000A104B10429F41C861D861E861F8678C06C
:10075000A3FF0BC0088D198D2A8D3B8D0815190537
:100760002A053B0508F471C014C0A5FF12C0EE8134
:10077000FF818681978125E0880F991F2A95E1F7EF
:10078000A0E0B0E088159905AA05BB0508F45DC096
:1007900057C0EE81FF81848190E009968A019B0118
:1007A0000150110921093109082E04C036952795F9
:1007B000179507950A94D2F775016401B1E0CB1A39
:1007C000D108E108F10804C0F694E794D794C794DF
:1007D0008A95D2F7C016D106E206F30620F0452B23
:1007E000462B472B81F4A6FF05C0848D958DA68DE1
:1007F000B78D04C08C8D9D8DAE8DBF8D8C879D87F0
:10080000AE87BF8704C0C01AD10AE20AF30A8E017C
:10081000045F1F4FC114D104E104F10489F04C8539
:100820005D856E857F8598018E819F810E94311341
:1008300091E0C91AD108E108F10818165CF305C067
:10084000888A998AAA8ABB8A06C04C865D866E868B
:100850007F8680E001C081E0DF91CF911F910F91F1
:10086000FF90EF90DF90CF90BF90AF909F908F90D0
:100870007F906F905F904F9008954F925F926F922C
:100880007F928F929F92AF92BF92CF92DF92EF9220
:10089000FF920F931F93CF93DF93EC014B018A01DB
:1008A00088818823D9F09A8190FF18C01DC0D38019
:1008B000D422A114B10409F081C0D1107FC0892BCA
:1008C0008A2B8B2B09F464C04C855D856E857F85F2
:1008D0009201CF010E94311387FF6AC08981826033
:1008E00089838FEF9FEFD3C083FF15C0888D998DCB
:1008F000AA8DBB8D488959896A897B89841B950B90
:10090000A60BB70BA80160E070E0481759076A070B
:100910007B07A0F012C085FF11C0EE81FF818681A8
:10092000978155E0880F991F5A95E1F728893989F1
:10093000821B930B8017910708F48C0178012E011C
:100940002CE0420E511C612C42E0742EE114F104A3
:1009500009F465C088899989AA89BB895C0121E06D
:10096000B2222881EE81FF81AC01BD0139E076958C
:100970006795579547953A95D1F725FF98CF848D80
:10098000958DA68DB78D480F591F6A1F7B1F34C0E8
:1009900026FF05C0848D958DA68DB78D04C08C8DE6
:1009A0009D8DAE8DBF8D8C879D87AE87BF8706C01E
:1009B000811104C08881807791F590CFEE81FF810D
:1009C0004C855D856E857F854250510961097109AD
:1009D000048004C0440F551F661F771F0A94D2F786
:1009E00080899189A289B389480F591F6A1F7B1F8B
:1009F0004D0D511D611D711DEE81FF81A114B104CA
:100A000071F5E11482E0F80650F183A194A1A5A14B
:100A1000B6A1481759076A077B0729F420C0C80107
:100A20008E199F0934C09401808191810E94DC114C
:100A3000882309F453CFC12C82E0D82E8C0C9D1C46
:100A400088899989AA89BB898C0D9D1DA11DB11D1D
:100A5000888B998BAA8BBB8BEC18FD0877CFC301D1
:100A60008A199B0967018E159F0508F46C0120E027
:100A7000CF0180960E947F12009709F42FCFBC010E
:100A80006A0D7B1DA601C4010E944129D7CFDF91C9
:100A9000CF911F910F91FF90EF90DF90CF90BF907B
:100AA000AF909F908F907F906F905F904F90089540
:100AB000FF920F931F93CF93DF931F92CDB7DEB7B3
:100AC0008C01FC0180899189A289B3899C01AD01C7
:100AD00075E056954795379527957A95D1F7F22F7A
:100AE000FF70FF2E11F0611116C041E050E0BE0111
:100AF0006F5F7F4FC8010E943D04813019F080E094
:100B000090E01AC0F80180899189A289B3894F9633
:100B1000A11DB11D04C08096A11DB11DF801808BDF
:100B2000918BA28BB38BF801868197818796F0E237
:100B3000FF9E800D911D11240F90DF91CF911F9189
:100B40000F91FF900895CF93DF931F92CDB7DEB73B
:100B500041E050E0BE016F5F7F4F0C960E943D0464
:100B6000019719F4898190E002C08FEF9FEF0F90F9
:100B7000DF91CF9108958F929F92AF92BF92CF92C3
:100B8000DF92EF92FF920F931F93CF93DF931F9209
:100B9000CDB7DEB78C01FC01848C958CA68CB78C0C
:100BA000C08CD18CE28CF38C41E050E0BE016F5FD1
:100BB0007F4F0C960E943D04019721F49981892F63
:100BC00090E002C08FEF9FEF8F3FFFEF9F0749F04C
:100BD000F801848E958EA68EB78EC08ED18EE28E51
:100BE000F38E0F90DF91CF911F910F91FF90EF90B7
:100BF000DF90CF90BF90AF909F908F900895FC01B1
:100C00008081811114C080E2DF01982F1D929A9596
:100C1000E9F777836683DB0115969C91903119F093
:100C2000903229F480E4808381E08283089580E01B
:100C300008958F929F92AF92BF92FF920F931F934E
:100C4000CF93DF93EC01F22E80E2DE011D928A95B4
:100C5000E9F7FB01868197819F838E835D834C83B7
:100C6000848C958CA68CB78C88869986AA86BB8640
:100C7000FA01EF70FF27DC01979635E0EE0FFF1FBA
:100C80003A95E1F7AD014E0F5F1FDA011B962C91EB
:100C900023FF03C0188280E063C09C012E0F3F1F1A
:100CA000D901D2962C9127712883DA011B963C91A9
:100CB000387111F4286028830B832F2D227319F0CB
:100CC0002881217139F72F2D2F702A83DC0193960B
:100CD0004D915D916D917C9196974C8B5D8B6E8B58
:100CE0007F8BE80FF91F43AD54AD60E070E0BA01AF
:100CF00055274427DF01AF5BBF4F0D911C9120E0CA
:100D000030E0402B512B622B732BF4FE0AC04115AF
:100D1000510561057105F9F00E94B01381111BC0E6
:100D2000B9CF4C8F5D8F6E8F7F8FED5BFF4F8081D2
:100D30009181A281B381888F998FAA8FBB8FF5FE95
:100D40000EC0488D598D6A8D7B8DCE010E9479032E
:100D5000811105C09FCF8A8180688A83F0CF81E0AE
:100D6000DF91CF911F910F91FF90BF90AF909F9017
:100D70008F9008952F923F924F925F926F927F9241
:100D80008F929F92AF92BF92CF92DF92EF92FF929B
:100D90000F931F93CF93DF93CDB7DEB72D970FB689
:100DA000F894DEBF0FBECDBF8C017B01FA014181FB
:100DB00052815A834983DB018C91807709F4E2C226
:100DC000D8018C918111DEC29081937009F4CEC25A
:100DD00089819A810C966DE070E00E94F426882447
:100DE0008394860E2F831F01FD86EC861A87098760
:100DF00040E050E0BA01C7010E947903E12CB12C18
:100E0000F12C912C10E000E018866101B6E0CB0EC9
:100E1000D11C9DE0A92EAC85BD8550964D905D906E
:100E20006D907C905397A301920185E0569547956C
:100E3000379527958A95D1F72B833C834D835E8325
:100E40004B805C8061E0CD010E945805009741F421
:100E5000AC85BD8511968C91882309F495C092C20A
:100E6000FC012081253E11F021110AC0111102C0A0
:100E7000EB80BC80181508F41F5F211105C084C0E9
:100E8000181508F476C202C0253EF1F12E32E1F1C8
:100E9000DC011B963C911B973F3009F056C00111B5
:100EA00008C026FFB8CF022F0F711D96FC90902E20
:100EB00007C09A94291128C0FC012585F21224C08C
:100EC000492D50E041505109A49E9001A59E300D3E
:100ED000112449815A8124173507B0F4FC0160E0E0
:100EE000653018F48181928107C06B3018F48481D9
:100EF000958102C086819781A981BA812A173B0713
:100F000029F4892B09F487CF00E085CF8F3F910525
:100F100009F0D0F74FEB480F4A3110F0782F02C09C
:100F200070E2780FC9010196D10113964D915C9141
:100F30001497DA01A20FB31F2C913FEB320F3A3115
:100F400008F4205E7213E0CF16C233FDDDCF00231C
:100F500041F0B1E09B1216C20E9466038F1112C2CB
:100F60000FC04BE050E0B6010E943429892B09F0F4
:100F700052CFF101808180FF03C0E1E0E8874BCFD1
:100F8000FF81F7FFEAC1FEC18F818274823409F0CC
:100F9000F9C1112359F04E2C5B2C08C060E08C8500
:100FA0009D850E945805892B21F01F5F1815B0F30D
:100FB00006C0AC85BD8511968C918111E3C1612C71
:100FC000F2E07F2E72C0EC85FD85808185FDDAC15F
:100FD00080899189A289B38981159E4FAF41B1055E
:100FE00008F0D0C18C859D850E949802882309F461
:100FF000C9C1AC85BD851696ED91FC9117971C96DD
:10100000CD90DD90ED90FC901F97B2E0CB1AD10807
:10101000E108F108048004C0CC0CDD1CEE1CFF1CB0
:101020000A94D2F780899189A289B389C80ED91E02
:10103000EA1EFB1E25E0B701A601CF0180960E94A3
:101040007F125C01009709F49DC1FC01930111928C
:1010500021503040E1F701E0EC85FD850680F78105
:10106000E02DFC83EB838281081718F190E0A0E06B
:10107000B0E0E9E0880F991FAA1FBB1FEA95D1F7DE
:10108000EC85FD854089518962897389840F951F9C
:10109000A61FB71F808B918BA28BB38BAB81BC81BA
:1010A00012968C918230B8F4105F181508F48BCF2B
:1010B00012C09501B701A601400F511D611D711DA0
:1010C000AB81BC818D919C910E947711882309F49A
:1010D00059C10F5FC1CFB885BB2309F475C0F101B9
:1010E000D58002E010E07EE7C72E7101F6E0EF0E3A
:1010F000F11C42C0B3E0BD1510F453E0D52E94E0CE
:101100009D0D822F8F70E92FF0E08A3008F055C0D6
:10111000805DE20DF31D868344E0369527954A9560
:10112000E1F79150D91668F3F101ED0DF11DC6827A
:1011300040E050E0BA018C859D850E94790361E012
:101140008C859D850E9458050097C9F1DC012C9182
:101150002223D1F11B962C9123FDF1CF4BE050E0DF
:10116000BC01C7010E943429892B49F70F5F1F4F2B
:101170000436110509F406C1D10111964D915C9117
:1011800012979801240F351F1396ED91FC91149737
:101190004E0F5F1FE417F50709F4ACCFC90165E0F6
:1011A000880F991F6A95E1F7280F391F8191082E42
:1011B000000C990B28273927EDCF895CAACFEC8545
:1011C000FD8581818111DEC0A20160E070E025E033
:1011D000440F551F661F771F2A95D1F78C859D8573
:1011E0000E947903882309F4CDC00FEF080DA02ECB
:1011F0001FE06101B6E0CB0ED11C9DE0B92EAA2004
:1012000009F461C060E08C859D850E9458057C01D1
:10121000892B09F4B7C0AC85BD851696ED91FC917C
:10122000179780A1816080A32A2DA01201C020649D
:10123000F701208313871486C6012B870E9466035B
:10124000D7011D968C931D975B961C921E925A9700
:10125000F101438154812B852F7130E021503109F8
:10126000B29EC001B39E900D1124F70160E0298168
:101270003A818217930740F4DA01A80FB91F2C9125
:10128000022E000C330B0CC021E030E0A981BA81A2
:101290008A179B0711F420E030E031952195310940
:1012A000653018F43283218307C06B3018F435831E
:1012B000248302C0378326836F5F019632966D3098
:1012C000B1F6AA949CCFEC85FD854089518962894D
:1012D000738985E076956795579547958A95D1F7F7
:1012E0002A0160E0CF010E945805009709F44AC026
:1012F00020E2DC011D922A95E9F7F10136962BE0F8
:10130000DC0101900D922A95E1F7F101208128710D
:10131000DC011C962C931C9721E238E251963C93F9
:101320002E93509740E058E01F965C934E931E9783
:1013300053963C932E93529759963C932E935897DD
:1013400057965C934E935697AC85BD851696ED9156
:10135000FC91179780A1816080A32F81A2016C85E9
:101360007D8589859A850E9419060DC088248394FD
:1013700039CD10E08BCD6F5F32966D3009F44BCDD7
:101380009C01AECD80E02D960FB6F894DEBF0FBE67
:10139000CDBFDF91CF911F910F91FF90EF90DF9024
:1013A000CF90BF90AF909F908F907F906F905F9005
:1013B0004F903F902F900895CF93DF93EC01262F0D
:1013C0004C895D896E897F898E819F8180960E947C
:1013D0007F12009761F02C813D812F70332745E00B
:1013E000220F331F4A95E1F7820F931F02C080E05E
:1013F00090E0DF91CF910895CF93DF93FC0120819E
:10140000211102C081E031C0EC01828187FF25C03B
:1014100061E0CF010E94DC09FC01892B29F489815C
:101420008160898380E021C08081853EC1F388810D
:1014300083FF08C0888D998DAA8DBB8D848F958F71
:10144000A68FB78F8C8D9D8DAE8DBF8D938F828F24
:10145000B58BA48B8A818F778A838E819F818096BA
:101460000E943C128823D9F2CDCFDF91CF9108950D
:101470002F923F924F925F926F927F928F929F92A4
:10148000AF92BF92CF92DF92EF92FF920F931F9392
:10149000CF93DF93EC015B014A01888183FF0EC08B
:1014A0008A8181FF0BC082FF0FC0488D598D6A8DE4
:1014B0007B8DCE010E947903811106C089818160F4
:1014C00089838FEF9FEF08C1A40160E070E08889F5
:1014D0009989AA89BB8980959095A095B095841724
:1014E0009507A607B70750F364011E018CE0280E8C
:1014F000311C088919892A893B89C114D10409F44E
:10150000D0C08E819F81B901A80129E076956795A9
:10151000579547952A95D1F7DC011396FC90F42254
:101520001170F11034C00115110589F54C855D85E8
:101530006E857F85411551056105710569F0910141
:101540000E94311387FDBACF811121C0CE010E94C4
:10155000980281111CC0B2CF8C8D9D8DAE8DBF8D38
:101560000097A105B10579F4CE010E949802882365
:1015700009F4A4CF8C859D85AE85BF858C8F9D8F0A
:10158000AE8FBF8F04C08C879D87AE87BF87EE81EB
:10159000FF814C855D856E857F85425051096109CB
:1015A0007109048004C0440F551F661F771F0A94F9
:1015B000D2F780899189A289B389480F591F6A1F80
:1015C0007B1F4F0D511D611D711D0115110521F46A
:1015D000C114B2E0DB06B0F580E092E0801B910B15
:1015E00076018C159D0508F47C010115110579F42F
:1015F000488859886A887B88888D998DAA8DBB8D8B
:10160000481659066A067B0610F025E001C021E065
:10161000CF0180960E947F12009709F44FCFA70157
:10162000B501800F911F0E9441290E0D1F1D01154C
:10163000124031F58E819F8180960E943C1281116B
:101640001FC03CCF83A194A1A5A1B6A18417950783
:10165000A607B70741F410A28FEF9FEFDC0183A329
:1016600094A3A5A3B6A3EE81FF819501808191810A
:101670000E947711882309F421CFE12C82E0F82E13
:1016800088899989AA89BB898E0D9F1DA11DB11DCD
:10169000888B998BAA8BBB8BAE0CBF1CCE18DF0836
:1016A00028CF888D998DAA8DBB8D80179107A207B1
:1016B000B30738F4088F198F2A8F3B8F8A8180688F
:1016C0008A838A8183FD02C0C40106C0CE010E94C4
:1016D000FC098111F9CFF2CEDF91CF911F910F91CB
:1016E000FF90EF90DF90CF90BF90AF909F908F9042
:1016F0007F906F905F904F903F902F9008950C9641
:101700000C94380ACF93DF931F92CDB7DEB769836D
:1017100041E050E0BE016F5F7F4F0C960E94380A97
:101720000F90DF91CF910895CF93DF93EC010E944A
:10173000FC091882DF91CF9108952F923F924F922A
:101740005F926F927F928F929F92AF92BF92CF9251
:10175000DF92EF92FF920F931F93CF93DF93CDB75A
:10176000DEB7E4970FB6F894DEBF0FBECDBF6C01B5
:101770007A01922E19821A82DC018C9181116BC13F
:10178000FB018081807709F466C1FA0180818F3284
:10179000C9F47F0181918F32E1F3DB0116966D91DF
:1017A0007C911797811104C0C6010E94FF0558C1A2
:1017B000CE0101960E94FF05882309F44CC1BE01A9
:1017C0006F5F7F4F5E01B2E3AB0EB11CF7012FEFED
:1017D000E21AF20A80818032C9F3FDA3ECA3DF0193
:1017E0009D012E1B3F0B8D918823D9F08F32C9F0BC
:1017F0008C3509F430C1982F977F923209F42BC1B0
:101800008A3309F428C1982F9F7B9C3309F423C1A4
:1018100092EC980F923008F41EC180528F3500F37D
:101820001AC1AF01420F531FCA017C01DC012D9187
:10183000CD012AAB2032C9F32F32B9F39A012E1B06
:101840003F0B4E175F0741F0DA019E91AD019E32CA
:10185000A9F3903299F303C080E090E006C0C9017B
:101860002F3F310511F00CF0F6C09BA38AA3DE01D7
:10187000979620E22D93AA15BB05D9F7DF019D01AC
:101880002E1B3F0B4D914E32D1F34032C1F33CAB96
:101890002BAB51E0232B09F050E08C0101501109D2
:1018A00038F09F01200F311FD9012C912E32B1F752
:1018B0006EA027E0722E312C512C812C38E0432E63
:1018C000ABA9BCA9A817B9070CF080C02BA93CA9EB
:1018D0002E0F3F1FD9014C91403209F460C04E32A7
:1018E00039F42BA93CA90217130709F058C004C00A
:1018F0004232A1F04C3791F026ED240F263010F43F
:101900004D3261F426EC240F263040F025EA240FF6
:10191000233020F02FED240F2E3530F0ABA9BCA9D9
:10192000A017B10781F43FC02BA93CA920173107AC
:10193000D1F1731410F1242F3FE9340F3A3140F400
:101940004052842809C07314C0F050E04FE52FE5E1
:1019500021542A3108F4542822242394230C27E20A
:1019600030E02C0F3D1F230D311DD9014C93B6E003
:10197000B215B8F0622C322C22C03AE0731609F48A
:101980006CC0ABA9BCA90A171B070CF466C01CAB42
:101990000BAB5AE0752EA8E03A2EB0E14B2E50E08A
:1019A0000EC0322C0CC02AE0721609F456C01CABD3
:1019B0000BAB2AE0722E38E0332E40E1442E2BA9E7
:1019C0003CA92F5F3F4F3CAB2BAB7ACF6EA28FA1D0
:1019D000803209F440C0552339F0582011F4882D85
:1019E00001C082E089A314C081E089A38EA190E0A8
:1019F000E7E2F0E0EC0FFD1FE80FF91F2EE7208370
:101A0000E8E2F0E0EC0FFD1FE80FF91F21E320836F
:101A1000FAA9FF23C1F021E0AE014F5D5F4FC6017F
:101A20000E94BA068823B9F0F601DE01119680E221
:101A300001900D928A95E1F7C6010E94940BBE01B8
:101A40006F5F7F4FC3CE292DAE014F5D5F4FC60143
:101A50000E94BA0605C080E003C06EA250E0B7CF76
:101A6000E4960FB6F894DEBF0FBECDBFDF91CF91E5
:101A70001F910F91FF90EF90DF90CF90BF90AF90AC
:101A80009F908F907F906F905F904F903F902F909E
:101A900008950C960C94FC09CF93DF931F92CDB759
:101AA000DEB78FEF898361E070E0CE0101960E947E
:101AB0003C1A89810F90DF91CF910895CF93DF93E6
:101AC00000D000D000D0CDB7DEB768E670E0CE0120
:101AD00001960E94A20E1F9282E08F931F9285E0D2
:101AE0008F931F921F928A818F9389818F9380E5B4
:101AF00091E09F938F930E944A29CE0101960E9404
:101B00009D0E60E571E085E693E00E94370F0FB609
:101B1000F894DEBF0FBECDBF26960FB6F894DEBF99
:101B20000FBECDBFDF91CF910895CF92DF92EF929C
:101B3000FF920F931F93CF93DF936C017A018B0178
:101B4000C0E0D0E0CE15DF0589F0D8016D918D01A0
:101B5000D601ED91FC910190F081E02DC60109952F
:101B6000892B11F47E0102C02196ECCFC701DF91D1
:101B7000CF911F910F91FF90EF90DF90CF9008953C
:101B8000FC01538D448D252F30E0842F90E0821B83
:101B9000930B541710F0CF96089501970895FC0108
:101BA000918D828D981761F0828DDF01A80FB11D94
:101BB0005D968C91928D9F5F9F73928F90E00895B8
:101BC0008FEF9FEF0895FC01918D828D981731F072
:101BD000828DE80FF11D858D90E008958FEF9FEFC6
:101BE0000895FC01918D228D892F90E0805C9F4F9C
:101BF000821B91098F739927089585E693E00E94CF
:101C0000F10D21E0892B09F420E0822F0895FC01D9
:101C1000848DDF01A80FB11DA35ABF4F2C91848D75
:101C200090E001968F739927848FA689B7892C93AA
:101C3000A089B1898C9180648C93938D848D981345
:101C400006C00288F389E02D80818F7D808308950E
:101C5000EF92FF920F931F93CF93DF93EC0181E0FC
:101C6000888F9B8D8C8D981305C0E889F9898081B8
:101C700085FD24C0F62E0B8D10E00F5F1F4F0F73F4
:101C80001127E02E8C8DE8120CC00FB607FCFACF9E
:101C9000E889F989808185FFF5CFCE010E94070E82
:101CA000F1CF8B8DFE01E80FF11DE35AFF4FF0825B
:101CB0000B8FEA89FB898081806207C0EE89FF89EA
:101CC0006083E889F98980818064808381E090E085
:101CD000DF91CF911F910F91FF90EF900895CF93D7
:101CE000DF93EC01888D8823C9F0EA89FB89808124
:101CF00085FD05C0A889B9898C9186FD0FC00FB6F6
:101D000007FCF5CF808185FFF2CFA889B9898C9136
:101D100085FFEDCFCE010E94070EE7CFDF91CF9177
:101D2000089580E090E0892B29F00E94FD0D81113B
:101D30000C94000008950E942729FC018081918164
:101D40000C94C527EF92FF920F931F93CF93DF93CD
:101D5000EC01198218821B821A821D821C82611575
:101D6000710589F18B01CB010E94A8267C01BC0181
:101D70006F5F7F4F80E090E00E945D28009759F0F0
:101D800099838883FB82EA822C813D81232B81F415
:101D9000FC0110820DC088819981009711F00E948A
:101DA000C527198218821D821C821B821A820BC0D1
:101DB000FD82EC82B801DF91CF911F910F91FF90CE
:101DC000EF900C94A126DF91CF911F910F91FF907E
:101DD000EF9008954F925F926F927F92EF92FF92F1
:101DE0000F931F93CF93DF93CDB7DEB7A1970FB6B5
:101DF000F894DEBF0FBECDBF7C01FA01CB0119A262
:101E0000223008F42AE08E010F5D1F4F422E512C24
:101E1000612C712CBF01A30192010E940827F901D6
:101E2000CA01015011096A3014F4605D01C0695C97
:101E3000D8016C93232B242B252B61F7B801C70104
:101E40000E945103A1960FB6F894DEBF0FBECDBF1E
:101E5000DF91CF911F910F91FF90EF907F906F9046
:101E60005F904F9008956DE471E00C9451030F93CF
:101E70001F93CF93DF93EC010E9451038C01CE019D
:101E80000E94330F800F911FDF91CF911F910F910F
:101E90000895DC01ED91FC910190F081E02D099411
:101EA0000F931F93CF93DF93EC010E94490F8C0196
:101EB000CE010E94330F800F911FDF91CF911F91B0
:101EC0000F9108950C945103EF92FF920F931F937B
:101ED000CF93DF938C017B01C0E0D0E0F701EC0FE2
:101EE000FD1F6491662361F0D801ED91FC91019092
:101EF000F081E02DC8010995892B11F02196EECFD4
:101F0000CE01DF91CF911F910F91FF90EF90089537
:101F10000F931F93CF93DF93EC010E94640F8C010A
:101F2000CE010E94330F800F911FDF91CF911F913F
:101F30000F9108951F920F920FB60F9211242F93B5
:101F40003F934F935F936F937F938F939F93AF9341
:101F5000BF93EF93FF9385E693E00E94070EFF91F6
:101F6000EF91BF91AF919F918F917F916F915F9111
:101F70004F913F912F910F900FBE0F901F9018958A
:101F80001F920F920FB60F9211242F938F939F934E
:101F9000EF93FF93E0917503F09176038081E091D8
:101FA0007B03F0917C0382FD12C0908180917E03BF
:101FB0008F5F8F7320917F03821751F0E0917E0332
:101FC000F0E0EB59FC4F958F80937E0301C0808138
:101FD000FF91EF919F918F912F910F900FBE0F90D6
:101FE0001F90189590E0FC01E657FF4F3491FC01DB
:101FF000E35AFB4F2491FC01EF58FB4FE491EE2391
:1020000009F43BC0332339F1333091F038F43130E7
:10201000A9F0323001F584B58F7D12C0373091F0D0
:102020003830A1F03430B9F4809180008F7D03C046
:10203000809180008F77809380000DC084B58F776A
:1020400084BD09C08091B0008F7703C08091B0003B
:102050008F7D8093B000F0E0EE0FFF1FE251FC4F48
:10206000A591B4918FB7F894EC91611103C02095BC
:102070002E2301C02E2B2C938FBF0895CF93DF9377
:1020800090E0FC01E35AFB4F2491FC01EF58FB4F19
:102090008491882361F190E0880F991FFC01ED5A2B
:1020A000FB4FC591D491FC01E251FC4FA591B49135
:1020B000611109C09FB7F894888120958223888395
:1020C000EC912E230BC0623061F49FB7F8943881F5
:1020D000822F809583238883EC912E2B2C939FBF96
:1020E00006C08FB7F894E8812E2B28838FBFDF912D
:1020F000CF9108953FB7F89480915602909157027E
:10210000A0915802B091590226B5A89B05C02F3F57
:1021100019F00196A11DB11D3FBFBA2FA92F982F0D
:102120008827820F911DA11DB11DBC01CD0142E088
:10213000660F771F881F991F4A95D1F708952FB70B
:10214000F8946091520270915302809154029091E0
:1021500055022FBF08951F920F920FB60F921124B0
:102160002F933F938F939F93AF93BF93809152028E
:1021700090915302A0915402B091550230915102B6
:1021800023E0230F2D3720F40196A11DB11D05C0BA
:1021900026E8230F0296A11DB11D209351028093C2
:1021A000520290935302A0935402B093550280912F
:1021B000560290915702A0915802B091590201968F
:1021C000A11DB11D8093560290935702A09358020F
:1021D000B0935902BF91AF919F918F913F912F91F1
:1021E0000F900FBE0F901F9018958EBD0DB407FE77
:1021F000FDCF08958FEF8EBD0DB407FEFDCF8EB5D8
:102200000895CF93DF93FC012381222361F0EC0139
:102210000180F281E02D61E082810E94F20F8FEF58
:102220000E94F5101B82DF91CF910895CF93DF9329
:10223000FC012381211110C0EC010180F281E02D0D
:10224000908181819CBD8DBDE981FA8160E08281B0
:102250000E94F20F81E08B83DF91CF910895EF927E
:10226000FF921F93CF93DF9300D000D0CDB7DEB79E
:102270007C01162F29833A834B835C83FC01838185
:10228000811103C0C7010E9416110E94E216812F1E
:1022900080640E94F5108C810E94F5108B810E9451
:1022A000F5108A810E94F51089810E94F510112392
:1022B00011F087E801C085E90E94F5101C3011F487
:1022C0000E94FA1010E00E94FA10F701848387FF41
:1022D00004C01F3F11F01F5FF6CF0F900F900F90BB
:1022E0000F90DF91CF911F91FF90EF9008950F9382
:1022F0001F93CF93DF93EC0189018D81833039F0F7
:1023000089E0440F551F661F771F8A95D1F79A0100
:10231000AB0168E1CE010E942F11882311F082E306
:102320002DC08EEF0E94F510F80180818EBD818155
:1023300032961E5F0DB407FEFDCF8EBDE017F1078C
:1023400011F08191F7CF0DB407FEFDCF8FEF0E9402
:10235000F5108FEF0E94F5100E94FA108C838F7198
:10236000853031F087E58883CE010E94011107C0D6
:102370000E94E216182F811107C08AE58883CE01DA
:102380000E94011110E012C020E030E0A9016DE0D0
:10239000CE010E942F11811104C00E94FA108823DF
:1023A00011F089E2EBCFCE010E940111812FDF9164
:1023B000CF911F910F910895EF92FF920F931F936A
:1023C000CF93DF93EC0179018D81833039F089E07F
:1023D000440F551F661F771F8A95D1F79A01AB01ED
:1023E00061E1CE010E942F11882319F080E38883D8
:1023F00038C00E949F108B010E94FA108C838F3F7F
:1024000049F40E949F10601B710B6D327140A0F364
:1024100085E503C08E3F31F080E58883CE010E94C0
:1024200001111FC08FEF8EBDF701D701A150BE4F24
:102430009FEF0DB407FEFDCF8EB59EBD8193EA17C9
:10244000FB07B9F70DB407FEFDCF8EB58C931C8248
:102450000E94FA100E94FA10CE010E94011181E040
:1024600004C0CE010E94011180E0DF91CF911F9145
:102470000F91FF90EF900895EF92FF921F93CF93EB
:10248000DF93FC01208120FF32C0EC017C01F7E0EA
:10249000EF0EF11C4B815C816D817E81E981FA81B7
:1024A0009701808191810E947711182F811102C0BC
:1024B00010E01EC0888181FD04C088818E7F8883E2
:1024C00017C0E981FA8144855585668577858B81BA
:1024D0009C81AD81BE81480F591F6A1F7B1F9701E8
:1024E000808191810E9477118111E7CFE1CF11E0C6
:1024F000812FDF91CF911F91FF90EF900895CF92A0
:10250000DF92EF92FF921F93CF93DF93EC016A016A
:102510007B01122F8B819C81AD81BE818417950731
:10252000A607B707F1F0CE010E943C12811103C04B
:1025300080E090E01CC012FF06C01882CB82DC82D3
:10254000ED82FE820EC0E981FA819E01295F3F4F34
:10255000B701A601808191810E94DC118111EDCF2C
:10256000E7CF13708881182B1883CE010796DF916F
:10257000CF911F91FF90EF90DF90CF9008958F92B1
:102580009F92AF92BF92CF92DF92EF92FF920F9302
:102590001F936A017B0148015901423051056105D1
:1025A000710510F480E052C0FC01408D518D628DA8
:1025B000738D4C155D056E057F05A0F325812032D6
:1025C00041F5448955896689778997018601E7E055
:1025D0003695279517950795EA95D1F7400F511F26
:1025E000621F731F23E080960E947F120097D1F232
:1025F000E894C7F8DD24EE24FF24CC0CDD1CCC0CC1
:10260000DD1CFC01EC0DFD1D80829182A282B38253
:102610001CC0203139F6FC014489558966897789C7
:102620004D0D511D611D711D23E080960E947F128A
:10263000009709F4B7CFDD24EE24FF24CC0CDD1C79
:10264000FC01EC0DFD1D9182808281E01F910F91B4
:10265000FF90EF90DF90CF90BF90AF909F908F90C2
:102660000895CF92DF92EF92FF920F931F93CF9333
:10267000DF93EC016A017B0189014230510561055C
:10268000710510F48FEF63C0888D998DAA8DBB8D75
:1026900084179507A607B707A8F38D81803241F507
:1026A0008C899D89AE89BF89E7E0769567955795B6
:1026B0004795EA95D1F7480F591F6A1F7B1F22E003
:1026C000CE0180960E947F120097E1F2E894C7F84D
:1026D000DD24EE24FF24CC0CDD1CCC0CDD1CFC0125
:1026E000EC0DFD1D80819181A281B381BF701EC060
:1026F000803141F64C895D896E897F894D0D511D70
:10270000611D711D22E0CE0180960E947F1200970C
:1027100009F4B8CFDD24EE24FF24CC0CDD1CFC0131
:10272000EC0DFD1D80819181A0E0B0E0488D598DB8
:102730006A8D7B8D481759076A077B0738F0F801C7
:1027400080839183A283B38381E001C080E0DF9125
:10275000CF911F910F91FF90EF90DF90CF90089550
:102760009F92AF92BF92CF92DF92EF92FF920F9320
:102770001F93CF93DF9300D000D0CDB7DEB75C01BD
:102780006A017B019E012F5F3F4FB701A601C50182
:102790000E943113982E87FF02C080E01EC000E027
:1027A00010E09801B701A601C5010E94BF1288235D
:1027B000A1F3F5014085518562857385C416D50660
:1027C000E606F70620F4C086D186E286F386C98045
:1027D000DA80EB80FC809110D5CF0F900F900F9096
:1027E0000F90DF91CF911F910F91FF90EF90DF90AD
:1027F000CF90BF90AF909F900895F8944D9BFECFDF
:102800005C9AE3E0F0E03197F1F798E027E030E000
:1028100043E050E05C98F9013197F1F75C9AFA01D6
:102820003197F1F7880F4D998160915099F75C9835
:10283000E3E0F0E03197F1F778940895CF93DF93D8
:102840000E94FD13C82FD0E00E94FD139E01382B7B
:10285000C901DF91CF910895CF92DF92EF92FF925D
:102860000E947A106B017C010E947A10DC01CB017E
:102870008C199D09AE09BF09883E9340A105B10599
:1028800098F3FF90EF90DF90CF900895CF93C82FEB
:10289000F8944D9BFECF61E085E00E943E1098E0E9
:1028A00043E050E027E030E0C7FF02C05D9A01C07E
:1028B0005D98CC0FFA013197F1F75C9AF9013197E5
:1028C000F1F75C98F9013197F1F7915069F75D9A4A
:1028D00083E090E00197F1F75D9860E085E00E9469
:1028E0003E1083E290E00197F1F77894CF9108953C
:1028F000CF93DF931F92CDB7DEB799830E94461422
:102900009981892F0F90DF91CF910C944614EF920B
:10291000FF920F931F93CF93DF931F92CDB7DEB734
:10292000182F82E299830E944614E12E9981F92E94
:10293000870105551F4FF70181917F010E944614C1
:10294000E016F106C1F70F90DF91CF911F910F9123
:10295000FF90EF9008951F93CF93DF931F92CDB711
:10296000DEB7182F862F79830E9446147981872F2E
:102970000E944614812F0F90DF91CF911F910C94EC
:102980004614CF92DF92EF92FF920F931F93CF9353
:10299000DF9300D0CDB7DEB76B017C018A0182E105
:1029A00029833A830E944614C701B6010E94AB14E2
:1029B000C8010E9478142981E22E3A81F32E0E0D6F
:1029C0001F1DE016F10631F0F70181917F010E9491
:1029D0004614F7CF0F900F90DF91CF911F910F9179
:1029E000FF90EF90DF90CF900895CF92DF92EF921B
:1029F000FF920F931F93CF93DF9300D0CDB7DEB735
:102A00007C018B016A0183E229833A830E94461488
:102A1000C7010E947814C8010E947814C6010E9460
:102A200078142981E22E3A81F32E8701005F1F4F2F
:102A3000F70181917F010E944614E016F106C1F76B
:102A40000F900F90DF91CF911F910F91FF90EF901A
:102A5000DF90CF900895CF93DF9381E00E944614DA
:102A6000CBE5D2E00E94FD138993882321F082E018
:102A7000CB37D807B9F7DF91CF910895CF92DF9286
:102A8000EF92FF920F931F93CF93DF936B017C0123
:102A9000EA0180E10E944614C701B6010E94AB140E
:102AA000CE010E9478140BE512E0C55ADD4F0C17D9
:102AB0001D0731F00E94FD13F80181938F01F7CFBC
:102AC000DF91CF911F910F91FF90EF90DF90CF900A
:102AD0000895EF92FF920F931F93CF93DF931F926E
:102AE000CDB7DEB7182F80E299830E944614E12EFD
:102AF0009981F92E870105551F4F0E94FD13F7019B
:102B000081937F01E017F107C1F70F90DF91CF911B
:102B10001F910F91FF90EF900895CF92DF92EF9267
:102B2000FF92CF93DF935C985A9A0E942C140E94D4
:102B30009F106B017C014D9B0DC00E949F10DC011A
:102B4000CB018C199D09AE09BF090B97A105B105F1
:102B500090F361C05A980E942C1480E122EE3CEF61
:102B60004BEC57E037FF02C05C9A01C05C98220F23
:102B7000331FFA013197F1F75A9AFA013197F1F7B9
:102B80005A98815079F70E942C145C9A0E949F10E9
:102B90006B017C014D990DC00E949F10DC01CB019F
:102BA0008C199D09AE09BF09C397A105B10590F322
:102BB00032C00E942C14D4E6C0E00E949F106B012A
:102BC0007C014B9B0EC00E949F10DC01CB018C1935
:102BD0009D09AE09BF0985369105A105B10588F3A8
:102BE000C0E00E949F106B017C014B990EC00E94B7
:102BF0009F10DC01CB018C199D09AE09BF098536F8
:102C00009105A105B10588F3C0E0CF5FD150A9F6C9
:102C10005C98CB3020F410925E0680E03FC082E0EA
:102C20000E9446140E94FD13C82ED12CE12CF12CD9
:102C30000E94FD13C82F0E94FD1390E0A0E0B0E0B9
:102C4000DC01992788279C2B8C299D29AE29BF2937
:102C50008093540690935506A0935606B09357065A
:102C60000E941E1490935906809358060E941E14C9
:102C700090935B0680935A064091580650915906EE
:102C8000849F9001859F300D949F300D11243093C7
:102C90005D0620935C0681E080935E06DF91CF9114
:102CA000FF90EF90DF90CF900895CF92DF92EF9258
:102CB000FF92CF93DF9300D000D0CDB7DEB76B018A
:102CC0007C0186E129833A834B835C830E9446140E
:102CD000C701B6010E94AB1429813A814B815C8106
:102CE000CA01B9010E94AB140E941E146C01E12CB0
:102CF000F12C0E941E14A0E0B0E0DC019927882787
:102D0000BC01CD016C297D298E299F290F900F9040
:102D10000F900F90DF91CF91FF90EF90DF90CF90C9
:102D20000895CF92DF92EF92FF920F931F93CF936C
:102D3000DF936C017B018A01E90181E20E94461464
:102D40000E941E14F601918380830E941E14F701D5
:102D5000918380830E941E14F801918380838E01E9
:102D60007E01F0E1EF0EF11C0E94FD13F80181934A
:102D70008F01EE15FF05C1F7188ADF91CF911F91E2
:102D80000F91FF90EF90DF90CF900895CF93C09177
:102D90005E06C11106C06CE074E085E693E00E9417
:102DA000880F8C2FCF910895CF93C0915A02C111F3
:102DB00006C068EF73E085E693E00E94880F8C2FD1
:102DC000CF910895CF93DF930E949F10EB010E9453
:102DD000FA108F3F49F00E949F106C1B7D0B6935E4
:102DE0007240A8F380E001C081E0DF91CF910895A7
:102DF0008F929F92AF92BF92CF92DF92EF92FF920B
:102E0000CF93C82F1092070481E090E0A0E0B0E0DB
:102E100080930A0490930B04A0930C04B0930D04C8
:102E200082E094E09093240480932304109222047F
:102E30008FEF9FEFDC018093250490932604A093ED
:102E40002704B0932804CC2331F1C53008F0DCC04E
:102E500020E040E050E0BA0182E294E00E947F125C
:102E6000009709F4D1C020E1C29F800D911D11246B
:102E70004097FC01E254FE4F20812F7709F0C4C037
:102E8000389680809180A280B38081149104A1043F
:102E9000B10421F4B9C0812C912C540120E0B5017A
:102EA000A40182E294E00E947F12FC01892B09F4C4
:102EB000ABC0838594858115924009F0A5C08089B7
:102EC000823009F0A1C0468557854115510509F4A6
:102ED0009BC02585209304048FEF820F8093050407
:102EE00080E091E0291751F031E0380F393019F4C2
:102EF0008093060489C0990F832FF4CF8093060432
:102F0000C688D788C114D10419F0E12CF12C04C073
:102F1000C4A0D5A0E6A0F7A0C0920E04D0920F04E2
:102F2000E0921004F0921104D501C401840F951FA2
:102F3000A11DB11D8093160490931704A09318044B
:102F4000B09319042189328930930904209308042D
:102F5000CC0CDD1CEE1CFF1CC80ED91EEA1EFB1E8D
:102F6000C0921E04D0921F04E0922004F09221042B
:102F700055E0220F331F5A95E1F721503E4F232F82
:102F800033272695C20ED31EE11CF11CC0921204F9
:102F9000D0921304E0921404F0921504238934892A
:102FA0002115310521F0C901A0E0B0E004C080A1E5
:102FB00091A1A2A1B3A1B501A4014C195D096E09AB
:102FC0007F09480F591F6A1F7B1F0090060404C029
:102FD00076956795579547950A94D2F7DB01CA0114
:102FE0000196A11DB11D80931A0490931B04A09318
:102FF0001C04B0931D04453F8FE05807610571051F
:1030000028F48CE08093070480E017C0453F5F4FB1
:103010006105710510F480E10DC084A595A5A6A5F4
:10302000B7A580931E0490931F04A0932004B0932F
:10303000210480E28093070481E0CF91FF90EF901C
:10304000DF90CF90BF90AF909F908F9008950F9397
:103050001F93FA018C0122273327012B022B032B0C
:1030600009F42EC033E3639F6627030E611D202DF4
:10307000739F7727600D711D839F8827700D811DB9
:10308000939F9927800D911D1124260F671F781F8C
:10309000891F911D270F681F791F811D911D290F01
:1030A000611D711D811D911D969587957795679579
:1030B00027953AE0239F212D1124205D2293CACF2A
:1030C000CF0101976A307105E8F033E3639F66270B
:1030D000030E611D202D739F7727600D711D112434
:1030E000260F671F711D270F611D711D769567954E
:1030F00027953AE0239F212D1124FC0180E3820FC4
:103100008083DECF605DFC0160831F910F91089585
:10311000CF93282F843660F46AE00E94E826205D71
:10312000C22F9AE0899FC019112460E3680F02C082
:103130006FE3CFE3E0916503F09166030190F081C6
:10314000E02D85E693E00995E0916503F091660333
:103150000190F081E02D6C2F85E693E0CF910994EA
:103160000F931F93FC016181862F90E0A0E0B0E0F7
:103170000027182F292F3A2F428150E060E070E09D
:10318000BA0155274427D901C801840F951FA61FEE
:10319000B71F2081BC01CD01620F711D811D911DE2
:1031A0001F910F910895CF92DF92EF92FF920F93AC
:1031B0001F93CF93DF93082FF62E142FE90161E0C0
:1031C00085E693E00E94280E602F85E693E00E943A
:1031D000280E6F2D85E693E00E94280E612F85E66C
:1031E00093E00E94280E1C27F1266C2F85E693E0C1
:1031F0000E94280E6D2F85E693E00E94280EFD2682
:103200001F2D10278BE5E82E82E0F82EC55ADD4FE2
:10321000EC16FD0661F06701F70161917F0185E61B
:1032200093E00E94280EF60180811827F1CF612FCC
:1032300085E693E0DF91CF911F910F91FF90EF9082
:10324000DF90CF900C94280E8F929F92AF92BF92F6
:10325000CF92DF92EF92FF921F93CF93DF93D82FFD
:10326000C92F10924C061092490610924E068FE418
:1032700096E090934B0680934A060E949F106B0144
:103280007C01A0904A06B0904B068AE0F50182834B
:1032900061E00E943E1061E0F50182810E94F20F20
:1032A0001FB7F89480915F06811127C0EBE7F4E027
:1032B0002491E7E6F4E08491E22FF0E0EE0FFF1FA7
:1032C000ED5AFB4FA591B491EC91E82321F461E014
:1032D0008AE00E94F20F61E08AE00E943E108CB505
:1032E00080618CBD8CB580648CBD61E08DE00E94F6
:1032F0003E1061E08BE00E943E1080915F068F5F80
:1033000080935F061FBFE0914A06F0914B0682E56D
:103310008083118289E496E00E941611E0914A06AA
:10332000F0914B0661E082810E94F20F1AE08FEF6C
:103330000E94F5101150D9F7E0914A06F0914B0622
:1033400060E082810E94F20F20E030E0A90160E09D
:1033500089E496E00E942F11813049F00E949F106D
:103360006C197D09613D774078F380E258C02AEA04
:1033700031E040E050E068E089E496E00E942F11DF
:10338000853011F481E00AC014E00E94FA108093A5
:103390004D061150D1F78A3A59F482E080934E06D7
:1033A00080914E06823069F0812C912C54010EC020
:1033B0000E949F106C197D09613D7740C0F285E243
:1033C0002EC0812C912CA12C80E4B82E20E030E07E
:1033D000A90167E389E496E00E942F11A5019401F9
:1033E00069E289E496E00E942F11882349F00E9447
:1033F0009F106C197D09613D774040F383E40FC055
:1034000080914E06823009F520E030E0A9016AE3A0
:1034100089E496E00E942F11882349F087E3809386
:10342000490689E496E00E94011180E019C00E94DB
:10343000FA10807C803C19F483E080934E060E9451
:10344000FA100E94FA100E94FA1089E496E00E9495
:103450000111E0914A06F0914B06D083C18381E0CF
:10346000DF91CF911F91FF90EF90DF90CF90BF90B1
:10347000AF909F908F9008958F929F92AF92BF923E
:10348000EF92FF920F931F93CF93DF937B018C01F9
:10349000C0E0D0E0CE15DF05C9F10E949F10609317
:1034A0006D0370936E0380936F0390937003E091AC
:1034B0006503F09166030284F385E02D85E693E0D1
:1034C000099597FF1EC00E949F1080906D039090F9
:1034D0006E03A0906F03B0907003DC01CB018819DC
:1034E0009909AA09BB098090690390906A03A0908A
:1034F0006B03B0906C0388159905AA05BB05B8F25B
:1035000005C0F80181938F012196C4CFCE01DF91D0
:10351000CF911F910F91FF90EF90BF90AF909F9030
:103520008F9008958F929F92AF92BF92CF92DF9229
:10353000EF92FF920F931F93CF93DF9300D000D0B1
:1035400000D0CDB7DEB70E944C0DB82E0E944C0DB6
:10355000F82E0E944C0DE82E0E944C0D082F10E012
:10356000102F00270E0D111D0B3081E0180708F0F9
:1035700093C10032110530F4B8018BE592E00E944E
:103580003C1A1DC02D9AC12CD12C65E085E693E034
:103590000E94280E48018C189D0881E2881691042B
:1035A00018F0A0E28A2E912CB401C601855A9D4FD5
:1035B0000E943C1AC80CD91CC016D10630F3EF2C5F
:1035C000EB24E026E126EBE5F2E0055A1D4FE0177B
:1035D000F10719F08191E826FACF0E944C0D8E1563
:1035E00041F020E030E043E06F2D8B2D0E94D31896
:1035F00053C181E0B81621F082E0B81669F14BC1E1
:1036000081E0F81621F082E0F81671F01BC085E029
:1036100080935B0210925C0282E080935D02809353
:103620005E0224E030E014C00E948D1581110EC0AE
:103630006DE274E085E693E00E94880F20E030E0C0
:1036400041E007C020E030E042E003C020E030E08D
:1036500040E06F2D81E01DC180915E06811104C0A4
:1036600020E030E044E013C185E1F81609F4C7C05A
:103670008F15A0F182E0F81609F488C08F1590F03C
:10368000FF2009F481C081E0F81208C10E942B15C7
:10369000EBE5F2E001900020E9F731978F010B553F
:1036A0001240F3C082E1F81609F48FC084E1F816E5
:1036B00009F49DC080E1F812F1C08BE592E00E9410
:1036C000B01820915E0200915F0210E0102F0027D9
:1036D000020F111DA8010E943E15D7C082E2F81604
:1036E00009F4C7C08F1528F180E2F81609F495C0D7
:1036F0008F1508F499C086E1F812D0C08BE592E0EE
:103700000E94B0184B015C018EE592E00E94B01857
:103710009B01AC01C501B4010E94551660935B0288
:1037200070935C0280935D0290935E0204E010E06F
:10373000ACC080E3F81609F4A1C081E3F81609F4DF
:103740009FC083E2F812AAC080915F02409160029C
:1037500050E0542F4427480F511D80915D02609125
:103760005E0270E0762F6627680F711DE0915B02A4
:1037700080915C0290E0982F882721E632E08E0F3E
:10378000911D0E94F5147FC080E07BC020915406FB
:10379000909155068091560620935B0290935C02AF
:1037A00080935D02909158068091590690935E0235
:1037B00080935F0290915A0680915B06909360021D
:1037C0008093610207E010E060C08BE592E00E9408
:1037D000B01820915E0240915F0250E0542F4427C0
:1037E000420F511D20E632E00E94C1144CC08BE50F
:1037F00092E00E94B0184B015C0184E107C08BE5A8
:1038000092E00E94B0184B015C0185E10E944614D1
:10381000C501B4010E94AB1436C08BE592E00E9452
:1038200069150BEA10E031C021E632E0AE014F5FCE
:103830005F4FBE016D5F7F4FCE0105960E949116CE
:103840008D819E8180935B0290935C026B817C8171
:1038500060935D0270935E0249815A8140935F02DA
:103860005093600221E632E00E94911606E110E0DA
:103870000CC08BE592E00E94871405C080E301C074
:1038800081E30E94461400E010E040E098016F2DB3
:1038900082E00E94D31819C080E017C06BE174E089
:1038A00085E693E00E94640F4F2D50E060E070E0E9
:1038B00020E185E693E00E94EA0E85E693E00E940F
:1038C000330F00E010E042E0E1CF26960FB6F89407
:1038D000DEBF0FBECDBFDF91CF911F910F91FF9043
:1038E000EF90DF90CF90BF90AF909F908F90089512
:1038F0002F923F924F925F926F927F928F929F9200
:10390000AF92BF92CF92DF92EF92FF920F931F93ED
:10391000CF93DF93CDB7DEB7C155D1090FB6F89479
:10392000DEBF0FBECDBF7C01862E19A21AA240E0D9
:1039300050E0BA010E94790370E2972ECE01019601
:103940006C01E0E17E2EFEE26F2E89A181112CC276
:10395000F7018081807709F427C280899189A28943
:10396000B3898F719927AA27BB27892B8A2B8B2B89
:1039700009F01AC200E010E0D70150962D903D905A
:103980004D905C90539760E0C7010E9458050097E6
:1039900009F40AC2FC012081222309F405C22E3257
:1039A00011F400E0E9CF253EE1F3338533FD22C079
:1039B000B201A10125E076956795579547952A951F
:1039C000D1F70023F9F02F964FAF2F9760965FAF96
:1039D000609761966FAF619762967FAF62970E9422
:1039E00066032F964FAD2F9760965FAD60971813C3
:1039F000DBC108C03F30A9F626FFBECF022F0F71F2
:103A00001585BACF21E0B701CE0181960E94190633
:103A1000882309F4C9C189A181FDC1C110E018152D
:103A200069F0E0916503F09166030190F081E02D6B
:103A300060E285E693E009951F5FF1CFCE018196A4
:103A40000E94FC09882309F47CC060E0CE018196C5
:103A50000E94DC09009709F474C0DC0156960D91B0
:103A60001C9157975896AD90BC9059971B86B501FD
:103A7000672F772766956454784F80E090E0AE0119
:103A8000455F5F4F0E942718BC0185E693E00E94C6
:103A90005103E0916503F09166030190F081E02D00
:103AA0006DE285E693E00995C50155E09695879509
:103AB0005A95E1F78F700E948818E0916503F091A4
:103AC00066030190F081E02D6DE285E693E00995B3
:103AD0008A2D8F710E948818E0916503F09166032A
:103AE0000190F081E02D60E285E693E00995812F59
:103AF0008695869586950E948818E0916503F091D9
:103B000066030190F081E02D6AE385E693E0099574
:103B1000C80165E0969587956A95E1F78F730E94D5
:103B20008818E0916503F09166030190F081E02D23
:103B30006AE385E693E00995802F8F71880F0E94D4
:103B40008818E0916503F09166030190F081E02D03
:103B500060E285E693E009951B8669AD7AAD8BAD91
:103B60009CADAE01455F5F4F0E942718C816D9066D
:103B700020F4FC019292CF01F9CFB60185E693E0E3
:103B80000E945103E0916503F09166030190F0817A
:103B9000E02D60E285E693E0099519821A828CA1F6
:103BA00081114AC089A1882309F4D5C0807641F0EB
:103BB0008FE222968FAF229723961FAE2397C4C021
:103BC00060E0CE0181960E94DC098C01009709F427
:103BD000C2C0FC0168E090E020E08081803201F109
:103BE000283051F441E450E04C0F5D1F490F511D46
:103BF000DA016C929F5F60E130818FEB830F8A3135
:103C000030F4D8011C968C91862309F0305E41E493
:103C100050E04C0F5D1F490F511DDA013C939F5F2F
:103C20002F5F31962B30C9F6E1E4F0E0EC0FFD1F79
:103C3000E90FF11D108288C089A59AA5ABA5BCA586
:103C40000097A105B10549F46FA178A5C6010E94AE
:103C5000FF05882309F47FC010C0F601292D1192B9
:103C60002A95E9F7798221E02B832FA138A538879F
:103C70002F838D8F9E8FAF8FB8A3BB24B3948CA15D
:103C80008B1508F468C00B2D10E04DA15EA1401B00
:103C9000510B60E070E035E0440F551F661F771F41
:103CA0003A95D1F7C6010E947903882309F453C0DD
:103CB00060E0C6010E9458052C01009709F44BC032
:103CC000DC011B968C911B978F3009F044C08C91BE
:103CD0008F7190E008171907F1F5820120E0253077
:103CE00020F4F801618172810BC02B3030F4D801CF
:103CF00014966D917C91159703C0F80166817781C8
:103D00006115710531F4D2018C9186FD24C0B39404
:103D1000B6CF6F37710510F06FE370E0E091650387
:103D2000F09166030190F081E02D85E693E02F96F7
:103D30002FAF2F9709952F962FAD2F972F5F0E5FDF
:103D40001F4F2D3061F6DFCFBE016F5B7F4F85E6E1
:103D500093E00E94510389A1807759F0E0916503B7
:103D6000F09166030190F081E02D6FE285E693E02B
:103D70000995E0916503F09166030190F081E02DD3
:103D80006DE085E693E00995E0916503F0916603A7
:103D90000190F081E02D6AE085E693E00995CE017F
:103DA00081960E94940BD1CDCF5ADF4F0FB6F89475
:103DB000DEBF0FBECDBFDF91CF911F910F91FF905E
:103DC000EF90DF90CF90BF90AF909F908F907F90BB
:103DD0006F905F904F903F902F9008951F93CF93D7
:103DE000DF93182FC0E085E693E00E94F10D892B48
:103DF000D1F385E693E00E94CF0D682F883089F0DB
:103E00001CF4813029F017C08D3029F08B3199F4E2
:103E100060935B0221C0EC2FF0E0E55AFD4F108269
:103E20001BC0CC2301F3C15060E974E085E693E048
:103E30000E94640FD8CF6032B4F2C117A0F6D1E06F
:103E4000DC0FEC2FF0E0E55AFD4F608385E693E050
:103E50000E94490FCD2FC7CF81E0DF91CF911F91F5
:103E60000895CF9365E874E085E693E00E94640FBF
:103E70008EE10E94EE1EC82F85E693E00E94330F6C
:103E800080915B02882311F08C2F01C080E0CF91DC
:103E9000089589E496E0909303048093020489E2F4
:103EA00096E00E94940B81E00E94F816882349F066
:103EB00062E074E089E296E00E94FF05882331F019
:103EC00007C080E00E94F8168111F2CF80E00895CB
:103ED000909129069077D1F329E236E0309361067C
:103EE000209360060895CF93DF93CDB7DEB7C15618
:103EF000D1090FB6F894DEBF0FBECDBF789484B55C
:103F0000826084BD84B5816084BD85B5826085BDD5
:103F100085B5816085BD80916E00816080936E0063
:103F20001092810080918100826080938100809155
:103F30008100816080938100809180008160809306
:103F400080008091B10084608093B1008091B000C6
:103F500081608093B00080917A00846080937A00C1
:103F600080917A00826080937A0080917A008160EB
:103F700080937A0080917A00806880937A00109212
:103F8000C10061E082E00E943E1062E083E00E9496
:103F90003E1061E084E00E943E1060E085E00E94F7
:103FA0003E1061E08DE00E943E1061E089E00E94D9
:103FB0003E1061E08AE00E943E1061E08AE00E94CB
:103FC000F20F80918100887F81608093810061E0A1
:103FD00089E00E943E10E3E9F0E0E491E33019F15A
:103FE00050F4E130D1F0E230E1F584B5806284BD77
:103FF0008FE788BD3AC0E73011F1E83049F1E4308D
:1040000081F5809180008062809380008FE790E04E
:1040100090938B0080938A0028C084B5806884BD0B
:104020008FE787BD22C080918000806880938000E8
:104030008FE790E0909389008093880016C080916C
:10404000B00080688093B0008FE78093B3000DC00C
:104050008091B00080628093B0008FE78093B400BD
:1040600004C060E089E00E94F20FE0917503F091D6
:10407000760382E08083E0917103F09172031082F5
:10408000E0917303F091740380E1808310927D03CB
:10409000E0917903F0917A0386E08083E0917703E1
:1040A000F0917803808180618083E0917703F091C3
:1040B0007803808188608083E0917703F0917803B2
:1040C000808180688083E0917703F091780380811C
:1040D0008F7D808388EE93E0A0E0B0E08093690359
:1040E00090936A03A0936B03B0936C0380E591E017
:1040F0000E94241981110E94491F80935A02811144
:1041000006C067EB70E085E693E00E94880F0E948E
:104110008D15811106C06EE970E085E693E00E947E
:10412000880F0E944C0D813009F400C18D3009F0D8
:10413000FFC00E945E0D85E693E00E94330FF0E51C
:104140002F2EF1E03F2E64E973E085E693E00E94B4
:10415000640F68E471E085E693E00E94620F81E0FD
:104160000E94EE1E182F85E693E00E94330F809187
:104170005B02882341F3112331F36FE471E085E69C
:1041800093E00E94370F80915B0290E00E942C29FF
:1041900089349105D1F064F48B31910509F4C8C0DC
:1041A0008634910509F481C0019709F0B2C0BEC000
:1041B0008635910509F4A7C08735910509F47EC0BD
:1041C0008235910509F0A5C095C00E94C6168823C6
:1041D00009F49FC00E948D15882309F452C00E94E3
:1041E0002B1565E873E085E693E00E94880F6FE782
:1041F00073E085E693E00E94640F10E0E12FF0E0A9
:10420000E55AFD4F6081662331F085E693E00E9418
:10421000490F1F5FF3CFB0905A06A0905B06D09075
:104220005806C09059061091540600915506F0901A
:104230005606E090570667E573E0CE0101960E94AE
:10424000A20EAF92BF92CF92DF92EF92FF920F93A6
:104250001F938A818F9389818F933F922F920E941F
:104260004A29CE0101960E949D0E60E571E085E627
:1042700093E00E94370F0FB6F894DEBF0FBECDBF9C
:1042800006C06CE373E085E693E00E94880F80E54A
:1042900091E00E942419811103C06EE273E025C0F1
:1042A0000E94491F811135C0F8CF0E94D41688237F
:1042B00081F10E94C61681113EC02BC00E94D41607
:1042C000882339F10E94C616811128C022C048ED0A
:1042D00050E06BE572E0CE01C9960E943D04883D36
:1042E000910509F495C064E073E085E693E00E94CF
:1042F000880F0FC00E94D416882359F00E94C6165A
:104300008111C3C006C00E945E0D0E94D4160E9497
:10431000C61685E693E00E94330F15CF0E94311F29
:104320008823B9F380915B028130B1F40E94921A24
:104330000E94910EF6CE19821A8221E04BE451E0E0
:1043400069E276E0CE0101960E949D0B60E0CE010D
:1043500001960E94781CDDCF62EE73E085E693E063
:104360000E94640F6BE572E085E693E00E94620FA5
:1043700064ED73E085E693E00E94880F19AE1AAEF3
:1043800018AA1FA688EE93E0A0E0B0E089AB9AAB34
:10439000ABABBCAB8AE091E09EA78DA71D861E86C5
:1043A0001C821B8228EE33E040E050E02D833E83E8
:1043B0004F8358879A83898321E04BE552E069E275
:1043C00076E0CE010D960E949D0B80E2FE013D96A7
:1043D000DE01D99601900D928A95E1F78B819C813F
:1043E00098AB8FA78D819E81AF81B88589AB9AAB41
:1043F000ABABBCAB89859A85AB85BC858DAB9EABE1
:10440000AFABB8AF89AD811162CF6EE173E083C00D
:10441000C0905406D0905506E0905606F09057068E
:1044200040E150E061E772E08BE592E00E948B266C
:10443000892B19F06DE572E058CF10916B021130A5
:1044400021F480916C02882319F068E472E04DCF6A
:1044500080912F0390913003A0913103B0913203EA
:104460006D968CAF9DAFAEAFBFAF6D97C816D90636
:10447000EA06FB0618F467E272E037CF8091830208
:1044800080FF59C06BE072E062C00E94311F882338
:1044900009F43FCF80915B02813009F447CF6CEB88
:1044A00073E085E693E00E94640F6BE572E085E6B9
:1044B00093E00E94620F67E285E693E00E94500F4E
:1044C0001DA61EA622E04BE552E069E276E0CE0191
:1044D0008D960E949D0B811170C21D861E861C82C6
:1044E0001B8228EE33E040E050E02D833E834F8373
:1044F00058878AE091E09A83898323E64BE552E06E
:1045000069E276E0CE010D960E949D0B8D858111AA
:104510005DC260EF70E085E693E00E94640F6BE59A
:1045200072E085E693E00E94620F67E285E693E021
:104530000E94500FEECE4BEA50E060E671E084E856
:1045400092E00E949826109383026BE471E085E666
:1045500093E00E94880F86EA91E00E9469154BEA79
:1045600050E066EA71E084E892E00E943429892BE9
:1045700021F084E892E00E94871486E0EDE6F2E004
:10458000A0EAB1E001900D928A95E1F74091A40173
:104590005091A5016091A2017091A30123E732E03F
:1045A0008091A0019091A1010E94F514D090A401E6
:1045B000C090A501F090A201E090A3011091A0018C
:1045C0000091A10160E071E0CE0101960E94A20E6F
:1045D000CF92DF92EF92FF920F931F936D969FAD54
:1045E0006D979F936C96AFAD6C97AF936B96BFAD85
:1045F0006B97BF936A96EFAD6A97EF938A818F931B
:1046000089818F933F922F920E944A29CE01019671
:104610000E949D0E60E571E085E693E00E94620FC6
:104620000FB6F894DEBF0FBECDBF03E712E0E0E1A6
:10463000FE2EF00ED8016D918D0185E693E00E946B
:10464000490FF012F7CF67E285E693E00E94500F22
:104650000E949F10A2966CAF7DAF8EAF9FAFA297C6
:104660006E961FAE6E97C12CD12C760188248A9449
:10467000982C54018091540690915506A0915606AD
:10468000B0915706C816D906EA06FB0678F52091C0
:104690005C0630915D0640E050E0C701B6010E9423
:1046A0000827672B682B692B39F485E10E94461493
:1046B000C701B6010E94AB146D962CAD3DAD4EAD59
:1046C0005FAD6D97C216D306E406F50608F0A7C0E5
:1046D00040915806509159066BE572E0CE01C9969B
:1046E0000E943D048C01009709F062C0240135014D
:1046F0006BEE72E0CE0101960E94A20EFF92EF9245
:10470000DF92CF928A818F9389818F933F922F92EC
:104710000E944A29CE0101960E949D0E60E571E03B
:1047200085E693E00E94370FCE01C9960E94940B54
:1047300081E30E94461465ED72E085E693E00E94F5
:10474000640F0E949F10A2962CAD3DAD4EAD5FADA3
:10475000A297621B730B840B950B28EE33E040E0AD
:1047600050E00E940827BA01A9012AE085E693E0FB
:104770000E94EA0E63E785E693E00E94500F6DEB1E
:1047800072E085E693E00E94880F85E693E00E9440
:104790006F0E7501640131E0C322DD24EE24FF2495
:1047A0000FB6F894DEBF0FBECDBF8FE190E089C099
:1047B0002BE532E0AC01C701B6010E94C114EBE564
:1047C000F2E0055A1D4FE017F10749F1A19189E088
:1047D00090E021E030E0B0E00197A9F32401350139
:1047E000442477FC4394552466247724642DA9013E
:1047F0004A235B23452B11F061E06425880C991C4A
:10480000AA1CBB1C662341F057EB85265DE195266B
:1048100051ECA52654E0B526220F331FDDCFD7017A
:10482000C6019F73AA27BB27892B8A2B8B2B09F0E4
:104830003FC067EF72E0CE0101960E94A20EFF9288
:10484000EF92DF92CF928A818F9389818F933F92EB
:104850002F920E944A29CE0101960E949D0E60E58A
:1048600071E085E693E00E94620F0FB6F894DEBF18
:104870000FBECDBF6D962CAD3DAD4EAD5FAD6D970E
:10488000C216D306E406F50698F46E963FAD6E9711
:10489000311108C081E30E94461441E06E964FAF8B
:1048A0006E9706C080E30E9446146E961FAE6E9708
:1048B0008091580690915906C80ED91EE11CF11C32
:1048C000D9CE7694679457944794CC0CDD1CEE1C9B
:1048D000FF1CB301A2014170552766277727C42A20
:1048E000D52AE62AF72A019761F7C094D094E0947C
:1048F000F0946D962CAD3DAD4EAD5FAD6D9760E023
:1049000070E0CB010E9455164B015C016DEA72E02C
:10491000CE0101960E94A20EBF92AF929F928F92FB
:10492000FF92EF92DF92CF928A818F9389818F934A
:104930003F922F920E944A29CE0101960E949D0E1D
:1049400060E571E085E693E00E94370F0FB6F894BA
:10495000DEBF0FBECDBFC814D904EA04FB0419F0B2
:104960006EE972E0C2CC61E872E085E693E00E94F5
:10497000640F0E949F10A2962CAD3DAD4EAD5FAD71
:10498000A297621B730B840B950B28EE33E040E07B
:1049900050E00E940827BA01A9012AE085E693E0C9
:1049A0000E94EA0E63E785E693E00E94500F67E0FD
:1049B00085E693E00E94490FACCC19821A828DA53E
:1049C00083FF8BCD8FA581FF88CDD1C088EDEBE52E
:1049D000F2E0DF011D928A95E9F740E150E061E7DE
:1049E00072E0CF010E949826E1E0F0E0F0936C02C3
:1049F000E0936B0220E030E040E250E020932F0390
:104A000030933003409331035093320384E892E0B3
:104A10000E94691581E08093830223E732E044EA33
:104A200051E062EA71E080EA91E00E94911686E02E
:104A3000E0EAF1E0ADE6B2E001900D928A95E1F78F
:104A40000E949F104B015C01C12CD12C760140E0EB
:104A500051E0C701B6010E943E1540E051E06BE510
:104A600072E0CE0101960E947F0BD701C6019F73B1
:104A7000AA27BB27892B8A2B8B2B09F564EE70E0C4
:104A8000CE018D960E94A20EFF92EF92DF92CF92FE
:104A90008EA58F938DA58F933F922F920E944A29C6
:104AA000CE018D960E949D0E60E571E085E693E053
:104AB0000E94620F0FB6F894DEBF0FBECDBF80918B
:104AC000580690915906C80ED91EE11CF11CC1145C
:104AD000D10450E2E506F10408F4B9CF68ED70E0C6
:104AE000CE018D960E94A20EFF92EF92DF92CF929E
:104AF0008EA58F938DA58F933F922F920E944A2966
:104B0000CE018D960E949D0E60E571E085E693E0F2
:104B10000E94370FCE010D960E94940B68EC70E056
:104B200085E693E00E94640F0E949F10681979093E
:104B30008A099B0928EE33E040E050E00E940827F4
:104B4000BA01A9012AE085E693E00E94EA0E63E734
:104B500085E693E00E94500F67E085E693E00E94AF
:104B6000490F0FB6F894DEBF0FBECDBFD2CB2D9646
:104B70004CAD5DAD6EAD7FAD2D9741155105610515
:104B8000710539F08BA99CA90E94B013882309F400
:104B9000A4CC61E0CE018D960E94DC098C010097C7
:104BA00009F49BCC0E946603D82E85EED8018C9325
:104BB0001DA68BA99CA980960E943C12882309F40B
:104BC0008CCC88A9882309F488CC8DA99EA9AFA98B
:104BD000B8AD8E010F5F1F4F0097A105B10541F4DD
:104BE0006BA97CA9C8010E94FF05811112C075CC78
:104BF00020E2F80111922A95E9F720E1298321E0CA
:104C00002B832BA93CA938872F838D8F9E8FAF8F45
:104C1000B8A3BB24B39495EEC92E88A98B1508F4CC
:104C20005CCCEB2CF12C49A95AA94E195F0960E024
:104C300070E085E0440F551F661F771F8A95D1F7F6
:104C4000C8010E947903882309F447CC60E0C801B9
:104C50000E945805FC01892B09F43FCC83858F30D5
:104C600009F03BCC9081292F2F7130E0E216F3063A
:104C700009F033CC8585D81230CCC082EBA9FCA9D1
:104C800080A1816080A396FF05C0CF0180960E941D
:104C90003C1223CCB394C1CFE5E6F3E01382128239
:104CA00088EE93E0A0E0B0E084839583A683B78389
:104CB0008CE191E09183808385EC90E095878487F7
:104CC00084EC90E09787868780EC90E0918B808BD6
:104CD00081EC90E0938B828B82EC90E0958B848BBF
:104CE00086EC90E0978B868B118E128E138E148E2D
:104CF00010925E06109207041092290610922A065E
:104D000084E68093490610924E0680E580934F0614
:104D1000109250060895FB01DC0104C08D910590AE
:104D2000801921F441505040C8F7881B990B089511
:104D3000FB01DC0102C005900D9241505040D8F7B4
:104D40000895FB01DC0105900D920020E1F7089524
:104D5000FC0105900020E9F7809590958E0F9F1F2C
:104D600008952F923F924F925F926F927F928F920F
:104D70009F92AF92BF92CF92DF92EF92FF920F93EA
:104D80001F93CF93DF93CDB7DEB7CA1BDB0B0FB6F4
:104D9000F894DEBF0FBECDBF09942A8839884888B1
:104DA0005F846E847D848C849B84AA84B984C88447
:104DB000DF80EE80FD800C811B81AA81B981CE0F3E
:104DC000D11D0FB6F894DEBF0FBECDBFED01089523
:104DD000991B79E004C0991F961708F0961B881F4D
:104DE0007A95C9F780950895AA1BBB1B51E107C0AE
:104DF000AA1FBB1FA617B70710F0A61BB70B881F6B
:104E0000991F5A95A9F780959095BC01CD010895F9
:104E1000A1E21A2EAA1BBB1BFD010DC0AA1FBB1FBE
:104E2000EE1FFF1FA217B307E407F50720F0A21B30
:104E3000B30BE40BF50B661F771F881F991F1A949D
:104E400069F760957095809590959B01AC01BD01C7
:104E5000CF010895EE0FFF1F0590F491E02D099406
:104E6000CF93DF938230910510F482E090E0E091DF
:104E70006406F091650620E030E0C0E0D0E03097B5
:104E800011F14081518148175907C0F0481759075F
:104E900061F482819381209719F09B838A832BC0D0
:104EA000909365068093640626C02115310519F09C
:104EB0004217530718F49A01BE01DF01EF01028087
:104EC000F381E02DDCCF2115310509F1281B390BC9
:104ED0002430310590F412968D919C9113976115B1
:104EE000710521F0FB019383828304C090936506D2
:104EF00080936406FD01329644C0FD01E20FF31F6A
:104F000081939193225031092D933C933AC0209183
:104F1000620630916306232B41F420910201309107
:104F200003013093630620936206209100013091C3
:104F300001012115310541F42DB73EB7409104011F
:104F400050910501241B350BE0916206F091630638
:104F5000E217F307A0F42E1B3F0B2817390778F050
:104F6000AC014E5F5F4F2417350748F04E0F5F1FAF
:104F700050936306409362068193919302C0E0E0F0
:104F8000F0E0CF01DF91CF9108950F931F93CF935E
:104F9000DF93009709F48CC0FC01329713821282D0
:104FA00000916406109165060115110581F42081B8
:104FB0003181820F931F209162063091630628177A
:104FC000390779F5F0936306E093620671C0D80162
:104FD00040E050E0AE17BF0750F412962D913C917F
:104FE0001397AD012115310509F1D901F3CF9D01C9
:104FF000DA013383228360817181860F971F8217C4
:10500000930769F4EC0128813981260F371F2E5F41
:105010003F4F318320838A819B8193838283452BF9
:1050200029F4F0936506E093640642C01396FC935E
:10503000EE931297ED01499159919E01240F351F6E
:10504000E217F30771F480819181840F951F029616
:1050500011969C938E938281938113969C938E9349
:105060001297E0E0F0E0D80112968D919C91139791
:10507000009719F0F8018C01F6CF8D919C91980161
:105080002E5F3F4F820F931F20916206309163067F
:105090002817390769F4309729F4109265061092A1
:1050A000640602C0138212821093630600936206A4
:1050B000DF91CF911F910F910895A0E0B0E0E3E65A
:1050C000F8E20C94B526EC01009721F4CB010E9484
:1050D0003027B8C0FC01E60FF71F9C0122503109B0
:1050E000E217F30708F4ACC0D9010D911C91119798
:1050F00006171707B0F00530110508F49FC0C80166
:1051000004978617970708F499C002501109061BE7
:10511000170B019311936D937C93CF010E94C527C8
:105120008DC05B01A01AB10A4C01800E911EA091A6
:105130006406B091650640E050E0E12CF12C109738
:1051400009F44AC0A815B905D1F56D907C90119766
:10515000630182E0C80ED11CCA14DB0480F1A301F4
:105160004A195B096A0182E0C80ED11C1296BC90F4
:1051700012971396AC91B5E0CB16D10440F0B282F1
:10518000A38351834083D9016D937C930AC00E5F42
:105190001F4FC301800F911FF90191838083EB2D75
:1051A000FA2FE114F10431F0D7011396FC93EE933A
:1051B000129744C0F0936506E09364063FC08D915A
:1051C0009C9111974817590708F4AC017D0112967C
:1051D0000D90BC91A02DB3CF809162069091630693
:1051E00088159905E1F446175707C8F48091000126
:1051F00090910101009741F48DB79EB74091040151
:1052000050910501841B950BE817F907C8F4F0933A
:105210006306E0936206F901718360830FC0CB01DE
:105220000E9430277C01009759F0A801BE010E941E
:105230004129CE010E94C527C70104C0CE0102C08A
:1052400080E090E0CDB7DEB7EEE00C94D12681E0AF
:1052500090E0F8940C94EB2B9111089581568A51AB
:1052600008F4805285580895FB01DC0104C08D913B
:105270000190801921F441505040C8F7881B990BC8
:105280000895FB01DC0102C001900D924150504095
:10529000D8F70895AEE0B0E0E0E5F9E20C94BF265F
:1052A0000D891E8986E08C831A8309838FEF9FE71F
:1052B0009E838D83AE01475E5F4F6F89788DCE01EF
:1052C00001960E946D292F813885F801E20FF31FA6
:1052D00010822E96E4E00C94DB26ACE0B0E0E3E72D
:1052E000F9E20C94B1267C016B018A01FC01178262
:1052F0001682838181FFBDC1CE0101964C01F70169
:105300009381F60193FD859193FF81916F0188232D
:1053100009F4ABC1853239F493FD859193FF8191F6
:105320006F01853229F4B70190E00E94552BE7CF39
:10533000512C312C20E02032A0F48B3269F030F473
:10534000803259F0833269F420612CC08D3239F0FB
:10535000803339F4216026C02260246023C0286095
:1053600021C027FD27C030ED380F3A3078F426FFF2
:1053700006C0FAE05F9E300D1124532E13C08AE060
:10538000389E300D1124332E20620CC08E3221F451
:1053900026FD6BC1206406C08C3611F4206802C063
:1053A000883641F4F60193FD859193FF81916F0159
:1053B0008111C1CF982F9F7D9554933028F40C5FB5
:1053C0001F4FFFE3F9830DC0833631F0833771F04F
:1053D000833509F05BC022C0F801808189830E5FAC
:1053E0001F4F44244394512C540115C03801F2E05E
:1053F0006F0E711CF801A080B18026FF03C0652DDF
:1054000070E002C06FEF7FEFC5012C870E944A2B2E
:105410002C0183012C852F77222E17C03801F2E052
:105420006F0E711CF801A080B18026FF03C0652DAE
:1054300070E002C06FEF7FEFC5012C870E943F2B09
:105440002C012C852068222E830123FC1BC0832D78
:1054500090E048165906B0F4B70180E290E00E944F
:10546000552B3A94F4CFF50127FC859127FE8191C5
:105470005F01B70190E00E94552B31103A94F1E0A2
:105480004F1A51084114510471F7E5C0843611F0E8
:10549000893639F5F80127FF07C060817181828163
:1054A00093810C5F1F4F08C060817181072E000C33
:1054B000880B990B0E5F1F4F2F76722E97FF09C036
:1054C00090958095709561957F4F8F4F9F4F206885
:1054D000722E2AE030E0A4010E948D2BA82EA8187D
:1054E00044C0853729F42F7EB22E2AE030E025C053
:1054F000F22FF97FBF2E8F36C1F018F4883579F07E
:10550000B4C0803719F0883721F0AFC02F2F206149
:10551000B22EB4FE0DC08B2D8460B82E09C024FFBE
:105520000AC09F2F9660B92E06C028E030E005C063
:1055300020E130E002C020E132E0F801B7FE07C010
:1055400060817181828193810C5F1F4F06C06081F1
:10555000718180E090E00E5F1F4FA4010E948D2BAF
:10556000A82EA818FB2DFF777F2E76FE0BC0372DB7
:105570003E7FA51450F474FE0AC072FC08C0372D9B
:105580003E7E05C0BA2C372D03C0BA2C01C0B52C05
:1055900034FF0DC0FE01EA0DF11D8081803311F44E
:1055A000397E09C032FF06C0B394B39404C0832F80
:1055B000867809F0B39433FD13C030FF06C05A2C2F
:1055C000B31418F4530C5B18B32CB31468F4B7017C
:1055D00080E290E03C870E94552BB3943C85F5CF48
:1055E000B31410F43B1801C0312C34FF12C0B701C2
:1055F00080E390E03C870E94552B3C8532FF17C02A
:1056000031FD03C088E790E002C088E590E0B70173
:105610000CC0832F867859F031FF02C08BE201C0A5
:1056200080E237FD8DE2B70190E00E94552BA51472
:1056300038F4B70180E390E00E94552B5A94F7CFDD
:10564000AA94F401EA0DF11D8081B70190E00E9457
:10565000552BA110F5CF332009F451CEB70180E2CC
:1056600090E00E94552B3A94F6CFF70186819781FE
:1056700002C08FEF9FEF2C96E2E10C94CD26FC0147
:105680000590615070400110D8F7809590958E0F6D
:105690009F1F0895FC016150704001900110D8F7E0
:1056A000809590958E0F9F1F08950F931F93CF9312
:1056B000DF93FB01238121FD03C08FEF9FEF28C003
:1056C00022FF16C046815781248135814217530736
:1056D00044F4A081B1819D012F5F3F4F318320832E
:1056E0008C93268137812F5F3F4F3783268310C0ED
:1056F000EB01092F182F0084F185E02D0995892BE6
:10570000E1F68E819F8101969F838E83812F902F5A
:10571000DF91CF911F910F910895FA01AA272830A8
:1057200051F1203181F1E8946F936E7F6E5F7F4F6E
:105730008F4F9F4FAF4FB1E03ED0B4E03CD0670FEA
:10574000781F891F9A1FA11D680F791F8A1F911D3D
:10575000A11D6A0F711D811D911DA11D20D009F48D
:1057600068943F912AE0269F11243019305D3193CF
:10577000DEF6CF010895462F4770405D4193B3E0B8
:105780000FD0C9F7F6CF462F4F70405D4A3318F05F
:10579000495D31FD4052419302D0A9F7EACFB4E010
:1057A000A6959795879577956795BA95C9F70097C8
:1057B0006105710508959B01AC010A2E0694579569
:1057C000479537952795BA95C9F7620F731F841FC0
:0A57D000951FA01D0895F894FFCF67
:1057DA0000006606800000000000820B7F0B950225
:1057EA00490D7502A305BB0500000000280E950DA2
:1057FA00C00D6F0EF10DCF0DE30D000000009B0EE2
:10580A00950D950294029B0E9B0E9B0E00000000C4
:10581A009B0E950D950294023A20002F000D0A0066
:00000001FF
